:020000040000FA
:1000000000800010890100009101000093010000B0
:100010009501000097010000990100000000000018
:100020000000000000000000000000009B01000034
:100030009D010000000000009F010000A1010000E0
:10004000A3010000A3010000A3010000A301000020
:10005000A3010000A3010000A3010000A301000010
:10006000A3010000A3010000A3010000A301000000
:10007000A3010000A3010000A3010000A3010000F0
:10008000A3010000A3010000A3010000A3010000E0
:10009000A3010000A3010000A3010000A3010000D0
:1000A000A3010000A3010000A3010000A3010000C0
:1000B000A3010000A3010000A3010000A3010000B0
:1000C000A301000000F002F800F054F80AA090E844
:1000D000000C82448344AAF10107DA4501D100F003
:1000E00049F8AFF2090EBAE80F0013F0010F18BF7C
:1000F000FB1A43F001031847543E0000743E000011
:10010000103A24BF78C878C1FAD8520724BF30C843
:1001100030C144BF04680C60704700000023002415
:1001200000250026103A28BF78C1FBD8520728BF07
:1001300030C148BF0B607047642900F07D8273298D
:1001400000F0AF85002070471FB59DE8030000F068
:10015000C5FE00F0BBFC04000020002102F084FE7C
:10016000401C606000F0F8FD00F098FC1FBD00200E
:1001700002F04EF802F0FEF81146FFF7E5FF00F03E
:10018000BFF802F009FA0000064880470648004719
:10019000FEE7FEE7FEE7FEE7FEE7FEE7FEE7FEE737
:1001A000FEE7FEE7FD1A0000C500000010B500F0F4
:1001B0008DFC001D10BD00BFB12C000053EA020CE5
:1001C00000F069802DE9F04B4FF00006002B1FBFB7
:1001D000B3FA83F503FA05F424FA05F65E4012BF7C
:1001E0001643B2FA82F502FA05F4C5F120051EBFE6
:1001F00022FA05FC44EA0C04203556EA044C4FEA86
:10020000144418BF641C4FF000084FF000099042DE
:1002100071EB030C39D3002919BFB1FA81F701FA48
:1002200007F6B0FA80F700FA07F6C7F120071EBFFD
:1002300020FA07FC46EA0C062037B6FBF4FCA7EBD5
:100240000507103F07F01F0BCBF120060CFA0BFB44
:100250002CFA06F644BFB3460026202FA4BF5E4604
:100260004FF0000B5BEA060C08BF4FF0010B19EBD7
:100270000B09ABFB027C48EB0608C01B06FB02CC5B
:100280000BFB03CC71EB0C01C1E70B460246414668
:100290004846BDE8F08B13B54FF000004FF0000169
:1002A000AFF30080BDE81C4070470FB4014610B5A5
:1002B00004AA039800F0FAFC10BC5DF814FB0000DF
:1002C0000FB41CB5084B06AA7B44694600900598FC
:1002D00000F0BDFC04460020694600F0CBFC20463F
:1002E0001CBC5DF814FB0000A9090000002000F010
:1002F000CFFDAFF30080012000F0E2FBFFFFFFFF26
:1003000005219F4801F0FBFE87E0002482E000BF4A
:1003100000BF9C48406940699A498969084008B112
:10032000012000E0002000BF20B3002516E00021DE
:10033000954801F057FE0121944801F053FE94487E
:1003400002F072FD0021914801F04CFE01218E481F
:1003500001F048FE8E4802F067FD6D1C042DE6D3C7
:1003600000218A4801F03EFE05462946864801F0F4
:1003700026FE52E0204602F04EFF0746854A864B95
:1003800002F05CFF054602F085FD814649467C4847
:1003900001F0D1FE04F08001804801F023FE054603
:1003A00029467F4801F00BFE04F040017D4801F032
:1003B00019FE054629467C4801F001FE04F02001A3
:1003C0007A4801F00FFE05462946794801F0F7FD0D
:1003D00004F01001774801F005FE054629467648ED
:1003E00001F0EDFD04F00801744801F0FBFD04F09C
:1003F0000401734801F0F6FD04F00201714801F0B8
:10040000F1FD04F00101704801F0ECFD6F4802F0CD
:100410000BFD641CFF2C7FF67AAF76E710B5002247
:100420006B49584801F08EFE04466A4A6A4901F059
:10043000D6FE002266492E31594801F09BFD044644
:10044000644A664901F0CBFE002261492D315648CD
:1004500001F090FD04465F4A604901F0C0FE0022B1
:100460005B490931524801F085FD0446594A5B4910
:1004700001F0B5FE0022564908314F4801F07AFDDF
:100480000446544A554901F0AAFE00225049C91DAC
:100490004A4801F06FFD04464E4A504901F09FFE64
:1004A00000224B49891D464801F064FD0446494A33
:1004B0004A4901F094FE00224549491E414801F095
:1004C00059FD0446434A454901F089FE002240494E
:1004D000891E3D4801F04EFD04463E4A3F4901F069
:1004E0007EFE00223A492131324801F043FD0446A4
:1004F000384A3A4901F073FE0022354923312B482E
:1005000001F038FD0446334A344901F068FE002208
:100510002F492431234801F02DFD04462D4A2F494F
:1005200001F05DFE00222A4926311C4801F022FD1F
:100530000446284A294901F052FE0022244930315C
:10054000114801F017FD0446224A244901F047FEF4
:1005500000221F492F310D4801F00CFD04461D4AB1
:100560001E4901F03CFE002219493431044801F0D3
:10057000C9FD0446174A1A4901F031FE10BD0000BA
:10058000B802001014010010800200109C0200103C
:100590000AD7A33DFCA9F1D24D62703F640200105E
:1005A00030010010480200104C0100102C02001015
:1005B000680100101002001084010010A00100105A
:1005C000BC010010D8010010F4010010CDCCCC3DCE
:1005D00011C00920000000008B210000BB1F00009B
:1005E0003321000070B50C460546012A05D0287855
:1005F000800600D5EA69002302E0012305E05B1CC8
:10060000934202D2E05C0028F9D1A869E618C01A2A
:10061000A861286A184428622846AFF3008004E0E5
:10062000D5E9012114F8010B9047B442F8D32846CC
:10063000AFF3008070BD00002DE9F04106460024B4
:1006400010687529314616A510D0AFF30080002838
:1006500002DA404213A507E031688A0701D512A5E6
:1006600002E0490704D511A5012401E0AFF30080A1
:1006700000210A2206F1240709E0B0FBF2FCB0FBDE
:10068000F2F302FB1C00303078541846491C002855
:10069000F3D123462A463046BDE8F04100F078BA4F
:1006A000000000002D0000002B00000020000000D2
:1006B0002DE9F0474FF0000A89460446C0F820A013
:1006C0002046E1688847002876D0252806D0D4E95E
:1006D00001219047206A401C2062F1E7E168204632
:1006E00000258847C4F81CA006460027C4F818A0B7
:1006F0002A2E09D0304601F045FE38B304EB8708B6
:10070000303EC8F8186019E059F8041B204604EB85
:1007100087029161E1688847012F064618D1E06998
:10072000002820DA25F020051DE0D8F8180000EB9D
:10073000800006EB40003038C8F818002046E16819
:100740008847064601F01EFE0028EED1012F0AD090
:100750002E2E08D12046E16888477F1C0646022FCE
:1007600045F02005C4DBA069002803DA404245F0CB
:100770000105A061E80701D025F01005B6B1A6F18A
:100780004100192802D8203645F400654A46314612
:10079000204625604D46FFF7CFFC58B1012806D012
:1007A000ED1D25F0070000F1080989E704E005F1D7
:1007B000040985E730468AE7206ABDE8F087000033
:1007C0000FB400B58DB010A9099000910B904FF0B7
:1007D000FF300A9000200C900648784406900648A6
:1007E00078446A4607900F9909A800F085FA0DB081
:1007F0005DF814FB3B050000530500002DE9FF5F89
:100800001D464FF0FF3B91464FF000085F46D5E98B
:100810000146A96901987F1C8847296A8246884752
:100820000028F6D1BAF1FF3F0CD0002E24F4C064AA
:1008300019DD600614D5BAF12B0F09D0BAF12D0FCE
:100840000ED103E0584604B0BDE8F09F44F4806444
:10085000A96901987F1C8847761E8246002E02DD1A
:10086000BAF1300F03D0B9F1000F26D032E0A969F8
:10087000761E01987F1C44F400748847002E82463F
:1008800005DDBAF1780F06D0BAF1580F03D0B9F1EF
:10089000000F10D01EE0B9F1000F02D0B9F1100F17
:1008A00018D1A969761E01987F1C24F4007488472A
:1008B0008246102002E0082000E00A20814609E07C
:1008C000A96908FB0908761E01987F1C44F400748E
:1008D00088478246002E05DD4946504600F0F8F96B
:1008E0000028EDDAE96901988847A00502D46FF085
:1008F0000100A8E7E00725D1600613D5600502D501
:10090000C8F1000000E0404629680A1D2A60096815
:10091000220501D5087015E0220701D5088011E0F5
:1009200008600FE02868011D29600068210502D5D4
:1009300080F8008006E0210702D5A0F8008001E0E1
:10094000C0F8008038467EE710B5431C02E010F87E
:10095000011B71B18107FAD14FF0013202C88C1A24
:100960008C4314EAC211F9D0C01A0A0603D0C01E83
:1009700010BDC01A10BD0A0401D0801E10BD0902AE
:10098000FCD0401E10BD40EA010370B59B072ED17C
:100990004FF00136042A2AD308C810C99D1B9D4375
:1009A000121F15EAC61517D0D8B2E1B2401A50EAA4
:1009B000056110D198B2A1B2401A50EA05410AD19E
:1009C00023F07F4024F07F41401A50EA052102D1F4
:1009D000180EA0EB146070BDA342DBD018BA21BA88
:1009E000884201D9012070BD4FF0FF3070BD0AB9B7
:1009F000002070BD10F8013B11F8014B63B1A34218
:100A00000AD1521E08D010F8013B11F8014B1BB15E
:100A1000A34201D1521EEDD1181B70BD4FF0013C15
:100A200050F8042B51F8043B9A4221D1A2EB0C035D
:100A3000934313EACC1317D150F8042B51F8043B1D
:100A40009A4215D1A2EB0C03934313EACC130BD1BA
:100A500050F8042B51F8043B9A4209D1A2EB0C0345
:100A6000934313EACC13DBD04FF00000704700BF74
:100A7000D01A01BAB1FA81F101F0180122FA01F09D
:100A8000CB40C1F12001DBB2C0B2C01A2CFA01F395
:100A9000D11A914311EAC311E6D1704770B5064CE3
:100AA0007C44064D7D4403E0206820448047241D9B
:100AB000AC42F9D170BD0000D8350000D835000037
:100AC00001491820ABBEFEE726000200004870472F
:100AD00004040010004870471804001000487047D4
:100AE0001C04001070B5064600F0DCF9056806F13C
:100AF0000B0020F00704B4429CBF002070BD2B46C1
:100B00006A68BAB11068A04210D304F108018842A3
:100B10003CBF5068586007D3516810194160116894
:100B2000091B016058601460101D70BD13465268A7
:100B3000002AE7D12146284600F0BCF90028DED182
:100B400070BD70B50446051F00F0ACF90068002CBC
:100B500014BF446870BD002C18BFAC423CBF204697
:100B60006468F8D301680A18AA4218BF456003D127
:100B70002A6805461144016028684119A1421CBF3A
:100B80006C6070BD6168696021680844286070BD50
:100B90002DE9F0470D4699469246044600F1240897
:100BA0000168880604D5E06921F01001216000E0A9
:100BB0000120A84201DD471B00E00027A1697A1946
:100BC00002EB0900081AA0612078C00602D4204672
:100BD000AFF30080002608E0D4E901211AF80600EE
:100BE0009047206A401C761C20624E45F4DB20783A
:100BF000C0060AD52046AFF3008006E0D4E9012103
:100C000030209047206A401C2062381EA7F101075F
:100C1000F4DC07E0D4E9012118F805009047206AC8
:100C2000401C2062281EA5F10105F3DC2046AFF32D
:100C300000802078000602D50220BDE8F087012060
:100C4000FBE7000001694A1C02610878704700B5A3
:100C50008FB0CDE901310021059105497944CDE9F5
:100C6000031011466846FFF723FD0FB000BD0000DA
:100C7000E5FFFFFF0A6802F8010B0A60704710B534
:100C8000436913B1AFF3008001E0FFF7ABFC012033
:100C900010BD127800F124010A7000224A7001226E
:100CA000EDE711684FF0FF32E9E70000074B70B540
:100CB0000D467B44FFF7CBFF0446284600F008FBB7
:100CC00010B14FF0FF3070BD204670BDF718000026
:100CD0003A2800D2303820F02002412A01D3A2F174
:100CE0003700884201D34FF0FF307047026811444B
:100CF0001378016018467047D16005497944516105
:100D000004497944116200211161114600F026B9AD
:100D1000EDFFFFFF43020000426842B1016811F895
:100D2000013B23B1521EC0E9001218467047012151
:100D3000C160881E704742685AB1C368016843B9F0
:100D400083688B4205D0491E521CC0E90012002066
:100D500070474FF0FF30704710B54248542100F003
:100D6000A0FB4148542100F09CFB4048542100F076
:100D700098FB3F493B483C4A3F4B08603D490A606D
:100D80003A491960531C0365481C10650120086529
:100D90003B48344A39A1784400F0C2FA20B93848B7
:100DA00078440A3800F076FB37482F4A35A178445A
:100DB00000F0B6FA20B9344878440A3800F06AFBEB
:100DC00032482A4A2FA1784400F0AAFA20B92F48C5
:100DD00078440A3800F05EFB40232248DC00002102
:100DE000224600F079FA20B125487844543800F0C2
:100DF00051FB1D4822464023002100F06DFA20B12E
:100E000021487844543800F045FB18482246102306
:100E1000002100F061FA002806D01C487844BDE8A3
:100E20001040563800F036BB10BD104870B5006D4C
:100E300020F001040B4800F0E9FA0B4800F0E6FA54
:100E40000A4800F0E3FA09E0206D20F00105204691
:100E500000F0DCFA2046FFF774FE2C46002CF3D19C
:100E600070BD0000080300105C030010B003001008
:100E700004010010080100100C01001072000000B5
:100E8000E22D000077000000D12D0000C12D0000F0
:100E900010B500F0E7FABDE8104000F0DDBA00F050
:100EA00027FB7047004870472004001070477047C8
:100EB0007047704738B504460A460020694600F07E
:100EC00092FD002808BF38BD02460099204600F078
:100ED00049FB012038BD012000F072BDF8B500F0DB
:100EE00077FD054600200C46102000BF0646A819D5
:100EF000A0420DD932466946002000F074FD07007B
:100F000008BF00F05DFD0098A04218BF0546C41957
:100F1000FFF7C8FF05600746F01D20F007004619DF
:100F2000284600F00AF8B44208BFF8BDA21B3146BB
:100F30003868BDE8F84000F015BB00210160C0E949
:100F4000011070471020704710B50446FFF72EF9C6
:100F50000068005D00F0010010BD00002DE9F34FB6
:100F60004FF0000A0C4656468DB001200C9001F15E
:100F70000C000B9062690B980121904705002DD061
:100F8000252D2CD0216A8847C0B162690B980121B8
:100F90009047216A88470028F7D16269411E0B9863
:100FA000904700E0761CA1690D988847216A884720
:100FB0000028F7D1E1690D988847DBE7A1690D9812
:100FC0008847A842074601D1761CD3E7E1690D980E
:100FD00088477F1C02D1BAF1000F6FD06BE16269C4
:100FE0000B9800273D46394690472A2804D162696C
:100FF0000B98012190470125DFF8D08262690B9898
:1010000001219047A0F130010A290AD24745E5DCC9
:1010100007EB870100EB4107303FDFD445F01005B7
:10102000ECE7E90601D46FF000476C280AD04C28A1
:1010300014D0682815D06A280DD074281CD07A28BE
:101040001AD01DE062690B98012190476C2802D0EC
:1010500045F0040514E045F002050DE045F02005DB
:101060000AE062690B9801219047682802D045F098
:10107000080505E045F4006562690B980121904779
:10108000C4E9015765283DD019DC58287AD00CDC1A
:10109000452837D004DC252826D041289ED131E0D0
:1010A00046282FD0472899D12CE05B2877D061289B
:1010B00028D063287CD0642823D15AE0F6E06F283A
:1010C00048D008DC66281DD067281BD0692821D0AD
:1010D0006E2816D127E0702845D0732868D075286F
:1010E00047D078280DD14DE0A1690D988847252873
:1010F00005463FF469AFE1690D9888476D1C3FF4E0
:101100006AAFD8E00D9923466A466FF00100AFF34D
:101110000080C5E045F0400023464FF000026060CB
:10112000A80736D43EE0E8077FF447AF2068011DEA
:1011300021600068290501D506701BE7290701D544
:10114000068017E7A90703D5F117C0E9006111E789
:1011500006600FE745F0400023464FF0080260604C
:10116000A80716D41EE040F60E0125EA01006060D3
:1011700016E045F0400023464FF00A026060A807E1
:1011800007D40FE045F040006060A80708D523466B
:1011900010220D996FF00100AFF3008080E007E0AE
:1011A000102223460D996FF00100FFF727FB77E02F
:1011B0004FF0000963284F46C8464B46CB4602D045
:1011C0005B2806D038E0E80601D40120A0600127A2
:1011D00032E06269D4F80CB00B98012190475E2888
:1011E00007D14FF0010949466269D4F80CB00B9859
:1011F0009047216939B900210A4603AB43F8212001
:10120000491C0829FADBD8B3216949B308F1010860
:1012100062690B98012190475D28F4D1B9F1000F64
:1012200009D0002003A951F82020D24341F8202002
:10123000401C0828F7DB03AB2069002820794FEA1F
:1012400040701ED05B462246CDF80080CDE9019764
:101250000D9900286FF0010020DAAFF300801FE045
:10126000C11703AA00EBD1614B1121F01F0102EB62
:101270008302411A13680120884003431360C7E7C3
:1012800019E00D99224600286FF00100009702DA5C
:10129000AFF3008004E0AFF3008001E0AFF3008023
:1012A00000280ADA401C06D10C9820B14FF0FF301C
:1012B0000FB0BDE8F08F5046FAE7E90701D10AF117
:1012C000010A064400200C9054E60000CCCCCC0C63
:1012D000007B00F08000704770B5C468A50713D08C
:1012E000650211D4B2F5807F09D0B2F5007F06D037
:1012F000B2F5806F08D1012300F1240106E05D1EE4
:101300006FF07F46B54201D3012070BD0161C3611A
:10131000416024F470611143C160002070BD000081
:101320002DE9F0410C4607461646104600F06EF8CF
:101330002078611C61280AD0722802D077283CD11D
:1013400002E00125002405E00225042402E008242F
:1013500048F2020511F8010B2B2806D0622809D0AB
:1013600011F8010C74280AD00BE045F0030544F095
:101370000204EFE745F0040544F00104EAE744F015
:1013800010043846214601F03DF8411C15D00021DB
:10139000316171604FF40071F560F1617061200797
:1013A00004D530460222002100F0E2F9306D40F011
:1013B000010030653046BDE8F0810020FBE72DE9F3
:1013C000F0410D460646104C206DC10704D041087F
:1013D00004D020F00104F7E722460EE05420FFF786
:1013E00081FB07000ED0206D47F001010843542116
:1013F0002065384600F055F83A4629463046BDE8A3
:10140000F0418DE70020D6E7080300102DE9F047F2
:1014100004464FF000094FF0FF37C568D4E9048651
:10142000A80707D0204600F053FA304600F0B2FF7C
:10143000002802DA3846BDE8F087280502D5404684
:10144000FFF77FFB4C21204600F02BF8206D20F0A9
:10145000010020654846EEE7002801D0FFF730BBC9
:101460007047000010B5002102A000F075FA0120BD
:1014700010BD0000534947414252543A2041626E28
:101480006F726D616C207465726D696E6174696FE5
:101490006E00000010B500F079FABDE81040FFF7CB
:1014A000DBBF4FF0000200B5134694469646203944
:1014B00022BFA0E80C50A0E80C50B1F12001BFF40D
:1014C000F7AF090728BFA0E80C5048BF0CC05DF873
:1014D00004EB890028BF40F8042B08BF704748BFC1
:1014E00020F8022B11F0804F18BF00F8012B704735
:1014F00010B500F00EF8016919B1002202618847A9
:1015000001E080688047FEF7F1FE000010B5FEF7AD
:10151000EDFE70B500F022F804680546A4B920205D
:10152000FFF7E0FA040011D0094900202C60C4E95B
:1015300000010849A1602073206160610649A06133
:1015400009B100F06DFAE061204670BDFEF7CEFEF5
:10155000000000000D15000000000000004870476A
:1015600024040010034640688C46002818BF8842B7
:101570003CBF03464068F8D318681844884207D037
:101580000CF1030020F00700001D411A521A014619
:10159000081D0A60FFF7D5BA2DE9F04705460C464D
:1015A000C86820F4201040F48000C860800602D58E
:1015B000084600F0B0F9E06841F282014FF0FF39CF
:1015C0000140022903D0204600F04EF9B5E000F4B6
:1015D0002041B1F5004F0FD1C00306D56168E06A24
:1015E000884200D80846606006E02069E0626060DA
:1015F000606900F0E3FEA061A0680022EEB200285E
:101600000DDAE1688B050AD4C043A06041F4903044
:101610002260E0606068411C61600670A5E0E068DF
:101620009046226040F40050E060206968BB606929
:1016300000F0D6FE012704F12405A0B1A08910F422
:10164000407F08D0E069FFF74DFA206118B1E068EB
:1016500040F4006016E0E7612561E06820F4407026
:1016600040F480600EE0E069FFF73CFA002820615A
:10167000F1D0E06840F4006010F4407FE06002D1F7
:1016800040F48070E06020696060E06825696FF078
:10169000010AC1051FD56168E06A884200D8084682
:1016A000411B04D02246284600F0E8F8F0BBE06871
:1016B000010203D5E562C4E9015854E0691CE16206
:1016C0006160E16940F48030491EC4E9021030468F
:1016D0002E70BDE8F087010202D500F480320AE0E6
:1016E0006068411C61600670E0680A2E40F480303A
:1016F000E06006D00022E16A6068814203D90B46AF
:1017000002E00122F7E70346A7895B1B7F0503D4AC
:10171000E7699F4200DDE2B1814200D80146E562FF
:101720000F1AC4E90158002B09DD00E005E022464C
:101730001946284600F0A2F808B14846C9E747B163
:10174000A069E5626560C01BA061E06840F0100020
:10175000E060E068000208D56168A069E562491BA5
:1017600008446560A0615046B3E73046B1E7000029
:101770002DE9F041044616460D464769007B800777
:101780002ED0384600F02CFE50BB3EB3012E02D0C6
:10179000022E25D104E0204600F067F905441DE043
:1017A000384600F00BFEE168002841F01001E160CE
:1017B00005DA204600F058F80120BDE8F081C903A1
:1017C0000BD56268E16A914200D81146A2691144C2
:1017D0002269891A814200DD08460544002D01DA9C
:1017E0000220EAE7E16A6068E268814206D291037A
:1017F000E06203D522F4003141F01002A66900270F
:10180000AE4213DCE16A814201D90B4600E0034697
:1018100003EB060C2369ACEB030CAC4506DD8142FF
:1018200001D98C4600E084469C4505D1A76027601D
:1018300042F02000A5620DE0AD1BE669AE1B8142BF
:10184000A66000D90846C01A281A2060581960609E
:1018500022F0200003490840E060002084F848702E
:10186000ABE70000BFCFD7FFC16821F4001141F002
:101870008001C16000218160016070472DE9F0475F
:10188000814614460E464FF0FF383248D5685769F6
:10189000054209D03846A16900F042FE002811DB5C
:1018A0002C48C0430540E5602B4632464946384641
:1018B00000F04CFEA16920F00042B21A1144002849
:1018C000A16103D02046FFF7CFFF4046BDE8F08777
:1018D00070B504460569C06A6168884200D8084648
:1018E000E16821F42011E160C90312D5A84208D0B3
:1018F0002246411B2846FFF7C1FF10B14FF0FF30D1
:1019000070BD0020E562C4E90150E06820F4803039
:10191000E060002070BD10B50446C06820F02000D3
:10192000E060A16AA06988420DD02046FFF7D0FF91
:10193000E06820F4405040F01000E060A06AA06130
:101940002069E062606044F24001E0688843E06042
:1019500010BD00001000020070B505460C460A20BC
:1019600000E06D1C00F07AF835B128780028F8D135
:1019700002E0641C00F072F814B120780028F8D15D
:10198000BDE870400A2000F069B8000010B50146BB
:1019900002A0FFF7E1FF012010BD000053494752AC
:1019A000545245443A2052656469726563743A2022
:1019B00063616E2774206F70656E3A20000000002E
:1019C00010B500F073F8BDE81040FFF745BD00000A
:1019D000124B694600F580528A421A6001D81146BE
:1019E00070471960704730B50C4D6B46A3F58053B6
:1019F0002C6822449A420FD89B1A02F5805003EBC0
:101A0000D37302EB6303984200D91846C01D20F03F
:101A100007020C60101B2A6030BD0000100100108E
:101A200010B58820FFF75EF8002801D00021017072
:101A300010BD802902D808B1017809B10020704793
:101A4000012100F8081B704718B100F1080291420B
:101A500001D00020704700210170704708B5694629
:101A60008DF800000320ABBE08BD10B50146C2686A
:101A7000900703D0900607D5886A0AE0FFF72EF892
:101A800001210160881E10BD8B69486818440B69EC
:101A9000C01A91F848301BB191F84910401A10BD96
:101AA0001103FCD50028FADD401E10BD10B5012839
:101AB00005D0002103A0FFF74FFF012010BD09A1B1
:101AC000F8E7000053494752544D454D3A204F75B1
:101AD00074206F662068656170206D656D6F727926
:101AE000000000003A2048656170206D656D6F72DE
:101AF0007920636F72727570746564001B482021D1
:101B0000C0F8A011D0F8A0114906FBD500F1800063
:101B10000221C0F884104FF00101C0F88C104FF082
:101B20000B02426001604FF0AA02C2604FF0550301
:101B3000C360A0F18000D0F888104901FBD50321D3
:101B400040F8801FC260C3600521C0F888100021E2
:101B5000C0F82811C0F82C11054A4264C0F8481199
:101B600043F23A0140F8801C7047000000C00F406B
:101B7000DE8728040B4810B50068002811D10A49F7
:101B8000481E01F073F8094C012300220821204669
:101B900000F0F6FF2046BDE810404FF4165100F06B
:101BA0001DBF10BD0001001003C0092000C000408F
:101BB0002DE9F041054614460E46506900F0E7FA5B
:101BC000012718B1E7602562BDE8F081206A00288E
:101BD000FAD0E069A842F7D13046A16900F0D7FAFF
:101BE0000028F1D0606A18B1002027616062EBE73D
:101BF000206A6062E8E710B51446506900F0C7FA41
:101C0000002802D000202062E06010BD2DE9F041E4
:101C10001468984616460D460746A047284600F029
:101C2000CEFA214900F0B3FA30B1002332463846EB
:101C3000A968FFF7EBFF2AE0284600F0C0FA1B492D
:101C400000F0A5FA18B305F110041AE0F06810B11D
:101C50002079800714D544B1207910F0010F04D009
:101C60002146384600F084F802E0606807EB202047
:101C7000234632462168FFF7C9FF3069002811D199
:101C80000834E96805EBC1001030A042DED8746862
:101C9000002C07D04346324629463846A446BDE8C4
:101CA000F0416047BDE8F0812C3D0000383D000068
:101CB0002DE9FF4D82B0824614468B464FF0000856
:101CC00010460E9D00F07BFA274900F060FA78B1CB
:101CD000DA4504D1A068059900F059FA40BB009597
:101CE000A26859465046059BFFF7E2FF804636E062
:101CF000204600F064FA1D4900F049FA78B3264600
:101D0000103426E06068C10705D02146504600F037
:101D10002FF8074601E00AEB20275F450BD120682A
:101D2000059900F034FA30B12079A046800716D525
:101D30000120286013E02079800709D500952268EA
:101D400059463846059BFFF7B3FF8046286830B9EF
:101D50000834F06806EBC0001030A042D2D806B0BC
:101D60004046BDE8F08D00002C3D0000383D0000ED
:101D70000268496802EB21210968084470470000A5
:101D80002DE9FF4D8CB01446DDE91C688B46002719
:101D90001046199D00F013FA704900F0F8F998B355
:101DA000A0680F9900F0F3F9C8B1DBF8000010B19A
:101DB0000C99884204D13078022801D0286828B1D3
:101DC000012028600020CBF80000C3E00120307023
:101DD0001A98C8F800000C98CBF8000012E0DDE972
:101DE0001A1202A880E846011898CDE90005A268F9
:101DF00059460F9B0C98FFF7C3FF002803D02868B3
:101E0000002800D10127A5E0FFE7204600F0D7F920
:101E1000534900F0BCF9002869D018980B9440F39E
:101E2000400008901898103440F30000099089E0B1
:101E3000606800F001010A910C9969B10A9969B1D1
:101E400021460C98FFF794FF82461A9850B12079EA
:101E5000800707D5012006E00020F5E70C9901EB8B
:101E60002020F1E70020009020680F9900F08FF902
:101E700020B3DBF8000008B1504507D16068C10706
:101E800002D03178012901D0296829B101202860C8
:101E90000020CBF8000029E0C00701D0022000E0BC
:101EA000012030700098C8F80000CBF800A03DE099
:101EB000089800E00998401C4CD142E000990020AD
:101EC0008DF81C0007AACDE90428069006AB1898E7
:101ED000CDE90213CDE900052268594650460F9B13
:101EE000FFF74EFF0028286802D020B1002731E01C
:101EF0000028FBD125E0069820B92079C00701D041
:101F000020680690307858B19DF81C10022901D144
:101F1000022805D01B98006880B1069988420DD12F
:101F20009DF81C0030701B9806990160D8F80000DD
:101F3000012730B10A980028BCD0B9E701202860F9
:101F4000D4E708340B98C16800EBC1001030A04200
:101F50003FF66EAF10B03846BDE8F08D2C3D000066
:101F6000383D0000143005C809B182617047C26174
:101F70007047000070B50D46114600F08BF80A4915
:101F800004460160681C0CD025F01F01C4E904510F
:101F9000284600F02EFB206900F01F010120884038
:101FA000A061204670BD0000E03E000010B500F0CA
:101FB0008BF8BDE8104000F0FEB800F085B870B5B1
:101FC00006460C4600BF60694069A169084008B137
:101FD000012000E00020054629463046FFF7C2FFF9
:101FE000304670BD70B504460D4629462046FFF7C1
:101FF000B9FF204670BD000070B5094805680BE0C8
:102000002C466D68207B38B1A06800F0D0F81CB178
:102010002068416820468847002DF1D170BD00003E
:10202000CC00001070B506460B480D4604680EE063
:10203000A06858B12A463146FEF7A5FC30B9A06821
:10204000FEF782FCA84201D1204670BD6468002CD6
:10205000EED1002070BD0000CC00001070B50D0066
:1020600012D00A48202604680CE0207B48B108A161
:102070002846A268FEF724F90544606808B105F80F
:10208000016B6468002CF0D170BD0000CC00001022
:1020900025730000064A026000220273816021B1AC
:1020A00004490A6842600860704742607047000057
:1020B000F83E0000CC00001010B500F005F8BDE8B7
:1020C000104000F078B800000949016081680029DB
:1020D00005D0084A1168814203D1416811607047F8
:1020E00011464A688242FBD142684A60704700004C
:1020F000F83E0000CC000010407B00F041BC407B6B
:1021000000F0C8BB70B50D461146FFF7C3FF04468B
:1021100003482060284600F07FFB6073204670BDB6
:10212000103F000010B5FFF7CFFFBDE8104000F0F2
:1021300042B8FFF7C9BF10B50446FFF7DDFF2046E0
:1021400010BD000070B50D461146FFF7A3FF044611
:1021500009482060681C0CD02846256100F033FA3D
:10216000206920F01F01616100F01F0101208840FB
:10217000A061204670BD0000283F000010B5FFF7A9
:10218000A3FFBDE8104000F016B8FFF79DBF70B583
:102190000C46A04207D0406800BF05462046406874
:1021A00000BF854201D1012070BD002070BD10B577
:1021B00000F001F810BD10B5FEF7C3FC10BD10B55E
:1021C00030B1006820B14038C46B2CB1204610BD3E
:1021D000FEF765FE002010BDFEF761FEF6E72DE973
:1021E000F041074690460E4600251020FEF77AFC87
:1021F00004000BD0C4F80C80C4E90176FEF76AFC39
:102200000168216004602846BDE8F0810125FAE7F5
:102210002DE9F0410646FEF75DFC804613E026B14D
:10222000E068B04201D025460EE020682860D4E97D
:102230000101D8F8007088472046FEF782FCD8F8E4
:102240000000B84200D045462C68002CE7D1BDE81C
:10225000F08100002DE9F04D00248AB00126CDE97F
:1022600008649B4617468A46254600B10068CAF8AE
:10227000005080461046FFF7A2FF1149FFF787FF85
:1022800008B1B86800E0032008A907AACDE9042135
:102290008DF81C5006AB069509A9CDE90263CDE97E
:1022A00000015B463A4651464046FFF769FD10B1D2
:1022B000089800B101240AB02046BDE8F08D000066
:1022C000383D00002DE9F0450E46016815008BB041
:1022D00051F8082D824602EB0A040A944F684FF029
:1022E000000818D0214800902148CDF80C80CDF886
:1022F000108001900DF1140CCDF80880CDF82080ED
:10230000CDF824808CE86004394600236A462046D4
:10231000FFF77CFC099C24BB01200290B7420BD044
:1023200002A8009033463A465146CDF808800A98F4
:10233000FFF7BEFC0298A0B129463846FFF727FFF9
:1023400008B10A9C0DE0CDF80C80CDF800802B463A
:102350003A4603A90AA8CDF80480FFF77BFF00B135
:10236000039C0BB02046BDE8F0850000B11B0000C7
:10237000F71B000002486A4620F007007047000083
:102380002F04001030380A2801D2012070470020A5
:1023900070470000032801DA002070470649002238
:1023A00001EB800151F80C0D0A6010B10168496819
:1023B00008474FF0FF307047C8020010032801DAC9
:1023C00000207047054901EB800050F80C0C10B15B
:1023D0000168896908474FF0FF307047C802001054
:1023E000032801DA01207047054901EB800050F80D
:1023F0000C0C10B10168C96808474FF0FF307047F6
:10240000C80200102DE9F843884605463E49FEF70C
:1024100005FBB0B13C492846C91DFEF7FFFAA8B13B
:10242000394928460F31FEF7F9FA98B1374F0024A1
:102430004FF0FF3957F8240080B1641C102CF9D3F9
:1024400060E0FFF797FB0020BDE8F883FFF792FB01
:102450000120F9E7FFF78EFB0220F5E7102C51D29F
:1024600028783A2802D02F2809D04BE06A4628A1C4
:102470002846FEF7A5F90098B8B3103035E06A1C7D
:102480001546002115F8010B2F2803D008B1491C6F
:10249000F8E700251046FFF7C5FD90B35FEA8871A5
:1024A00001D502260AE05FEA487101D5012605E060
:1024B0005FEA087101D5092600E0002618F00C0F2C
:1024C00001D046F400765FEA487101D546F4806693
:1024D0004B4675B10F4A1049FFF7F4FE88B1016809
:1024E00032460B692946984758B147F82400E01C4A
:1024F000AAE70A4A0849FFF7E5FE0028F4D01030A1
:10250000F2E7FFE748469FE77C3B0000C802001067
:102510003A257000583D0000643D0000783D000001
:1025200010B503280BDB084A02EB800050F80C0CB6
:1025300038B10268136900229847401C01D000207E
:1025400010BD4FF0FF3010BDC80200102DE9F04162
:102550000E46154603280BDA00240D4F04E0315DCA
:10256000384600F0FBFB641CAC42F8D3284609E077
:10257000084901EB800050F80C0C30B101680B6881
:1025800031469847281ABDE8F0814FF0FF30FAE74E
:1025900000C00040C8020010044600F085F808B1F1
:1025A00000F016FA0CB100F045F8FEE78A68002A40
:1025B00001DCFEF7F1BF521E8A604A68C0B2531CAC
:1025C0004B601070704770B50446401C10D004F08A
:1025D0001F000126864024F01F050021204600F040
:1025E0006BF80321204600F081F82868B04328608A
:1025F00070BD70B50446401C10D004F01F000126C9
:10260000864024F01F050021204600F055F80221E5
:10261000204600F06BF828683043286070BD20F039
:102620001F0200F01F030120984009B1906170471C
:10263000D06170471B4C2046FFF7DBFFA51C2846E6
:10264000FFF7D7FFE61C3046FFF7D3FF671D38467C
:10265000FFF7CFFF01212046FFF7E1FF00212846C9
:10266000FFF7DDFF00213046FFF7D9FF0121384693
:10267000FFF7D5FF962000F0E7FB00212046FFF78B
:10268000CEFF01212846FFF7CAFF01213046FFF7A0
:10269000C6FF00213846FFF7C2FF962000F0D4FBAA
:1026A000D8E7000032C0092002480068C0F30000EB
:1026B00070470000F0ED00E010B5421C10D0094A50
:1026C000104403090007C20E074800EB83000368AB
:1026D00003249440A3430360036891400B430360C9
:1026E00010BD00000040F6DF00C00240F0B5421C03
:1026F00021D0114A114F1044420907EB820200F029
:102700001F05966EC1F3800303FA05F4A64396668F
:10271000956E25439566002B0DD103090007C20E67
:1027200007EB8300036C03249440A3430364036C0E
:1027300091400B430364F0BD0040F6DF00C002404F
:1027400088420BD0421C08D0491C07D004A109487C
:10275000FDF7ABFD0120FFF71FFF084670470000A3
:1027600070696E6D6170206D69732D6D6174636841
:1027700000000000B0030010421C06D1501E70473C
:10278000824201D1486870470C310A68531CF7D166
:1027900003A10B48FDF789FD0120FFF7FDFE0000B6
:1027A00070696E6D6170206E6F7420666F756E64F7
:1027B00020666F72207065726970686572616C0066
:1027C000B003001070B504461546401C17D00CE04D
:1027D000A34209D189682046FFF76EFF29462046AB
:1027E000BDE87040FFF782BF0C310B68581CEFD179
:1027F00003A10848FDF759FD0120FFF7CDFE70BD8C
:10280000636F756C64206E6F742070696E6F757481
:1028100000000000B003001070B505461749FFF72F
:10282000ABFFC4B21648016841F0400140F8E41B18
:10283000016821F44051016012484FF00001C1606D
:102840004FF002014161C16C04F108024FF0010335
:1028500003FA02F341EA0301C1644FF01401204678
:1028600000F012F80021204600F058F80222034937
:102870002846FFF7A7FF204670BD0000943B0000EC
:10288000C4C00F40008001404FF47A72514300F001
:1028900001B800002DE9F04704461C480022CB1780
:1028A00000688008A0FB015602FB016100FB0311D8
:1028B000174A00232846FDF781FCDFF85890D9F825
:1028C000182000230226C9F80460C9F8180052EA4B
:1028D000030510D0104D55F82440A046246800266A
:1028E000A4FB005706FB007004FB01012846FDF71E
:1028F00065FCC8F80000D9F8501041F00101C9F892
:1029000050100921C9F80410BDE8F087C800001074
:1029100040420F0000800140E40000104FF47A7242
:10292000514300F001B8000070B504461048002281
:10293000CB1700688008A0FB015602FB016100FB79
:1029400003110C4A00232846FDF738FC0A4D0021EC
:10295000AA69494042400A4300D1401C074951F846
:1029600024100860286D0121A1400843286570BD2E
:10297000C800001040420F0000800140E400001039
:1029800070B505460C4611F1FF4F01D3002404E059
:102990004FF07E50844200DD04460B4EB06900F0DB
:1029A000DFFE214600F024FF00F0A2FEB169814263
:1029B00000D1401C054951F825100860306D0121F7
:1029C000A9400843306570BD00800140E40000105C
:1029D0001FB569461820ABBE04B010BD2DE9F04FFD
:1029E0008146634A634B87B0084619EB02020AD05E
:1029F000B2F5804F11D0B2F50C2F37D0B2F5102FB1
:102A00003ED0FDF773FC03F5D473196821F0C001C3
:102A10001960196841F0400108E003F5D4731968A2
:102A200021F440711960196841F4807119605249AC
:102A30004FEA00124FF0000B096805914FF00001BA
:102A400000914FF0010101910599B1FBF2F302FBF6
:102A500013111FFA83F800296FD000F069FE03906C
:102A60004FEA5806CDF81080029060E003F5D67367
:102A7000196821F440311960196841F48031D5E7B3
:102A800003F5D673196821F440211960196841F4DF
:102A90008021CBE70124012541E0204600F060FEC3
:102AA0000746284600F05CFE394600F05FFD4FF017
:102AB0007E5100F0EDFC00F0BFFC07468A46304630
:102AC00000F0A9FB042201F006F83A46534600F054
:102AD000B5FB07468A46059800F042FE00F0ACFCC4
:102AE0003A46534600F010FA00F0D4F90146039834
:102AF00000F04AFF039900F039FD20F00047384606
:102B0000029900F041FE08D200951C48CDE901472A
:102B1000B046874201DA4FF0010B6D1CEDB2A542C1
:102B2000BBD3641CE4B20F2CB5D9761CB6B20498A2
:102B3000864202D8BBF1000FACD099F80C0040F0EF
:102B4000800189F80C104FEA182189F8041089F8DF
:102B50000080DDE9000140EA011089F8280099F8B9
:102B60000C0020F0800189F80C1007B0BDE8F08F50
:102B70000040FFBF00C00F40C80000106F12833A32
:102B800070B54C1F042C05D30A4618A12748FDF741
:102B90008CFB1CE0491F052A1CD2DFE802F003056C
:102BA000080B0E00002400E00124002507E00124AA
:102BB000254604E00124022501E001240325012B20
:102BC0000AD0022B08D01AA11848FDF76EFB01208D
:102BD000FFF7E2FC1DA1F7E75B1E41EA830141EA32
:102BE000C40141EA0511017370BD0000496E7661B0
:102BF0006C6964206E756D626572206F6620626913
:102C00007473202825642920696E207365726961B8
:102C10006C20666F726D61742C2073686F756C64C4
:102C200020626520352E2E3800000000B003001011
:102C3000496E76616C69642073746F702062697488
:102C4000732073706563696669656400496E7661B7
:102C50006C69642073657269616C2070617269745B
:102C6000792073657474696E6700000070B50D4655
:102C700006462D49FFF780FD2B4904466C31284656
:102C8000FFF77AFD01462046FFF75AFD0446401C37
:102C900014D026480122844201D1254802602348ED
:102CA00024494042201810D0B0F5804F12D0B0F522
:102CB0000C2F2FD0B0F5102F11D130E01EA12648D7
:102CC000FDF7F3FA0120FFF767FC51F8C40F40F05D
:102CD000080003E051F8C40F40F0100008602272B1
:102CE000002060604FF416512046FFF777FE012365
:102CF000002208212046FFF743FF02220A493046FE
:102D0000FFF760FD084902226C312846FFF75AFDA3
:102D1000204670BD51F8C40F40F08070DEE751F8D6
:102D2000C40F40F00070D9E7483C000000C00040EC
:102D30000001001000C00F4053657269616C207083
:102D4000696E6F7574206D617070696E6720666161
:102D5000696C656400000000B0030010027D12F091
:102D6000200FFBD001707047034A12689208B2FB33
:102D7000F1F1491EC1607047C800001000B5164946
:102D80000346B0F1402F09D0144818180BD0B0F505
:102D9000082F17D0B0F50C2F0AD118E051F8C40F46
:102DA00040F0020003E051F8C40F40F00400086056
:102DB000002018670220586009491846FFF7D4FF21
:102DC000184600BD51F8C40F40F48000EFE751F8F9
:102DD000C40F40F40000EAE700C00F400080FFBFCE
:102DE00040420F0080687047012141607047000039
:102DF00070B50A4C0A4D206858B92846FFF7BEFF47
:102E000008492846FFF7B0FF2846FFF7EDFF0121EC
:102E100021602846BDE87040FFF7E4BFE0000010E5
:102E20000040094040420F0010B500F005FB0022B1
:102E3000044B00F003FA00F0BFF9BDE8104000F0C9
:102E400008B8000080842E414FF47A714843AFF3F4
:102E5000008070B50446FFF7CBFF0546FFF7C8FFBB
:102E6000401BA042FAD370BD10B500290AD00878E3
:102E7000002807D005487844FDF7D0FD002801D090
:102E8000002010BD0248784410BD0000F61000007C
:102E9000EE10000021F00042A2F16052B2F5801F56
:102EA00001F0004328BFD2F17F6C0BD95FEA001C10
:102EB00043EAC20242EB507018BF704728BF20F0AF
:102EC00001007047B2F5801FBCBF184670474FEA3B
:102ED000410C1CF5001F02D2084600F050BD70B531
:102EE00000F056FA00000089FFF7F6BF4FF00040EF
:102EF000A0F580007047000002494FF0000000F08C
:102F0000B8BD00BF0000F87F2DE9C04130B4DFF844
:102F1000A0C23CEA111418BF3CEA131400F0EC8084
:102F200081EA03051CEA111444EAD57418BF1CEAAF
:102F3000131500F0C780A4EB05044FF0004545EAE7
:102F4000C12145EAC32341EA505143EA525304F1F7
:102F50007F74994204F500344FEAC0204FEAC22240
:102F600008BF904200F09C804FEA13650FF24016B4
:102F7000765D4FEA134506FB05F7C7F1807706FB40
:102F800007F74FEAD737A7FB03687642C8F58038C2
:102F9000A7FB06CE38BFA8F1010807FB08E64FF0F3
:102FA000000EA6FB028CE6FB03CEDCF1000CCEF19A
:102FB000004E38BFAEF1010EA6FB0C584FF00007D3
:102FC0004FF00005E6FB0E87A1FB08C6A0FB07CE6D
:102FD00016EB0E0645F10005E1FB076515F1E04E25
:102FE0007EBFA4F580345FEA46066D4116F1800786
:102FF00045F100054FEA17274FEA066647EA0567DD
:10300000A6F1DE46B6F1805F4FEA15251FD9384696
:1030100024F0010C05EBC471BCF1FE6F01EB0C1147
:1030200002D8F0BCBDE8008124425CBF01F5801EDF
:103030009EEAC47F02D4F0BCBDE80081244238D4AB
:10304000F0BCA1F1C041BDE8004100F0EFB94FEA8A
:10305000D22242EA43524FEAD323A7FB02864FEA29
:10306000D02040EA415007FB03661EEA0E0F4FEAEC
:10307000D12105FB026658BFA6EB0056B6EB005601
:103080004FEA520E4EEAC37E18EB0E0E56EB530E6D
:10309000BDD518EB02085E417F1C55F10005B6E76F
:1030A0004FF480154FF000074FF000064FF0000876
:1030B000ADE7F0BC4FF0000001F1C04101F000416C
:1030C000BDE8008111EA0C1F0CEA131500D00CE0DA
:1030D00013EA0C1F00F025804FF00000F0BC81EADD
:1030E000030101F00041BDE80081F0BCBDE80041F2
:1030F00081EA030100F09AB9F0BCBDE8004170B567
:1031000000F046F9097EFC3E00F007B881EA0301B1
:103110004FF0000001F00041704781EA030100F028
:1031200085B9F0BCBDE800414FF00000214970476F
:10313000FFFDFBF9F7F5F4F2F0EEEDEBE9E8E6E47C
:10314000E3E1E0DEDDDBDAD8D7D5D4D3D1D0CFCD03
:10315000CCCBCAC8C7C6C5C4C2C1C0BFBEBDBCBB3C
:10316000BAB9B8B7B6B5B4B3B2B1B0AFAEADACAB37
:10317000AAA9A8A8A7A6A5A4A3A3A2A1A09F9F9E11
:103180009D9C9C9B9A9999989797969595949393C3
:10319000929191908F8F8E8E8D8C8C8B8B8A89895A
:1031A00088888787868585848483838282818180DD
:1031B0000000FF070000F87F4FEA41034FEA535336
:1031C000A3F58063D3F11E03C8BFD3F1210C0CDD3E
:1031D0004FF0004242EAC12242EA505232FA03FC66
:1031E0008CEAE17CACEBE1707047102BC4BF00208F
:1031F000704703F5787CBCF1FF3F04D06FF00042CC
:1032000082EA2100704770B500F0C2F8499224802C
:1032100000207047F2E7B0FA80F310FA03F10AD009
:10322000C3F11D0303F580634FEA41504FEA035297
:1032300002EBD12170474FF000007047DFF848C122
:1032400070B51CEA111E1EBF1CEA13159EEA0C0F76
:1032500095EA0C0F00F06F8081EA030423EA4C1317
:103260004EEAD47E21EA4C1141F4801143F48013DC
:10327000AE44A1FB024CA0FB0365AEF17F7E361984
:1032800055EB0C05A1FB034C4CF10003A0FB021C09
:1032900016EB0C06654153F10003094218BF46F0D6
:1032A000010613F4007F0BD14FEA03314FEA0530DA
:1032B000340341EA155140EA16506FF003020AE068
:1032C0004FEAC3214FEAC520F40241EA555140EAD2
:1032D00056506FF0020202EB2E4201EB025585EAD6
:1032E000CE710AD05FEA440C18BF24F0004450F1BC
:1032F000000041F1000120EAD47040F2FE7C6245FA
:1033000000D270BDA84214BF4FF080444FF040443B
:10331000002E08BF0024BEF1806FA8BFA1F1C041FC
:10332000BDE8704080F282804FF0000001F1C041A2
:1033300001F0004170479EEA0C0F0CEA131518BF0C
:1033400095EA0C0F06D04FF0000081EA030E0EF054
:10335000004170BD00F01CF88900013E00F007B884
:1033600000F009B84FEA430C5FEA5C5C08D081EAE0
:10337000030100F05BB84FEA410C5FEA5C5CF6D1F8
:103380004FF00000014970470000FF070000F87F80
:103390000EF1020E2EF0030E5EF8046B364205D4D9
:1033A000012A43EB030515F5001F12D8012841EB54
:1033B000010C1CF5001F0CD80ED14FEAD17C15F57D
:1033C000001F0CEB4C0C0CF1020C08BF4CEBD37C37
:1033D00004E04FF0080C01E04FEAD37C0CEB4C0505
:1033E00026FA05F606F00706B6F1040C06D20EEB37
:1033F000860CBDE870404CF0010C6047DFE80CF033
:10340000090B02024FF000414FF00000A1F500212E
:1034100070BD19461046012851EB010418BFD4F5C0
:10342000001484BF002001F0004170BD0808A0F521
:1034300000114FEA3101704743004FEAD30C4FEAC5
:103440003C0C43401FBF40070CF1605113F0FE4F8E
:1034500070471CF0006F03D100200CF00041704752
:103460000CF0004343EA507010B540EACC0000F085
:1034700040FA00BF000000924FEA0001FFF7D6BFFC
:103480004FF000414FF00000A1F50021704700000F
:1034900090EA010F48BF81F0004100F17C82421A9E
:1034A0003CBF801A89184FEAD0524FF07F4C1CEA7B
:1034B000410FA2EBD15318BF9CEA026F00F03B8092
:1034C0004FF0004C4CEA00204CEA012121FA03FCA9
:1034D00010EB0C0C1ED202F1FF325FEA1C2040EB15
:1034E000C25038BF70471CF07F0F4FEA400C18BF26
:1034F000BCF17F4F38BF7047C3F12003994008BF2C
:1035000020F00100BCF17F4F38BF7047A0F1C040F0
:1035100000F035BA4FEA3C00000A40EBC25028BF29
:103520001CF0FF0F4FEA400CE6D018BFBCF17F4FF4
:1035300038BF7047EAE79CEA026F05D010EA5C0FDB
:1035400008BF00F00040704710B500F0D2F900BF8E
:1035500064FBBE3E401058BFC0F14040491058BF08
:10356000C1F140418142EFF3008070474FF47F0C7E
:103570001CEAD0121EBF1CEAD11392EA0C0F93EA88
:103580000C0F00F0858090EA010F48BF42F4807272
:1035900040F4000C41F400002CF07F4120F07F400B
:1035A00000B58142A2EB03020FF2081CACEB504EB7
:1035B000C0F100009EF800E04FEA4E0E00FB0EFC4A
:1035C00038BF49004FEA2C1C02F5FA020CFB0EF33F
:1035D0004FEACE1E4FEA112C4FEAC1210EEB635E7B
:1035E00042EB22420EFB0CFC4FEA1C5300FB031182
:1035F0004FEA112C4FEA01310EFB0CFC4FEADC4C78
:1036000000FB0C11C14228BF09184CEB03335DF8D5
:1036100004EB10EB410143EBC250B2F57C0F38BF15
:10362000704729D512F0F00F1CBF00F1C04000F028
:1036300000407047008182838485868788898B8CCF
:103640008D8E8F919293959697999A9C9D9FA0A20B
:10365000A3A5A7A8AAACAEB0B2B3B5B7B9BCBEC05B
:10366000C2C5C7C9CCCED1D4D7D9DCDFE2E6E9ECFC
:10367000F0F3F7FAFE0000004FEA400C0CF1807CFA
:10368000BCF17E4F28BF7047B0F1C04000F077B961
:1036900090EA010F0CEAD11348BF42F480726245F0
:1036A00038BF634507D213F47F0F16D080EA0100BC
:1036B00000F00040704710B500F01BF9097EFC3E99
:1036C00000F005B880EA010000F00040704780EA91
:1036D000010000F0004000F052B912F47F0F04BF67
:1036E0000248704780EA010000F049B90000C07F3D
:1036F000C10DD1F19E0206DB4FEA002343F00043E7
:1037000023FA02F07047004207D54FEA4001B1F1B9
:10371000FE4F02D24FF00000704710B500F0E9F8FC
:1037200049922480002070476FEA20007047000013
:1037300010F0004148BF4042B0FA80F310FA03F2A3
:10374000C3F19D030BD051EAC35101EB1220530684
:1037500038BF704700F1010008BF20F0010070473A
:10376000B0FA80F310FA03F2C3F19D030AD0D90531
:1037700001EB1220530638BF704700F1010008BF6B
:1037800020F001007047000050EA010C00F11380A6
:103790001CF5000F58BFBCF5000F01D488427047DC
:1037A00007D710F5000F58BF11F5000F15D4884248
:1037B0007047894270471CF5000F04D5BCF5000F17
:1037C000F7D5814270474FF0807C1CEB400F38BF2B
:1037D0001CEB410F01D28142704710B500F089F80F
:1037E000922449004FF000504FF08051FFF7B2BED5
:1037F0004FF47F0C1CEAD0121EBF1CEAD11392EAD0
:103800000C0F93EA0C0F00F0478090EA010F48BFBD
:1038100042F480724FF0004C4CEA00204CEA012147
:1038200002EB0302A0FB0113A2F50002002918BF5E
:1038300043F001035B0028BF4FEA330342EB22420F
:103840005FEA132C4CEBC2502EBFBCEB436FB2F5BA
:103850007C0F70474FEA036CBCF1004F08BF20F0AB
:103860000100B2F57C0F38BF70470BD582F0FF0224
:1038700012F5803FC8BF704700F1C040D8BF00F0CC
:103880000040704700F5000C5FEA4C0C48BF7047E1
:10389000B0F1C04000F073B890EA010F0CEAD11308
:1038A00048BF42F48072624538BF634504D280EA63
:1038B000010000F00040704710B500F01AF800BF9A
:1038C0008900013E00F007B800F009B85FEA410C3A
:1038D0005FEA1C6C08D080EA010000F050B85FEA93
:1038E000400C5FEA1C6CF6D14FF00040A0F5800060
:1038F00070470EF1020E2EF0030E5EF8044B2442C8
:1039000004D44FEA4102B2F17F4F11D84FEA40038D
:10391000B3F17F4F0CD80ED14FEAD07CB2F17F4F7C
:103920000CEB4C0C0CF1020C08BF4CEBD17C04E00E
:103930004FF0080C01E04FEAD17C0CEB4C0324FA69
:1039400003F404F00704B4F1040C06D20EEB840C6B
:10395000BDE810404CF0010C6047DFE80CF00708B0
:1039600002024FF00040A0F5800010BD0846420062
:1039700018BFD2F1807288BF00F0004010BDFF2157
:1039800041EAD050C005704790EA010F48BF81F06E
:1039900000413FF584AD421A04D882F00042A0EB0A
:1039A000020011444FEAD0524FF07F4C1CEA410F05
:1039B000A2EBD15318BF9CEA026F4AD04FF0004CE3
:1039C0004CEA00204CEA012121FA03FCB0EB0C0C7C
:1039D0000FD412F0FE0F36D05FEA4C001DD5001256
:1039E00040EBC25038BF70471CF03F0F18BF704704
:1039F0000BE0A2F101025FEA1C2040EBC25038BF8D
:103A000070471CF07F0F18BF7047C3F12003994027
:103A100014BF401E20F00100704780084FEA1223B7
:103A200008BF7047B0FA80FCA2EB0C02CCF1280C66
:103A300060FA0CF093EA122F04BF00EBC2507047FB
:103A40004FEAC3707047130A5FEADC1008BF704783
:103A5000F6E79CEA026F04D010EA5C0F08BF002072
:103A6000704710B5FFF745FF40DFF63E81F000409C
:103A700070470CF00F03092B08BF082000F0598095
:103A80000A2B0BD0082B18BF704708BF1CF0400F43
:103A90000AD04FF000004FF0000170471CF0400FBB
:103AA00018BF4FF0004070471CF0100F08D020F0F6
:103AB000704300F07F4242EAD3014FEA43707047FF
:103AC00000F0604021F07F4242EA000201F07F40B6
:103AD00040EA727070474FF0FF0C4CF4E06C1CEA47
:103AE00011531CBF9CEA030C9445C2BFDA4201EBA0
:103AF00002517047002B0DD0BCF1000F0FD0002AEF
:103B000001F00041A4BF41F0E04141F07F614FF07E
:103B10000000704701F000414FF00000704750EA8C
:103B200001334FF09B0C18BF4CF0806C7FF4E4A97C
:103B300070471CF4801F11D01CF4E02F03D06FEAF3
:103B4000CC31490070474FF04050EFF3008222F033
:103B5000704242EA000282F3008870474FF0000092
:103B600070470000383F0000F91F00003E3F000092
:103B70005D20000000000000000000002F7374644E
:103B8000696E002F7374646F7574002F73746465AD
:103B90007272000032C00920010000000200000023
:103BA00034C00920020000000200000035C00920D6
:103BB000030000000200000037C0092004000000DC
:103BC0000200000038C009200500000002000000CB
:103BD0003AC00920060000000200000040C0092091
:103BE000010000000100000041C0092002000000A7
:103BF0000100000042C00920030000000100000095
:103C000043C00920040000000100000044C0092056
:103C1000050000000100000045C00920060000006A
:103C20000100000079C0092002000000030000002C
:103C30007AC009200300000003000000FFFFFFFF1F
:103C4000FFFFFFFF0000000000C0092000C0094086
:103C50000200000002C0092000C000400100000076
:103C60000AC0092000800940010000000FC009209F
:103C7000000001400100000019C0092000C00940F7
:103C80000300000040C009200000014002000000C5
:103C900048C0092000800940020000009CC00920A3
:103CA00000C0094003000000FFFFFFFFFFFFFFFF10
:103CB0000000000001C0092000C00940020000000F
:103CC00003C0092000C00040010000000BC0092013
:103CD000008009400100000010C0092000000140E0
:103CE000010000001AC0092000C0094003000000C4
:103CF00041C00920000001400200000049C0092025
:103D000000800940020000009DC0092000C0094059
:103D100003000000FFFFFFFFFFFFFFFF00000000A8
:103D2000C03E0000AC3D0000A43D0000C03E0000CD
:103D3000CE3D0000203D0000C03E0000F33D0000ED
:103D4000203D0000C03E0000193E0000643D000020
:103D5000B03E00002D3E0000C03E0000413E00008D
:103D6000643D0000B03E0000593E0000C03E00002F
:103D7000663E0000643D0000D03E0000753E00003D
:103D80000000000002000000643D0000020000008E
:103D9000503D000002100000C03E0000863E0000C2
:103DA000643D0000B03E0000983E00004E31305FA0
:103DB0005F637878616269763131375F5F636C6128
:103DC00073735F747970655F696E666F45004E311D
:103DD000305F5F637878616269763132305F5F733C
:103DE000695F636C6173735F747970655F696E6638
:103DF0006F45004E31305F5F63787861626976317C
:103E000032315F5F766D695F636C6173735F747984
:103E100070655F696E666F45004E346D6265643132
:103E2000304469676974616C4F757445004E346D38
:103E3000626564313046696C6548616E646C6545E5
:103E4000004E346D626564313446696C6553797334
:103E500074656D4C696B6545004E346D6265643404
:103E60004261736545004E346D6265643650776D0E
:103E70004F757445004E346D6265643846696C65F3
:103E80004C696B6545004E346D6265643944696701
:103E90006974616C496E4500537439747970655F5B
:103EA000696E666F0000000000000000203D000009
:103EB0000000000000000000000000002C3D000099
:103EC000000000000000000000000000383D00007D
:103ED000000000000000000000000000443D000061
:103EE000BB1F0000AD1F000000000000000000002C
:103EF00000000000643D0000C9200000B92000005F
:103F00000000000000000000000000006C3D000008
:103F10003321000025210000000000000000000007
:103F200000000000983D00008B2100007D21000072
:103F30000000000000000000636C656172006F62A9
:103F40006A6563747300426173650000804000001D
:103F5000C80000104C00000000010000CC40000030
:103F600014010010140300001C01000010010000E7
:103F700043000000F8FFFFFF004040404040404049
:103F8000404041414141414040404040404040402C
:103F900040404040404040404005020202020202D0
:103FA000020202020202020202202020202020201F
:103FB0002020200202020202020290909090909033
:103FC00010101010101010101010101010101010F1
:103FD0001010101002020202020288888888888865
:103FE0000808080808080808080808080808080851
:103FF0000808080802020202400000000000000059
:1040000000000000000000000000000000000000B0
:1040100000000000000000000000000000000000A0
:104020000000000000000000000000000000000090
:104030000000000000000000000000000000000080
:104040000000000000000000000000000000000070
:104050000000000000000000000000000000000060
:104060000000000000000000000000000000000050
:10407000000000000000000000000000A1C3FFFFDE
:1040800000D8B80500000000D4000010463F000032
:10409000643B0000000000000000000018800140A8
:1040A0001C8001402080014024800140408001406C
:1040B00044800140488001400000000000000000F2
:0C40C000000000000000000000000000F4
:04000005000000C532
:00000001FF
