:020000040000FA
:100000000080001011020000190200001B02000015
:100010001D0200001F02000021020000000000007D
:1000200000000000000000000000000023020000AB
:100030002502000000000000270200002902000045
:100040002B0200002B0200002B0200002B020000FC
:100050002B0200002B0200002B0200002B020000EC
:100060002B0200002B0200002B0200002B020000DC
:100070002B0200002B0200002B0200002B020000CC
:100080002B0200002B0200002B0200002B020000BC
:100090002B0200002B0200002B0200002B020000AC
:1000A0002B0200002B0200002B0200002B0200009C
:1000B0002B0200002B0200002B0200002B0200008C
:1000C0002B02000000F002F800F099F80AA090E876
:1000D000000C82448344AAF10107DA4501D100F003
:1000E0008EF8AFF2090EBAE80F0013F0010F18BF37
:1000F000FB1A43F0010318474859000068590000F3
:10010000103A24BF78C878C1FAD8520724BF30C843
:1001100030C144BF04680C60704700000023002415
:1001200000250026103A28BF78C1FBD8520728BF07
:1001300030C148BF0B6070476E2900F0BF86702940
:1001400000F06B82662905F03E81652905F03B8150
:10015000672905F038816129AFF3008003681B0A25
:1001600028BF41F08001692900F0DC81642900F09A
:10017000D981752900F0D6816F2901F0C5817829D0
:1001800000F03782E92901F05F81E42901F05C8108
:10019000F52901F05981EF2901F0C281F82900F019
:1001A00036820368DB0928BF41F08001632901F032
:1001B000CE80732901F0D380E32901F0DB86F32997
:1001C00001F0E086002070471FB59DE8030001F0B4
:1001D00003FE00F07FFD04000020002104F0F6F88B
:1001E000401C60600020002104F006F9E06001F08E
:1001F00005FD00F057FD1FBD002003F0AEFA03F02F
:1002000061FB1146FFF7E0FF00F07AF803F08AFC8B
:100210000648804706480047FEE7FEE7FEE7FEE7A0
:10022000FEE7FEE7FEE7FEE7FEE7FEE7A52E00009D
:10023000C500000010B500F04DFD001D10BD00BF51
:100240008D4100000B460146184601F08DB80FB4F1
:10025000014610B504AA039801F086F810BC5DF8B9
:1002600014FB00000FB41CB5084B06AA7B4469467A
:100270000090059801F049F804460020694601F015
:1002800057F820461CBC5DF814FB0000C1100000AC
:1002900070B50C460546012A05D02878800600D5A1
:1002A000EA69002302E0012305E05B1C934202D2CD
:1002B000E05C0028F9D1A869E618C01AA861286A8C
:1002C00018442862284600F067FD04E0D5E90121C2
:1002D00014F8010B9047B442F8D3284600F072FDA1
:1002E00070BD11B14FF4807201E04FF480624FF4A1
:1002F000007301F0E7BB02F011F97047FFFFFFFF49
:1003000033A1424803F04DF948E000BF3F49486936
:1003100000F031FB3D49486903F00EFCC4B2752C76
:100320001CD13B48006804F031FD05460022394BE2
:1003300004F0D2FA12D23648006804F027FD0546D0
:10034000354A364B04F0A0F8074604F06BF8304904
:10035000086008460168324803F097F8642C1CD105
:100360002B48006804F012FD05460022134604F0F5
:10037000EDFB12D22648006804F008FD0546264A27
:10038000264B04F019FC074604F04CF8204908609D
:1003900008460168224803F078F800BFB5E710B5B9
:1003A0000023204A511E194803F080F804461E4AD3
:1003B0001E4903F0A7F900221A492F31184803F00B
:1003C0004BF80446184A1A4903F09CF910BD000086
:1003D00050726573732027752720746F20747572AF
:1003E0006E204C454431206272696768746E657393
:1003F000732075702C2027642720746F2074757209
:100400006E20697420646F776E0A00001801001076
:10041000C80000100000E03F7B14AE47E17A843F43
:100420007001001003C00920000000004F350000DB
:100430008734000053EA020C00F069802DE9F04B8C
:100440004FF00006002B1FBFB3FA83F503FA05F443
:1004500024FA05F65E4012BF1643B2FA82F502FA9C
:1004600005F4C5F120051EBF22FA05FC44EA0C0480
:10047000203556EA044C4FEA144418BF641C4FF070
:1004800000084FF00009904271EB030C39D30029AA
:1004900019BFB1FA81F701FA07F6B0FA80F700FA4E
:1004A00007F6C7F120071EBF20FA07FC46EA0C0634
:1004B0002037B6FBF4FCA7EB0507103F07F01F0B36
:1004C000CBF120060CFA0BFB2CFA06F644BFB34620
:1004D0000026202FA4BF5E464FF0000B5BEA060CFF
:1004E00008BF4FF0010B19EB0B09ABFB027C48EB8B
:1004F0000608C01B06FB02CC0BFB03CC71EB0C0106
:10050000C1E70B46024641464846BDE8F08B13B5AD
:100510004FF000004FF00001AFF30080BDE81C4039
:10052000704700002DE9F041064600241068752947
:10053000314616A510D000F056FC002802DA4042E1
:1005400013A507E031688A0701D512A502E0490723
:1005500004D511A5012401E000F04EFC00210A227F
:1005600006F1240709E0B0FBF2FCB0FBF2F302FB5A
:100570001C00303078541846491C0028F3D123461B
:100580002A463046BDE8F04100F03FBC00000000C4
:100590002D0000002B00000020000000F0B40D46EC
:1005A0000188090502D5214C7C4402E01F4C7C44A3
:1005B0000E34002100F1240608E002F00F071209B2
:1005C000E75D42EA03721B097754491C52EA0307AC
:1005D000F3D102780023120704D5702D06D009B19B
:1005E000022311342246F0BC00F00FBC012310346A
:1005F000F8E770B504460D462146106800F0FCFB94
:10060000024629462046BDE870400023C6E7D21DB9
:1006100022F00703D3E90023C0E70368126843F020
:10062000200303600823C3610023B7E7CC50000018
:100630002DE9F05F894604464FF0000ADFF874B1F7
:10064000FB44C0F820A02046E1688847002874D009
:10065000252806D0D4E901219047206A401C206259
:10066000F1E700265F462046E168884720280546D6
:1006700007DB312D05D2781910F8200C08B106439C
:10068000F1E7B00701D526F00406C4F81CA0002746
:10069000C4F818A02A2D09D0284603F01BF938B356
:1006A00004EB8708303DC8F8185019E059F8041BCE
:1006B000204604EB87029161E1688847012F0546D7
:1006C00018D1E069002820DA26F020061DE0D8F8CD
:1006D000180000EB800005EB40003038C8F8180027
:1006E0002046E1688847054603F0F4F80028EED17B
:1006F000012F0AD02E2D08D12046E16888477F1CA3
:100700000546022F46F02006C4DBA069002803DA64
:10071000404246F00106A061F00701D026F0100625
:100720006C2D0BD0682D09D04C2D39D06A2D35D0C9
:10073000742D35D07A2D33D016E038E0E1682F469D
:1007400020468847B842054609D16C2F26D04FF481
:100750008060E168064320468847054604E06C2F28
:100760001AD04FF4807006430DB3A5F1410019284B
:1007700002D8203546F400664A46294620462660BF
:100780004E46FFF7D9FC80B101280BD0F61D26F0AC
:10079000070000F1080956E74020E4E78020D8E789
:1007A0000020D6E706F104094DE7284652E7206A03
:1007B000BDE8F09F5C5000000FB400B58DB010A9EB
:1007C000099000910B904FF0FF300A9000200C90A0
:1007D000064878440690064878446A4607900F9980
:1007E00009A800F0BBFE0DB05DF814FBA70D0000DA
:1007F000BF0D00002DE9FF5F1D464FF0FF3B914606
:100800004FF000085F46D5E90146A96901987F1CB1
:100810008847296A824688470028F6D1BAF1FF3F07
:100820000CD0002E24F4C06419DD600614D5BAF192
:100830002B0F09D0BAF12D0F0ED103E0584604B0AA
:10084000BDE8F09F44F48064A96901987F1C884743
:10085000761E8246002E02DDBAF1300F03D0B9F1C8
:10086000000F26D032E0A969761E01987F1C44F45F
:1008700000748847002E824605DDBAF1780F06D055
:10088000BAF1580F03D0B9F1000F10D01EE0B9F142
:10089000000F02D0B9F1100F18D1A969761E019886
:1008A0007F1C24F4007488478246102002E0082050
:1008B00000E00A20814609E0A96908FB0908761EC4
:1008C00001987F1C44F4007488478246002E05DDA1
:1008D0004946504600F02EFE0028EDDAE9690198FD
:1008E0008847A00502D46FF00100A8E7E00725D1F2
:1008F000600613D5600502D5C8F1000000E040464F
:1009000029680A1D2A600968220501D5087015E0CA
:10091000220701D5088011E008600FE02868011D5A
:1009200029600068210502D580F8008006E02107D3
:1009300002D5A0F8008001E0C0F8008038467EE7CC
:1009400070B50446C068810713D0800601D5A56A3A
:1009500004E0A169606808442169451A204601F055
:1009600009F9002206462946204601F02FF83046B4
:1009700070BD002070BD70B510B1BDE87040DFE7FC
:100980000025074C6E1E07E02046FFF7D9FF00B197
:100990003546206D20F00104002CF5D1284670BDAD
:1009A000C00100102DE9F0410C46074616461046DE
:1009B00000F06EF82078611C61280AD0722802D0FD
:1009C00077283CD102E00125002405E0022504241B
:1009D00002E0082448F2020511F8010B2B2806D08A
:1009E000622809D011F8010C74280AD00BE045F0F8
:1009F000030544F00204EFE745F0040544F0010468
:100A0000EAE744F010043846214602F0A3FF411CF7
:100A100015D00021316171604FF40071F560F16112
:100A20007061200704D530460222002100F0CEFF7D
:100A3000306D40F0010030653046BDE8F0810020A7
:100A4000FBE72DE9F0410D460646104C206DC1072D
:100A500004D0410804D020F00104F7E722460EE05C
:100A6000542000F043F907000ED0206D47F001013B
:100A7000084354212065384601F06AF93A46294670
:100A80003046BDE8F0418DE70020D6E7C0010010F8
:100A90002DE9F04704464FF000094FF0FF37C568D5
:100AA000D4E90486A80707D0204601F063F8304651
:100AB00002F018FF002802DA3846BDE8F087280562
:100AC00002D5404600F041F94C21204601F040F9A2
:100AD000206D20F0010020654846EEE7002001F07F
:100AE00029F9AFF30080012000F0EEF810B5431CA7
:100AF00002E010F8011B71B18107FAD14FF0013209
:100B000002C88C1A8C4314EAC211F9D0C01A0A0622
:100B100003D0C01E10BDC01A10BD0A0401D0801E33
:100B200010BD0902FCD0401E10BD40EA010370B5A3
:100B30009B072ED14FF00136042A2AD308C810C9CA
:100B40009D1B9D43121F15EAC61517D0D8B2E1B2FE
:100B5000401A50EA056110D198B2A1B2401A50EA89
:100B600005410AD123F07F4024F07F41401A50EA2A
:100B7000052102D1180EA0EB146070BDA342DBD09A
:100B800018BA21BA884201D9012070BD4FF0FF3058
:100B900070BD0AB9002070BD10F8013B11F8014B7F
:100BA00063B1A3420AD1521E08D010F8013B11F8DC
:100BB000014B1BB1A34201D1521EEDD1181B70BDD8
:100BC00010B5203AC0F00B80B1E81850203AA0E8E8
:100BD0001850B1E81850A0E81850BFF4F5AF5FEA1C
:100BE000027C24BFB1E81850A0E8185044BF18C9CF
:100BF00018C0BDE810405FEA827C24BF51F8043B76
:100C000040F8043B08BF7047D20728BF31F8023BC9
:100C100048BF11F8012B28BF20F8023B48BF00F85D
:100C2000012B70474FF0013C50F8042B51F8043B66
:100C30009A4221D1A2EB0C03934313EACC1317D1B0
:100C400050F8042B51F8043B9A4215D1A2EB0C0347
:100C5000934313EACC130BD150F8042B51F8043B07
:100C60009A4209D1A2EB0C03934313EACC13DBD0D5
:100C70004FF00000704700BFD01A01BAB1FA81F1FD
:100C800001F0180122FA01F0CB40C1F12001DBB2E2
:100C9000C0B2C01A2CFA01F3D11A914311EAC31160
:100CA000E6D1704770B5064C7C44064D7D4403E0A8
:100CB000206820448047241DAC42F9D170BD00005B
:100CC000E04E0000E04E000001491820ABBEFEE7F8
:100CD0002600020000487047BC0200100048704720
:100CE000D002001000487047D402001070B50646CC
:100CF00001F056F8056806F10B0020F00704B44235
:100D00009CBF002070BD2B466A68BAB11068A04233
:100D100010D304F1080188423CBF5068586007D3E3
:100D20005168101941601168091B01605860146016
:100D3000101D70BD13465268002AE7D1214628468F
:100D400001F036F80028DED170BD70B50446051FED
:100D500001F026F80068002C14BF446870BD002C18
:100D600018BFAC423CBF20466468F8D301680A183B
:100D7000AA4218BF456003D12A68054611440160A4
:100D800028684119A1421CBF6C6070BD6168696030
:100D900021680844286070BD70B504468569006804
:100DA000C10601D5302600E02026C00707D070BD5F
:100DB000D4E9012130469047206A401C20626D1E14
:100DC000F6D570BD70B5044685690078C00707D1B7
:100DD00070BDD4E9012120209047206A401C206288
:100DE0006D1EF6D570BD09684A0501D540B2704741
:100DF000C905FCD500B2704709684A0501D5C0B2E3
:100E00007047C905FCD580B270472DE9F0470D4603
:100E100099469246044600F124080168880604D5E4
:100E2000E06921F01001216000E00120A84201DD0D
:100E3000471B00E00027A1697A1902EB0900081A94
:100E4000A0612078C00602D42046FFF7A5FF002647
:100E500008E0D4E901211AF806009047206A401CF6
:100E6000761C20624E45F4DB2078C0060AD5204669
:100E7000FFF792FF06E0D4E9012130209047206A75
:100E8000401C2062381EA7F10107F4DC07E0D4E91A
:100E9000012118F805009047206A401C2062281E96
:100EA000A5F10105F3DC2046FFF78CFF2078000652
:100EB00002D50220BDE8F0870120FBE71168026837
:100EC000006A530501D508700AE0D30501D50880F2
:100ED00006E0130603D5C217C1E9000200E008606E
:100EE0000120704770472DE9FF4F0C461E464FF01A
:100EF000FF378BB0D2E90001DDF860800A908A46A6
:100F0000C1F30A5505B93D46002108464FF00000DF
:100F1000BAF1000F00F4400005DA00EB80004FF456
:100F2000400101EA50004FEA9059B9F1010F00DD8C
:100F3000B9460A9850EA4A000ED044F61050A5F27D
:100F4000FF3545432F14B8F1000F1ED07542291EFE
:100F50001EDDC9F100021CE0B8F1010F4FF00000E6
:100F600001D0302103E0F24305E02154401CB0429F
:100F7000FBDB30460022002121540B99C1F8088088
:100F8000C1E900200FB0BDE8F08FBD1B6D1CDEE78E
:100F90004A4600DA694206A801F0B2F906AB93E8C6
:100FA000070003AB83E8070050460A9901F0BCFB39
:100FB0008DE80700A0F500501F3800900398002D21
:100FC00009DD42F21F014A46084403A9039068461E
:100FD00001F01BFE08E0A0F500504A461F3803A9A7
:100FE0000390684601F025FE8DE807000004000C20
:100FF00003D04FF0FF30410800E01046B8F1000F79
:1010000003D00022009215461EE0751E05D400F0A4
:1010100019FF303262556D1EF9D5B34601220843DF
:1010200002D000227F1C04E02078302801D1002269
:101030007F1E002A099786D01DE0112D07DA00F0E7
:1010400001FF303262556D1C50EA0102F5D10843B0
:1010500002D00098C8B10EE00021681E05E0235CB4
:10106000625C63542254401E491C8142F7DBAB464C
:10107000A81B401E0990002004F80B000B98099A49
:10108000C0F80880C0E9002B7CE711264FF000086B
:1010900059E72DE9F04F88460446D21D22F007019A
:1010A00091B0D1E90001CDE90A0102F017FB024637
:1010B0000B98C00F01D02D2007E02068810701D5D3
:1010C0002B2002E0202101EAC000032A099001D070
:1010D000072A05DB03464146204600F001FF0BE1ED
:1010E0002078800601D5E06900E00620B8F1650FA0
:1010F000814606D0B8F1660F18D0B8F1670F70D1ED
:1011000031E00020B9F1110F009001DB112301E063
:1011100009F101030AAA01A90CA8FFF7E4FEDDE921
:101120000C70002609F10105834647E001204B467B
:1011300000904FF000470AAA01A90CA8FFF7D3FEC0
:10114000DDE90DB00C995D46002610B909F10100EA
:101150000D18B9EB050003D4C0F1FF3609F1010504
:10116000A5EB09002BE0B9F1010F01DA4FF00109FD
:101170000020B9F1110F0090484601DD112300E075
:1011800003460AAA01A90CA8FFF7ADFEDDE90C7021
:101190004D4600268346207800070AD4AB4500DA86
:1011A0005D4601A8012D04DD411911F8011C30290B
:1011B00007D04F4502DA17F1040F04DA0120824606
:1011C0000FE06D1EEEE7002F02DCED1B3E4403E056
:1011D000781CA84200DD7D1CB81B00F1010A4FF00D
:1011E00000472078000703D4AA4501DB4FF0FF3AFF
:1011F0000021B7F1004F0DF143088DF8431024D0C2
:1012000002202B23002F01DA7F422D230A21021E08
:10121000A0F1010000DC5FB197FBF1FC97FBF1F25C
:1012200001FB1C7C17460CF1300C08F801CDEEE7F1
:10123000A8F1010003702188090501D5452100E0CE
:101240006521A0F1010800F8011C09980FA9A1EB84
:101250000807FF1D00B10120411901EBEA70A169E7
:101260003844081A401EA0612078C00602D42046E7
:10127000FFF792FD099828B1D4E901219047206A2F
:10128000401C20622078C00622D52046FFF784FD4E
:101290001EE0002E04DBB34502DD01A8805D00E006
:1012A0003020D4E901219047206A401C2062761C3E
:1012B000AAF101005FEA000A0AD1FFF70BFDC0683E
:1012C0000168405CD4E901219047206A401C2062FB
:1012D000281EA5F10105DCDC07E0D4E9012118F89E
:1012E000010B9047206A401C2062381EA7F10107BD
:1012F000F3DC2046FFF766FD032011B043E6000053
:1013000001694A1C02610878704700B58FB0CDE9C9
:1013100001310021059105497944CDE903101146B9
:101320006846FFF785F90FB000BD0000E5FFFFFF3D
:101330000A6802F8010B0A60704710B5436913B1DF
:10134000AFF3008001E0FEF7A3FF012010BD12788B
:1013500000F124010A7000224A700122EDE71168B1
:101360004FF0FF32E9E70000074B70B50D467B44B4
:10137000FFF7CBFF0446284601F030F810B14FF0DC
:10138000FF3070BD204670BDDF2700002DE9FF5FF4
:1013900015468A460446DFF8AC80F8440027D8E9B1
:1013A00000103E46CDE9001010E03AF816106A46EB
:1013B00002A801F055F8411C07D02178890603D511
:1013C000E269391891420DD80744761C20788006CE
:1013D00002D5E069B84205DDAE42E6DB3AF8160018
:1013E0000028E2D1A069C01BA0612046FFF7D4FC11
:1013F000D8E90010CDE90010002017E03AF81810E5
:101400006A4602A801F02CF8B0F1FF3F81460BD0EC
:1014100000250DF1080B05E0D4E901211BF80500BA
:1014200090476D1C4D45F7D308F10100B04280464E
:10143000E4DB206A384420622046FFF7C3FCBDE8A5
:10144000FF9F0000164300002DE9F0418046D21DA9
:1014500022F007020025D2E90002F52915A614D0D2
:10146000011E72F1000106DA0023D0EB030063EBEA
:10147000020211A608E0D8F800108B0701D50FA6CC
:1014800002E0490701D50EA601251146002408F106
:10149000240704E000F0D6FC30323A55641C50EAD0
:1014A0000102F7D12B46324621464046BDE8F041C5
:1014B000FFF7ABBC000000002D0000002B00000077
:1014C0002000000030B4002100F1240408E002F004
:1014D0000705D208303542EA4372DB086554491CDF
:1014E00052EA0305F3D10468002310A2250708D5AA
:1014F00004F020040C4304D0C46901230CA2641E30
:10150000C46130BCFFF781BC10B5044621461068A9
:10151000FFF772FC02462046BDE810400023D1E7E9
:10152000D21D22F00701D1E90023CBE70000000023
:10153000300000003A2800D2303820F02002412A42
:1015400001D3A2F13700884201D34FF0FF3070473A
:10155000026811441378016018467047D16005494C
:1015600079445161044979441162002111611146A5
:1015700000F00CBDEDFFFFFF65090000426842B1BD
:10158000016811F8013B23B1521EC0E90012184650
:1015900070470121C160881E704742685AB1C36814
:1015A000016843B983688B4205D0491E521CC0E9CB
:1015B0000012002070474FF0FF30704770B50D46A5
:1015C00001461446D36850692A4602F051FA0028B1
:1015D00007DA411C07D0E16820F0004041F4804167
:1015E000E160281A70BD204600F090FA4FF0FF30FD
:1015F00070BDC1680022026021F4805141F04001B9
:1016000011F4C06FC16001D0826070470269416807
:10161000891AC269891A816070472DE9F04704462A
:10162000C06840F48000E060010312D520F400207F
:10163000E060810606D4E26A61688A4200D80A4600
:10164000511A216040F40010E06094F82500BDE8D4
:10165000F08720F40010E060800602D5204600F0FC
:10166000ACFAE06842F281014FF0FF3901400129F4
:1016700003D0204600F04AFAB6E02168002600298F
:101680000ADAC94340F480502160C4E9026060680E
:10169000411C61600078DAE744F2400108420CD056
:1016A00020F4A04040F040002660E06021696068BE
:1016B000401AE169401AA06096E0216991B9C0031F
:1016C00010D4E069FFF712FB2061B0B1E06840F48C
:1016D000006010F4407FE06002D140F48070E06070
:1016E00020696060E068D4F814A0C1061AD5C00370
:1016F0000ED5204600F03EFA14E004F124002061EB
:101700000120E061E06820F4407040F48060E6E78A
:1017100021696068401AA1690144504602F0C6F987
:101720000028A6DBE068C0032AD56168E06A884229
:1017300000D808462169451AE069471B1BD020469E
:10174000D4F8188000F016FA08EB05015046C4F8EA
:10175000188002F0ABF900288BDBE06840F4003021
:10176000E060000202D5A0692844A061E169206917
:10177000C91B45180DE0204600F0FCF9E769F5E7C4
:1017800025696168D4E90607491BE562084465607C
:10179000A061E06820F0100010F4C06FE06002D09B
:1017A000204600F041FEE06840F48050C4E9026049
:1017B000000205D52069E06260606FF0010046E735
:1017C000224639462846FFF7F9FE411C0CD029185D
:1017D000E16258B1401E2060681C6060E06840F41F
:1017E0000030E060287832E7484630E76560204600
:1017F000FFF7FFFEF8E72DE9F04705460C46C868FD
:1018000020F4201040F48000C860800602D508460D
:1018100000F0D3F9E06841F282014FF0FF39014056
:10182000022903D0204600F071F9B5E000F4204110
:10183000B1F5004F0FD1C00306D56168E06A884258
:1018400000D80846606006E02069E0626060606978
:1018500002F05CF8A061A0680022EEB200280DDA68
:10186000E1688B050AD4C043A06041F49030226047
:10187000E0606068411C61600670A5E0E068904629
:10188000226040F40050E060206968BB606902F0AB
:101890004FF8012704F12405A0B1A08910F4407F7E
:1018A00008D0E069FFF722FA206118B1E06840F43F
:1018B000006016E0E7612561E06820F4407040F4C4
:1018C00080600EE0E069FFF711FA00282061F1D096
:1018D000E06840F4006010F4407FE06002D140F422
:1018E0008070E06020696060E06825696FF0010A3F
:1018F000C1051FD56168E06A884200D80846411BCF
:1019000004D02246284600F00BF9F0BBE068010243
:1019100003D5E562C4E9015854E0691CE1626160E5
:10192000E16940F48030491EC4E9021030462E704F
:10193000BDE8F087010202D500F480320AE0606859
:10194000411C61600670E0680A2E40F48030E0605F
:1019500006D00022E16A6068814203D90B4602E0AA
:101960000122F7E70346A7895B1B7F0503D4E769DC
:101970009F4200DDE2B1814200D80146E5620F1AC4
:10198000C4E90158002B09DD00E005E022461946B4
:10199000284600F0C5F808B14846C9E747B1A06934
:1019A000E5626560C01BA061E06840F01000E06087
:1019B000E068000208D56168A069E562491B084437
:1019C0006560A0615046B3E73046B1E72DE9F041CC
:1019D000044616460D464769007B80072ED03846E0
:1019E00001F0A6FF50BB3EB3012E02D0022E25D13E
:1019F00004E0204600F0F6FC05441DE0384601F006
:101A000085FFE168002841F01001E16005DA204619
:101A100000F07CF80120BDE8F081C9030BD56268B5
:101A2000E16A914200D81146A26911442269891ADB
:101A3000814200DD08460544002D01DA0220EAE774
:101A4000E16A6068E268814206D29103E06203D5F0
:101A500022F4003141F01002A6690027AE4213DCE7
:101A6000E16A814201D90B4600E0034603EB060C14
:101A70002369ACEB030CAC4506DD814201D98C46F1
:101A800000E084469C4505D1A760276042F0200015
:101A9000A5620DE0AD1BE669AE1B8142A66000D9D0
:101AA0000846C01A281A20605819606022F02000E9
:101AB00003490840E060002084F84870ABE700006C
:101AC000BFCFD7FF70B5C468A50713D0650211D486
:101AD000B2F5807F09D0B2F5007F06D0B2F5806FF5
:101AE00008D1012300F1240106E05D1E6FF07F465E
:101AF000B54201D3012070BD0161C361416024F48E
:101B000070611143C160002070BD0000C16821F404
:101B1000001141F08001C1600021816001607047C7
:101B20002DE9F047814614460E464FF0FF38324803
:101B3000D5685769054209D03846A16901F0B6FF5A
:101B4000002811DB2C48C0430540E5602B46324697
:101B50004946384601F0C0FFA16920F00042B21AA0
:101B600011440028A16103D02046FFF7CFFF404673
:101B7000BDE8F08770B504460569C06A61688842AF
:101B800000D80846E16821F42011E160C90312D5AC
:101B9000A84208D02246411B2846FFF7C1FF10B1DA
:101BA0004FF0FF3070BD0020E562C4E90150E068ED
:101BB00020F48030E060002070BD10B50446C0689D
:101BC00020F02000E060A16AA06988420DD0204684
:101BD000FFF7D0FFE06820F4405040F01000E060D4
:101BE000A06AA0612069E062606044F24001E068A0
:101BF0008843E06010BD00001000020010B54248AC
:101C0000542100F0A5F84148542100F0A1F84048C3
:101C1000542100F09DF83F493B483C4A3F4B086047
:101C20003D490A603A491960531C0365481C106518
:101C3000012008653B48344A39A17844FEF7B2FEDA
:101C400020B9384878440A3800F048FC37482F4A11
:101C500035A17844FEF7A6FE20B9344878440A3806
:101C600000F03CFC32482A4A2FA17844FEF79AFE45
:101C700020B92F4878440A3800F030FC402322482D
:101C8000DC0000212246FFF71DFF20B125487844E3
:101C9000543800F023FC1D48224640230021FFF762
:101CA00011FF20B121487844543800F017FC18483F
:101CB000224610230021FFF705FF002806D01C480C
:101CC0007844BDE81040563800F008BC10BD1048FC
:101CD00070B5006D20F001040B48FEF7D9FE0B48EB
:101CE000FEF7D6FE0A48FEF7D3FE09E0206D20F08D
:101CF00001052046FEF7CCFE2046FFF726F82C46CD
:101D0000002CF3D170BD0000C001001014020010BF
:101D100068020010080100100C01001010010010F2
:101D2000720000009638000077000000853800003F
:101D30007538000010B500F0B9FBBDE8104000F0A8
:101D4000AFBB10B500F0D2FBBDE8104000F0A8BB5F
:101D50004FF0000200B5134694469646203922BF44
:101D6000A0E80C50A0E80C50B1F12001BFF4F7AF8F
:101D7000090728BFA0E80C5048BF0CC05DF804EB71
:101D8000890028BF40F8042B08BF704748BF20F8DF
:101D9000022B11F0804F18BF00F8012B7047000094
:101DA00000487047D802001070477047704770476E
:101DB00038B504460A460020694600F04AFC00286F
:101DC00008BF38BD02460099204600F0E1FB012023
:101DD00038BD012000F02ABCF8B500F02FFC054604
:101DE00000200C46102000BF0646A819A0420DD9BD
:101DF00032466946002000F02CFC070008BF00F0C6
:101E000015FC0098A04218BF0546C419FFF7C8FF8B
:101E100005600746F01D20F007004619284600F02F
:101E20000AF8B44208BFF8BDA21B31463868BDE8C5
:101E3000F84000F0ADBB00210160C0E9011070471F
:101E40001020704730B5B0F10A024FEA900E71F1E0
:101E500000034EEA817EB0EB0E0061EB91014FEA88
:101E6000101E4EEA017E10EB0E0041EB11114FEAFD
:101E7000102E4EEA016E10EB0E0041EB11214FEADD
:101E8000104E4EEA014E10EB0E0041EB114140188E
:101E900041F100014FEAD00040EA41704FEAD10120
:101EA00010EB80054FEA810444EA907444EB01048E
:101EB0006D1944EB0404521BA3414FF0000348BFCB
:101EC0000A3200D530BD401C41F1000130BD10B5D3
:101ED0000446FEF7AFF90068005D00F0010010BD98
:101EE0002DE9F0411F46044603260168072A01F444
:101EF000006004DB08B116A505E016A503E008B1F3
:101F000015A500E015A521F010002060A069C01EF5
:101F1000A0610FB1401EA0612046FEF73DFF4FB10A
:101F2000D4E9012138469047206A401C2062C01C39
:101F3000206206E0206AFAE7D4E9012115F8010BD6
:101F40009047761EF8D22046FEF73CFFBDE8F081B0
:101F50004E414E006E616E00494E4600696E66004D
:101F600010B5436913B1AFF3008001E0FFF70EFA3B
:101F7000012010BD128800F1240182840022C28455
:101F80000122EDE711684FF0FF32E9E72DE9F34F49
:101F90004FF0000A0C4656468DB001200C9001F11E
:101FA0000C000B9062690B980121904705002DD021
:101FB000252D2CD0216A8847C0B162690B98012178
:101FC0009047216A88470028F7D16269411E0B9823
:101FD000904700E0761CA1690D988847216A8847E0
:101FE0000028F7D1E1690D988847DBE7A1690D98D2
:101FF0008847A842074601D1761CD3E7E1690D98CE
:1020000088477F1C02D1BAF1000F6FD06BE1626983
:102010000B9800273D46394690472A2804D162692B
:102020000B98012190470125DFF8D08262690B9857
:1020300001219047A0F130010A290AD24745E5DC89
:1020400007EB870100EB4107303FDFD445F0100577
:10205000ECE7E90601D46FF000476C280AD04C2861
:1020600014D0682815D06A280DD074281CD07A287E
:102070001AD01DE062690B98012190476C2802D0AC
:1020800045F0040514E045F002050DE045F020059B
:102090000AE062690B9801219047682802D045F058
:1020A000080505E045F4006562690B980121904739
:1020B000C4E9015765283DD019DC58287AD00CDCDA
:1020C000452837D004DC252826D041289ED131E090
:1020D00046282FD0472899D12CE05B2877D061285B
:1020E00028D063287CD0642823D15AE0F6E06F28FA
:1020F00048D008DC66281DD067281BD0692821D06D
:102100006E2816D127E0702845D0732868D075282E
:1021100047D078280DD14DE0A1690D988847252832
:1021200005463FF469AFE1690D9888476D1C3FF49F
:102130006AAFD8E00D9923466A466FF00100AFF30D
:102140000080C5E045F0400023464FF0000260608B
:10215000A80736D43EE0E8077FF447AF2068011DAA
:1021600021600068290501D506701BE7290701D504
:10217000068017E7A90703D5F117C0E9006111E749
:1021800006600FE745F0400023464FF0080260600C
:10219000A80716D41EE040F60E0125EA0100606093
:1021A00016E045F0400023464FF00A026060A807A1
:1021B00007D40FE045F040006060A80708D523462B
:1021C00010220D996FF00100AFF3008080E007E06E
:1021D000102223460D996FF00100FEF70BFB77E00C
:1021E0004FF0000963284F46C8464B46CB4602D005
:1021F0005B2806D038E0E80601D40120A060012762
:1022000032E06269D4F80CB00B98012190475E2847
:1022100007D14FF0010949466269D4F80CB00B9818
:102220009047216939B900210A4603AB43F82120C0
:10223000491C0829FADBD8B3216949B308F1010820
:1022400062690B98012190475D28F4D1B9F1000F24
:1022500009D0002003A951F82020D24341F82020C2
:10226000401C0828F7DB03AB2069002820794FEADF
:1022700040701ED05B462246CDF80080CDE9019724
:102280000D9900286FF0010020DAAFF300801FE005
:10229000C11703AA00EBD1614B1121F01F0102EB22
:1022A0008302411A13680120884003431360C7E783
:1022B00019E00D99224600286FF00100009702DA1C
:1022C000AFF3008004E0AFF3008001E0AFF30080E3
:1022D00000280ADA401C06D10C9820B14FF0FF30DC
:1022E0000FB0BDE8F08F5046FAE7E90701D10AF1D7
:1022F000010A064400200C9054E60000CCCCCC0C23
:102300002DE9F047814616468AB0334878440DC817
:102310008DE80D0030487844801C03AC0DC884E87B
:102320000D0041F69B300844372190FBF1F290FB01
:10233000F1F5A5F1800501FB12041B3C02D56442B6
:10234000012000E00020DFF890A080460027FA443A
:10235000AAF1BE0A0DE0E00709D03246684607EB55
:1023600047010AEB810100F064FC8DE8070064106E
:102370007F1C002CEFD1184F7F44AC3F18E0E807DA
:1023800014D007EB04100DF1180A90E80E008AE84B
:102390000E00C068F04201D198190890324606A993
:1023A00003A800F046FC03AB83E807006D10641C33
:1023B000002DE4D132466946B8F1000F03A802D0DF
:1023C00000F023FC01E000F034FCC9E90001C9F889
:1023D00008200AB0BDE8F08728340000007B00F038
:1023E0008000704710B50146C268900703D0900680
:1023F00007D5886A0AE0FEF775FC01210160881E96
:1024000010BD8B69486818440B69C01A91F84830B0
:102410001BB191F84910401A10BD1103FCD50028DA
:10242000FADD401E10BD000070B5054640F20226E0
:102430000A4C0FE094F85000C00708D0AC4206D018
:10244000E06836EA000002D12046FEF779FA206DF6
:1024500020F00104002CEDD170BD0000C00100107F
:1024600070B516460C460546FDF7E4FE036893F882
:102470000101012806D0FF2C0FD8185D68B101209A
:102480002C7070BDD3F807013246214603F20713C2
:1024900003442846BDE8704018474FF0FF3070BD38
:1024A000002801D0FEF710BC7047000010B50021D5
:1024B00002A000F087F8012010BD000053494741F9
:1024C0004252543A2041626E6F726D616C207465A5
:1024D000726D696E6174696F6E00000010B500F076
:1024E0008BF8BDE81040FFF7DBBF000010B50021FE
:1024F00002A000F067F8012010BD000053494750CA
:1025000056464E3A20507572652076697274756130
:102510006C20666E2063616C6C65640010B500F021
:102520000EF8016919B100220261884701E0806854
:102530008047FEF7D3FA000010B5FEF7CFFA70B56A
:1025400000F022F804680546A4B92020FEF7CEFB6F
:10255000040011D0094900202C60C4E90001084999
:10256000A1602073206160610649A06109B100F09B
:102570008DF8E061204670BDFEF7B0FA0000000063
:10258000392500000000000000487047DC02001000
:10259000034640688C46002818BF88423CBF03466B
:1025A0004068F8D318681844884207D00CF103003B
:1025B00020F00700001D411A521A0146081D0A604A
:1025C000FEF7C3BB70B505460C460A2000E06D1C43
:1025D00000F07AF835B128780028F8D102E0641CC0
:1025E00000F072F814B120780028F8D1BDE87040EE
:1025F0000A2000F069B8000010B5014602A0FFF7FC
:10260000E1FF012010BD0000534947525452454498
:102610003A2052656469726563743A2063616E277B
:1026200074206F70656E3A200000000010B500F055
:1026300053F8BDE81040FFF733BF0000124B694666
:1026400000F580528A421A6001D81146704719601D
:10265000704730B50C4D6B46A3F580532C6822446F
:102660009A420FD89B1A02F5805003EBD37302EB0A
:102670006303984200D91846C01D20F007020C6081
:10268000101B2A6030BD00001401001010B5882016
:10269000FEF72CFB002801D00021017010BD80291D
:1026A00002D808B1017809B100207047012100F873
:1026B000081B704718B100F10802914201D00020B8
:1026C000704700210170704708B569468DF8000019
:1026D0000320ABBE08BD000010B5012805D00021C5
:1026E00003A0FFF76FFF012010BD09A1F8E700006C
:1026F00053494752544D454D3A204F7574206F66EB
:102700002068656170206D656D6F72790000000052
:102710003A2048656170206D656D6F727920636F36
:1027200072727570746564005FEA400C08BF91F0C6
:10273000000F4FEA8C234FEAC12243EA51514FEA7E
:102740001C5018BF00F5F0404FEA300018BF41F0B0
:1027500000415FEA6C5C00F02980BCF1FF3F08BFDC
:1027600040F080407047130C06BF12044FF0100C6D
:102770004FF0000C130E04BF12020CF1080C130FE3
:1027800004BF12010CF1040C930F04BF92000CF172
:10279000020CD30F04BF52000CF1010C11464FF094
:1027A0000002A0F11F00A0EB0C00704711F0004FD9
:1027B00008BF704731F000413FF4D5AF0B0C06BFA6
:1027C00009044FF0100C4FF0000C0B0E04BF09026F
:1027D0000CF1080C0B0F04BF09010CF1040C8B0F5A
:1027E00004BF89000CF1020CCB0F04BF49000CF1AF
:1027F000010CCCF12003A0EB0C0022FA03F302FA47
:102800000CF241EA030100F10100704720F07F4C17
:1028100080EA030023F07F47ACEB070303F57C530A
:1028200000F0004003F1FF032DE980494FEA154B0A
:1028300009B44FEA144325EA0B4E24EA03480FF289
:10284000042606EB132749083E785FEA320203FBB1
:102850000667C7F5000707FB06F64FEA54374FEA4D
:10286000D64606F1020607FB066CCCF1005C4FEA87
:102870001C472CEA074C07FB06F40CFB06F504EB9F
:1028800015464FEA961634BF00204FF000404FEA3D
:10289000D13706FB07FC4FEA1C4C0CFB0BF7D21B95
:1028A00003FB0CF761EB07010CFB0EF7B0EB0740E5
:1028B00072EB17420CFB08F734BFA2EB0742B2EBF6
:1028C000074261EB17414FEA0C444FEA910706FBC0
:1028D00007FC4FEA1C4C0CFB0BF7B0EBC74072EB4C
:1028E000573203FB0CF734BFA2EBC742B2EBC7422F
:1028F00061EB57310CFB0EF7B0EBC70072EB577270
:102900000CFB08F734BFA2EBC702B2EBC70261EBC6
:102910005771039F4FEA816141EA921104EBCC04A5
:102920004FEAD1374FEA826206FB07FC42EA901277
:102930004FEA80604FEA1C4C0CFB0BF7D21B03FBE9
:102940000CF761EB07010CFB0EF7B0EB074072EBE5
:1029500017420CFB08F734BFA2EB0742B2EB074269
:1029600061EB17414FEA8C554FEA910704EB9C2429
:1029700006FB07FC4FEA1C4C0CFB0BF7B0EBC74007
:1029800072EB573203FB0CF734BFA2EBC742B2EB3A
:10299000C74261EB57310CFB0EF7B0EBC70072EB8F
:1029A00057720CFB08F734BFA2EBC702B2EBC702A9
:1029B00061EB577115EB4C254FEA816141EA9211A9
:1029C0004FEA82624FEAD13742EA901206FB07FCD7
:1029D00044F100044FEA80604FEA1C4C0CFB0BF7FB
:1029E000D21B03FB0CF761EB07010CFB0EF7B0EBFE
:1029F000074072EB17420CFB08F734BFA2EB07420B
:102A0000B2EB074261EB174115EB1C154FEA813120
:102A100041EA92414FEA823242EA90424FEA8030E4
:102A20004FEA0C7644F1000448EA03434EEA0B48AF
:102A30004FF0000EB2EB080C71EB030724BF6246A7
:102A400039464EEB0E0E4FF0000B00185241494133
:102A50004BEB0B0BB2EB080C71EB03077BF1000B9C
:102A600024BF624639464EEB0E0E4FF0000B0018A5
:102A7000524149414BEB0B0BB2EB080C71EB0307D6
:102A80007BF1000B24BF624639464EEB0E0E51EA35
:102A9000020718BF46F0010616EB0E7655F100024C
:102AA00054F1000103D5BDE88901BDE80088BDE807
:102AB0008901BDE80048B619524141EB0101A3F17B
:102AC0000103704780807F7E7D7C7B7A7978777682
:102AD00076757473727171706F6E6E6D6C6C6B6AFB
:102AE0006A69686867666665646463636261616099
:102AF000605F5F5E5E5D5D5C5C5B5B5A5A59595816
:102B0000585757565655555554545353525252517F
:102B1000515050504F4F4F4E4E4D4D4D4C4C4C4BD5
:102B20004B4B4A4A4A49494948484847474747461C
:102B30004646454545444444444343434342424258
:102B400042414141002B26D4770021D01CB54FEAE9
:102B5000370703B44FF010004FF010014FF00000A2
:102B60000FBCBDE810400BF1010BBBF1010F08BF1A
:102B70005FEA170722BF12F1010211F101014FF0C4
:102B8000004143F1000300F0004043EA00007047B9
:102B9000F9D35708DAE746EA064613F1400F4FEA41
:102BA00016461FDD13F1200FDFBF16430A46002132
:102BB00020335B42C8D0C3F1200746EA064602FA3A
:102BC00007F74FEA164646EA0706C3F1200722FA3E
:102BD00003F201FA07F721FA03F14FF0000342EA8A
:102BE0000702B1E746EA020646EA06464FEA1646FB
:102BF00046EA0106BCBF46EA0646360C4FF0000323
:102C00004FF000024FF000019EE72DE9C0489346C7
:102C100030B491E8380007C831EA400C48BF34EAC4
:102C2000430C03D5FFF7F2FDFFF78CFFF0BCBDE8C6
:102C300000882DE9C048934630B491E8380007C8B1
:102C400010F0804F08BF13F0804F03D100F005F85B
:102C5000FFF778FFF0BCBDE8008820F07F4780EAEE
:102C6000030023F07F4C07EB0C03A3F57C5300F02B
:102C70000040A3F1FE0392F0000F00F0B38095F046
:102C8000000F00F077802DE901494FEA11404FEA2B
:102C9000144621EA004800FB06FC24EA064708FB2C
:102CA00006F607FB08F800FB07F718EB06484CEBA5
:102CB000164C4FEA124B18EB07484FEA15464CEBFF
:102CC000174022EA0B4E0BFB06FC25EA06470EFBDB
:102CD00006F607FB0EFE0BFB07F71EEB064E4CEB52
:102CE000164C4FF000061EEB074E4CEB174B18EB43
:102CF0000B0840F1000018EB0E0B58EB000840F1F8
:102D000000008F1A4FF000013CBFC943661B14BF7F
:102D1000B5EB040C00213CBFC943F61B4FEA174436
:102D20004EEA8E0E27EA04454FEA1C4704FB076271
:102D30002CEA074C05FB07F70CFB05F604FB0CFC23
:102D400016EB074642EB174216EB0C4642EB1C42D1
:102D50001BEB060658EB0202414146EA9E0601D5EE
:102D6000BDE80189B619524141EB0101A3F101030C
:102D7000BDE801894FEA14454FEA114724EA0546A8
:102D800021EA074C05FB07F406FB07F70CFB06F1ED
:102D900005FB0CFC11EB074144EB17444FEA1247CB
:102DA00011EB0C4144EB1C4422EA074C05FB07F2F3
:102DB00006FB07F70CFB06F605FB0CFC16EB0746BB
:102DC00042EB174216EB0C4642EB1C456A1854F1D5
:102DD000000148BF7047B619524141EB0101A3F110
:102DE0000103704795F0000F37D04FEA11424FEAC8
:102DF000144721EA024624EA074C02FB07F106FBCE
:102E000007F70CFB06F402FB0CFC14EB074441EB48
:102E100017414FEA154714EB0C4441EB1C4125EADE
:102E2000074C02FB07F506FB07F70CFB06F602FB57
:102E30000CFC16EB074645EB174516EB0C4645EB2D
:102E40001C42121951F1000148BF7047B619524196
:102E500041EB0101A3F1010370474FEA14454FEA2A
:102E6000114724EA054621EA074C05FB07F106FB5A
:102E700007F70CFB06F24FF0000605FB0CFC12EB0B
:102E8000074241EB174112EB0C4251EB1C4148BF8A
:102E90007047921841EB0101A3F101037047002133
:102EA00000F051BA1B482021C0F8A011D0F8A011A1
:102EB0004906FBD500F180000221C0F884104FF0D4
:102EC0000101C0F88C104FF00B02426001604FF01E
:102ED000AA02C2604FF05503C360A0F18000D0F891
:102EE00088104901FBD5032140F8801FC260C360F0
:102EF0000521C0F888100021C0F82811C0F82C1155
:102F0000054A4264C0F8481143F23A0140F8801C77
:102F10007047000000C00F40DE8728040B4810B542
:102F20000068002811D10A49481E01F061F9094CD6
:102F3000012300220821204601F0DEF82046BDE8EA
:102F400010404FF4165101F005B810BDE400001018
:102F500003C0092000C000402DE9F0410546144699
:102F60000E46506900F084FB012718B1E760256226
:102F7000BDE8F081206A0028FAD0E069A842F7D1C4
:102F80003046A16900F074FB0028F1D0606A18B1E6
:102F9000002027616062EBE7206A6062E8E710B515
:102FA0001446506900F064FB002802D00020206223
:102FB000E06010BD2DE9F0411468984616460D46B4
:102FC0000746A047284600F079FB214900F050FB56
:102FD00030B1002332463846A968FFF7EBFF2AE0FC
:102FE000284600F06BFB1B4900F042FB18B305F1CB
:102FF00010041AE0F06810B12079800714D544B1AC
:10300000207910F0010F04D02146384600F084F8F2
:1030100002E0606807EB2020234632462168FFF774
:10302000C9FF3069002811D10834E96805EBC100F7
:103030001030A042DED87468002C07D043463246D8
:1030400029463846A446BDE8F0416047BDE8F08116
:103050005C570000685700002DE9FF4D82B08246A2
:1030600014468B464FF0000810460E9D00F026FBDC
:10307000274900F0FDFA78B1DA4504D1A068059936
:1030800000F0F6FA40BB0095A26859465046059BF1
:10309000FFF7E2FF804636E0204600F00FFB1D49B7
:1030A00000F0E6FA78B32646103426E06068C107DF
:1030B00005D02146504600F02FF8074601E00AEB04
:1030C00020275F450BD12068059900F0D1FA30B177
:1030D0002079A046800716D50120286013E02079CA
:1030E000800709D50095226859463846059BFFF7A9
:1030F000B3FF8046286830B90834F06806EBC0009A
:103100001030A042D2D806B04046BDE8F08D000095
:103110005C570000685700000268496802EB2121F3
:1031200009680844704700002DE9FF4D8CB0144633
:10313000DDE91C688B4600271046199D00F0BEFA99
:10314000704900F095FA98B3A0680F9900F090FAD2
:10315000C8B1DBF8000010B10C99884204D1307876
:10316000022801D0286828B1012028600020CBF86F
:103170000000C3E0012030701A98C8F800000C98D5
:10318000CBF8000012E0DDE91A1202A880E846013F
:103190001898CDE90005A26859460F9B0C98FFF7D7
:1031A000C3FF002803D02868002800D10127A5E02C
:1031B000FFE7204600F082FA534900F059FA002850
:1031C00069D018980B9440F3400008901898103478
:1031D00040F30000099089E0606800F001010A9165
:1031E0000C9969B10A9969B121460C98FFF794FFCF
:1031F00082461A9850B12079800707D5012006E051
:103200000020F5E70C9901EB2020F1E70020009069
:1032100020680F9900F02CFA20B3DBF8000008B109
:10322000504507D16068C10702D03178012901D02B
:10323000296829B1012028600020CBF8000029E08E
:10324000C00701D0022000E0012030700098C8F8CB
:103250000000CBF800A03DE0089800E00998401C71
:103260004CD142E0009900208DF81C0007AACDE95E
:103270000428069006AB1898CDE90213CDE90005A5
:103280002268594650460F9BFFF74EFF00282868DA
:1032900002D020B1002731E00028FBD125E00698BC
:1032A00020B92079C00701D020680690307858B145
:1032B0009DF81C10022901D1022805D01B98006836
:1032C00080B1069988420DD19DF81C0030701B9882
:1032D00006990160D8F80000012730B10A9800284B
:1032E000BCD0B9E701202860D4E708340B98C16846
:1032F00000EBC1001030A0423FF66EAF10B0384670
:10330000BDE8F08D5C5700006857000070B50546B9
:103310000068012200210369284698470446401CA2
:103320000ED02868022200210369284698470646E5
:10333000286800222146036928469847304670BD18
:103340004FF0FF3070BD0160002141607047000008
:1033500070B5094805680BE02C466D68207B38B1D4
:10336000A06800F0A3F91CB1206841682046884796
:10337000002DF1D170BD0000D000001070B50646E0
:103380000B480D4604680EE0A06858B12A46314645
:10339000FDF7CBFB30B9A068FDF7A8FBA84201D12F
:1033A000204670BD6468002CEED1002070BD000086
:1033B000D000001070B50D0012D00A482026046815
:1033C0000CE0207B48B108A12846A268FCF74AFF20
:1033D0000544606808B105F8016B6468002CF0D101
:1033E00070BD0000D000001025730000064A026086
:1033F00000220273816021B104490A6842600860BA
:10340000704742607047000008590000D00000106B
:1034100010B500F005F8BDE8104000F04BB9000011
:10342000094901608168002905D0084A1168814274
:1034300003D141681160704711464A688242FBD14E
:1034400042684A607047000008590000D000001030
:10345000407B00F051BD000070B50D461146FFF7EE
:10346000C5FF044603482060284600F091FC6073C5
:10347000204670BD2059000010B5FFF7D1FFBDE810
:10348000104000F017B9FFF7CBBF10B50446FFF7A7
:10349000DFFF204610BD806900F0A4BE10B50C46C9
:1034A000806900F01DFF204610BD000070B50D467C
:1034B00088B01646194600F083F81E4901603C3179
:1034C000016102231C221C491C3000F034F9A0F1D8
:1034D0001C043146284600F08BFEA061002168469E
:1034E000FFF731FF01461C2204F11C00FDF768FBC9
:1034F00000216846FFF727FF01461C2204F138002F
:10350000FDF75EFB0D49A06940180AD0B0F5804F69
:1035100006D0B0F50C2F08D0B0F5102F02D106E080
:103520000120606508B0204670BD0220F9E7032045
:10353000F7E70000385900009F2E00000040FFBF51
:1035400010B500F063F8BDE8104000F0B3B800F02B
:103550005DB82DE9F04107460E460C468D1807E090
:103560003868016B38468847411C03D004F8010BCA
:10357000AC42F5D1A01BBDE8F0812DE9F041074632
:103580000E460C468D1807E0386814F8011BC26A15
:1035900038469047401C01D0AC42F5D1A01BBDE895
:1035A000F0810FB470B5054606AC4069FDF7E3F94C
:1035B000224668690599FCF745FE70BC5DF814FB6E
:1035C0003EB5FFF713FF0446094820603C302061F8
:1035D000224608A16846FCF745FE07A16846FDF7AC
:1035E00030FA00216061FCF77CFE20463EBD000001
:1035F000985900003A257000772B000010B500F0B4
:1036000005F8BDE8104000F055B8000010B50446BC
:10361000054820603C3020616069FDF739FA20469A
:10362000BDE8104000F00AB89859000010B500F04D
:1036300005F8BDE8104000F03DB8000030B40A497C
:103640000160183101610021084A00F110040B46A5
:1036500052F82150A54201D142F82130491C1029CD
:10366000F6D330BCFFF7DCBEF85900008001001033
:1036700070B50C46A04207D0406800BF0546204602
:10368000406800BF854201D1012070BD002070BD9F
:10369000002070471038FFF75CBF00207047002003
:1036A00070471038FFF769BF0020704710B500F071
:1036B00001F810BD10B5FDF748FB10BD10B530B1D5
:1036C000006820B14038C46B2CB1204610BDFCF717
:1036D00012FE002010BDFCF70EFEF6E7490050EA8E
:1036E000C12018BF04204A0D18BF40F0010040F26D
:1036F000FF72B2EB515F08BF40F00200012808BF23
:10370000052070472DE9F041074690460E460025FA
:103710001020FDF7EBFA04000BD0C4F80C80C4E9CC
:103720000176FDF7DBFA0168216004602846BDE8F8
:10373000F0810125FAE72DE9F0411C4617460E00FD
:10374000804607D0054602E02846B0473D44204663
:10375000641EF9D24046BDE8F0812DE9F0410646ED
:10376000FDF7BCFA804613E026B1E068B04201D014
:1037700025460EE020682860D4E90101D8F80070E1
:1037800088472046FDF7E1FAD8F80000B84200D09B
:1037900045462C68002CE7D1BDE8F0810020FEF7FB
:1037A000D0BA00002DE9F04D00248AB00126CDE901
:1037B00008649B4617468A46254600B10068CAF849
:1037C000005080461046FFF779FF1149FFF750FF80
:1037D00008B1B86800E0032008A907AACDE90421D0
:1037E0008DF81C5006AB069509A9CDE90263CDE919
:1037F00000015B463A4651464046FFF795FC10B142
:10380000089800B101240AB02046BDE8F08D000000
:10381000685700002DE9F0450E46016815008BB091
:1038200051F8082D824602EB0A040A944F684FF0C3
:10383000000818D0214800902148CDF80C80CDF820
:10384000108001900DF1140CCDF80880CDF8208087
:10385000CDF824808CE86004394600236A4620466F
:10386000FFF7A8FB099C24BB01200290B7420BD0B4
:1038700002A8009033463A465146CDF808800A988F
:10388000FFF7EAFB0298A0B129463846FFF7F0FEA1
:1038900008B10A9C0DE0CDF80C80CDF800802B46D5
:1038A0003A4603A90AA8CDF80480FFF77BFF00B1D0
:1038B000039C0BB02046BDE8F0850000592F0000A6
:1038C0009F2F000002486A4620F007007047000062
:1038D000E702001030380A2801D20120704700208A
:1038E00070470000032801DA0020704706490022D3
:1038F00001EB800151F80C0D0A6010B101684968B4
:1039000008474FF0FF30704780010010032801DAAC
:1039100000207047054901EB800050F80C0C10B1F5
:103920000168896908474FF0FF3070478001001037
:10393000032801DA01207047054901EB800050F8A7
:103940000C0C10B10168C96808474FF0FF30704790
:10395000800100102DE9F843884605463E49FDF7F1
:1039600061F9B0B13C492846C91DFDF75BF9A8B122
:10397000394928460F31FDF755F998B1374F0024E2
:103980004FF0FF3957F8240080B1641C102CF9D394
:1039900060E0FFF7C3FA0020BDE8F883FFF7BEFA46
:1039A0000120F9E7FFF7BAFA0220F5E7102C51D20F
:1039B00028783A2802D02F2809D04BE06A4628A15F
:1039C0002846FCF7F9FE0098B8B3103035E06A1CC1
:1039D0001546002115F8010B2F2803D008B1491C0A
:1039E000F8E700251046FFF7C9FC90B35FEA88713D
:1039F00001D502260AE05FEA487101D5012605E0FB
:103A00005FEA087101D5092600E0002618F00C0FC6
:103A100001D046F400765FEA487101D546F480662D
:103A20004B4675B10F4A1049FFF7F4FE88B10168A3
:103A300032460B692946984758B147F82400E01CE4
:103A4000AAE70A4A0849FFF7E5FE0028F4D010303B
:103A5000F2E7FFE748469FE7D454000080010010DA
:103A60003A2570007C57000088570000B4570000CA
:103A700070B50D461446032805DA0A4800F0B2FB7B
:103A80002870012009E0084901EB800050F80C0C77
:103A900028B101688B6829469847201A70BD4FF0FD
:103AA000FF3070BD00C000408001001010B5032839
:103AB0000BDB084A02EB800050F80C0C38B10268AE
:103AC000136900229847401C01D0002010BD4FF020
:103AD000FF3010BD800100102DE9F0410E46154663
:103AE00003280BDA00240D4F04E0315D384600F066
:103AF000F7FB641CAC42F8D3284609E0084901EB07
:103B0000800050F80C0C30B101680B6831469847C2
:103B1000281ABDE8F0814FF0FF30FAE700C00040FE
:103B200080010010044600F07BF808B100F00CFAA8
:103B30000CB100F03BF8FEE70168002901DCFDF75D
:103B40006CBD491E016041684A1C4260087870479C
:103B50008A68002A01DCFDF74EBE521E8A604A6860
:103B6000C0B2531C4B601070704770B50446401CC7
:103B700010D004F01F000126864024F01F0500210C
:103B8000204600F055F80221204600F06BF8286826
:103B90003043286070BD20F01F0200F01F03012099
:103BA000984009B190617047D06170471B4C204626
:103BB000FFF7DBFFA51C2846FFF7D7FFE61C3046C2
:103BC000FFF7D3FF671D3846FFF7CFFF01212046DF
:103BD000FFF7E1FF00212846FFF7DDFF0021304617
:103BE000FFF7D9FF01213846FFF7D5FF962000F0F7
:103BF000DDFB00212046FFF7CEFF01212846FFF71D
:103C0000CAFF01213046FFF7C6FF00213846FFF703
:103C1000C2FF962000F0CAFBD8E7000032C009209E
:103C200002480068C0F3000070470000F0ED00E0BB
:103C300010B5421C10D0094A104403090007C20EF7
:103C4000074800EB8300036803249440A343036008
:103C5000036891400B43036010BD00000040F6DF95
:103C600000C00240F0B5421C21D0114A114F10444F
:103C7000420907EB820200F01F05966EC1F3800334
:103C800003FA05F4A6439666956E25439566002BC8
:103C90000DD103090007C20E07EB8300036C032458
:103CA0009440A3430364036C91400B430364F0BD51
:103CB0000040F6DF00C0024088420BD0421C08D012
:103CC000491C07D004A10948FCF7C1FA0120FFF7FD
:103CD00029FF08467047000070696E6D6170206DA5
:103CE00069732D6D61746368000000006802001044
:103CF000421C06D1501E7047824201D1486870476D
:103D00000C310A68531CF7D103A10B48FCF79FFA4A
:103D10000120FFF707FF000070696E6D6170206E73
:103D20006F7420666F756E6420666F7220706572A6
:103D30006970686572616C006802001070B50446B5
:103D40001546401C17D00CE0A34209D189682046D3
:103D5000FFF76EFF29462046BDE87040FFF782BF9F
:103D60000C310B68581CEFD103A10848FCF76FFA1F
:103D70000120FFF7D7FE70BD636F756C64206E6F16
:103D8000742070696E6F7574000000006802001086
:103D900070B505461749FFF7ABFFC4B21648016876
:103DA00041F0400140F8E41B016821F440510160FA
:103DB00012484FF00001C1604FF002014161C16C37
:103DC00004F108024FF0010303FA02F341EA030190
:103DD000C1644FF01401204600F012F80021204683
:103DE00000F058F8022203492846FFF7A7FF2046B3
:103DF00070BD0000C4550000C4C00F4000800140E9
:103E00004FF47A72514300F001B800002DE9F047F9
:103E100004461C480022CB1700688008A0FB01560E
:103E200002FB016100FB0311174A00232846FCF73F
:103E300001FBDFF85890D9F8182000230226C9F8B2
:103E40000460C9F8180052EA030510D0104D55F867
:103E50002440A04624680026A4FB005706FB0070FF
:103E600004FB01012846FCF7E5FAC8F80000D9F880
:103E7000501041F00101C9F850100921C9F804108F
:103E8000BDE8F087CC00001040420F0000800140E8
:103E9000E80000104FF47A72514300F001B80000BE
:103EA00070B5044610480022CB1700688008A0FBBC
:103EB000015602FB016100FB03110C4A0023284656
:103EC000FCF7B8FA0A4D0021AA69494042400A436A
:103ED00000D1401C074951F824100860286D0121C9
:103EE000A1400843286570BDCC00001040420F007F
:103EF00000800140E800001070B505460C4611F145
:103F0000FF4F01D3002404E04FF07E50844200DDD7
:103F100004460B4EB06901F0CDF8214601F012F9CC
:103F200001F090F8B169814200D1401C054951F877
:103F300025100860306D0121A9400843306570BD2F
:103F400000800140E80000101FB569461820ABBE94
:103F500004B010BD2DE9F04F8146634A634B87B032
:103F6000084619EB02020AD0B2F5804F11D0B2F523
:103F70000C2F37D0B2F5102F3ED0FCF7AFFD03F574
:103F8000D473196821F0C0011960196841F040012B
:103F900008E003F5D473196821F4407119601968B9
:103FA00041F48071196052494FEA00124FF0000B42
:103FB000096805914FF0000100914FF00101019156
:103FC0000599B1FBF2F302FB13111FFA83F80029E4
:103FD0006FD001F057F803904FEA5806CDF81080E3
:103FE000029060E003F5D673196821F4403119603E
:103FF000196841F48031D5E703F5D673196821F4C7
:1040000040211960196841F48021CBE70124012582
:1040100041E0204601F04EF80746284601F04AF8F4
:10402000394600F04DFF4FF07E5100F0DBFE00F00E
:10403000ADFE07468A46304600F03AFC042201F005
:10404000F6F93A46534600F083FC07468A4605983F
:1040500001F030F800F09AFE3A46534600F0D0FAEC
:1040600000F0E0F90146039801F038F9039900F0F7
:1040700027FF20F000473846029901F02FF808D2B8
:1040800000951C48CDE90147B046874201DA4FF060
:10409000010B6D1CEDB2A542BBD3641CE4B20F2C26
:1040A000B5D9761CB6B20498864202D8BBF1000F8F
:1040B000ACD099F80C0040F0800189F80C104FEA60
:1040C000182189F8041089F80080DDE9000140EA30
:1040D000011089F8280099F80C0020F0800189F877
:1040E0000C1007B0BDE8F08F0040FFBF00C00F40CC
:1040F000CC0000106F12833A70B54C1F042C05D30E
:104100000A4618A12748FCF7A2F81CE0491F052A17
:104110001CD2DFE802F00305080B0E00002400E0CB
:104120000124002507E00124254604E0012402259E
:1041300001E001240325012B0AD0022B08D01AA18B
:104140001848FCF784F80120FFF7ECFC1DA1F7E705
:104150005B1E41EA830141EAC40141EA0511017392
:1041600070BD0000496E76616C6964206E756D6289
:104170006572206F66206269747320282564292087
:10418000696E2073657269616C20666F726D61740F
:104190002C2073686F756C6420626520352E2E3874
:1041A0000000000068020010496E76616C696420AE
:1041B00073746F70206269747320737065636966CD
:1041C00069656400496E76616C6964207365726923
:1041D000616C207061726974792073657474696EA2
:1041E00067000000017D11F0010FFBD000787047DF
:1041F00070B50D4606462D49FFF77AFD2B4904465A
:104200006C312846FFF774FD01462046FFF754FD48
:104210000446401C14D026480122844201D125487E
:104220000260234824494042201810D0B0F5804F46
:1042300012D0B0F50C2F2FD0B0F5102F11D130E0E7
:104240001EA12648FCF703F80120FFF76BFC51F88C
:10425000C40F40F0080003E051F8C40F40F0100014
:1042600008602272002060604FF416512046FFF76C
:1042700071FE0123002208212046FFF73DFF0222A4
:104280000A493046FFF75AFD084902226C31284698
:10429000FFF754FD204670BD51F8C40F40F0807008
:1042A000DEE751F8C40F40F00070D9E7EC5400008D
:1042B00000C00040E400001000C00F405365726968
:1042C000616C2070696E6F7574206D617070696EBD
:1042D00067206661696C6564000000006802001078
:1042E000027D12F0200FFBD001707047034A126864
:1042F0009208B2FBF1F1491EC1607047CC0000107A
:1043000000B516490346B0F1402F09D014481818DB
:104310000BD0B0F5082F17D0B0F50C2F0AD118E04C
:1043200051F8C40F40F0020003E051F8C40F40F010
:1043300004000860002018670220586009491846E8
:10434000FFF7D4FF184600BD51F8C40F40F48000B9
:10435000EFE751F8C40F40F40000EAE700C00F4057
:104360000080FFBF40420F0080687047012141601C
:104370007047000070B50A4C0A4D206858B92846AD
:10438000FFF7BEFF08492846FFF7B0FF2846FFF7B2
:10439000EDFF012121602846BDE87040FFF7E4BF32
:1043A000040100100040094040420F004FF47A71B0
:1043B0004843AFF3008070B50446FFF7DBFF0546C6
:1043C000FFF7D8FF401BA042FAD370BD10B50029FB
:1043D0000AD00878002807D005487844FCF722FC6A
:1043E000002801D0002010BD0248784410BD000014
:1043F000861600007E16000010B500290AD0087845
:10440000002807D005487844FCF70CFC002801D0B0
:10441000002010BD0248784410BD00006A1700005B
:104420006217000021F00042A2F16052B2F5801F35
:1044300001F0004328BFD2F17F6C0BD95FEA001C6A
:1044400043EAC20242EB507018BF704728BF20F009
:1044500001007047B2F5801FBCBF184670474FEA95
:10446000410C1CF5001F02D2084600F032BF70B5A7
:1044700000F018FB00000089FFF7F6BF4FF0004086
:10448000A0F580007047000010B591EA030F48BF07
:1044900083F0004300F19883841A71EB030C05D27A
:1044A000121943EB0C03001B61EB0C01DFF824E154
:1044B0004FEA1154A4EB135C1EEA430F18BF9EEAA7
:1044C000445F73D023EA0E03DCF1200E21EA04518D
:1044D00043F4801332D322FA0CFE10EB0E0023FAC1
:1044E0000CFE41EB0E01CCF1200E03FA0EFE10EB98
:1044F0000E0051F10001B1F5801FCCF1200E32D237
:1045000001EB045112FA0EF2BDE8104058BF70479B
:10451000401C38BF5FEA420218BF7047002814BF32
:1045200020F0010041F100014FEA410313F5001FA3
:1045300038BF7047A1F1C04100F002BB012A43EB34
:104540000302ACF1200CDCF11F0E32BF4FF0000E65
:1045500023FA0CF310EB030041EB0451B4EB115FB1
:10456000D0D0A1EB045101F5801149085FEA300079
:1045700001EB04510ED350F1000038BF12FA0EFEC9
:1045800008D1BDE81040C9E7401C38BF5FEA4202CD
:10459000CAD1C3E7BDE810404FEA410313F5001F3D
:1045A00038BF7047A1F1C04100F0CABA9EEA445F2B
:1045B00008D011EA5E0FBDE8104004BF01F00041D1
:1045C00000207047BDE8104070B500F06BFA00BFE6
:1045D00064FBBE3E0000E0FF02494FF0000000F027
:1045E000F4BE00BF0000F87F491058BFC1F1404140
:1045F0005B1058BFC3F140438B42EFF3008070471C
:104600002DE9C04130B4DFF8A0C23CEA111418BF54
:104610003CEA131400F0EC8081EA03051CEA111453
:1046200044EAD57418BF1CEA131500F0C780A4EB48
:1046300005044FF0004545EAC12145EAC32341EA9C
:10464000505143EA525304F17F74994204F5003407
:104650004FEAC0204FEAC22208BF904200F09C807F
:104660004FEA13650FF24016765D4FEA134506FBDD
:1046700005F7C7F1807706FB07F74FEAD737A7FBA7
:1046800003687642C8F58038A7FB06CE38BFA8F18C
:10469000010807FB08E64FF0000EA6FB028CE6FBC4
:1046A00003CEDCF1000CCEF1004E38BFAEF1010EAE
:1046B000A6FB0C584FF000074FF00005E6FB0E87F5
:1046C000A1FB08C6A0FB07CE16EB0E0645F10005C0
:1046D000E1FB076515F1E04E7EBFA4F580345FEA8B
:1046E00046066D4116F1800745F100054FEA172790
:1046F0004FEA066647EA0567A6F1DE46B6F1805F37
:104700004FEA15251FD9384624F0010C05EBC4717A
:10471000BCF1FE6F01EB0C1102D8F0BCBDE80081CA
:1047200024425CBF01F5801E9EEAC47F02D4F0BC27
:10473000BDE80081244238D4F0BCA1F1C041BDE8FD
:10474000004100F0FDB94FEAD22242EA43524FEA5B
:10475000D323A7FB02864FEAD02040EA415007FB53
:1047600003661EEA0E0F4FEAD12105FB026658BF11
:10477000A6EB0056B6EB00564FEA520E4EEAC37E49
:1047800018EB0E0E56EB530EBDD518EB02085E412A
:104790007F1C55F10005B6E74FF480154FF0000778
:1047A0004FF000064FF00008ADE7F0BC4FF00000FE
:1047B00001F1C04101F00041BDE8008111EA0C1F88
:1047C0000CEA131500D00CE013EA0C1F00F0258052
:1047D0004FF00000F0BC81EA030101F00041BDE8A8
:1047E0000081F0BCBDE8004181EA030100F0A8B9F6
:1047F000F0BCBDE8004170B500F054F9097EFC3E04
:1048000000F007B881EA03014FF0000001F0004119
:10481000704781EA030100F093B9F0BCBDE80041A4
:104820004FF0000021497047FFFDFBF9F7F5F4F266
:10483000F0EEEDEBE9E8E6E4E3E1E0DEDDDBDAD83B
:10484000D7D5D4D3D1D0CFCDCCCBCAC8C7C6C5C499
:10485000C2C1C0BFBEBDBCBBBAB9B8B7B6B5B4B3B0
:10486000B2B1B0AFAEADACABAAA9A8A8A7A6A5A49B
:10487000A3A3A2A1A09F9F9E9D9C9C9B9A9999985F
:104880009797969595949393929191908F8F8E8E02
:104890008D8C8C8B8B8A898988888787868585848F
:1048A00084838382828181800000FF070000F87F7B
:1048B000B0FA80F310FA03F10AD0C3F11D0303F537
:1048C00080634FEA41504FEA035202EBD121704717
:1048D0004FF000007047000051EA030C17D41CF59C
:1048E000801F58BFBCF5801F00F10680994218BF99
:1048F000704708BF9042704707D711F5801F58BF17
:1049000013F5801F19D499427047894270471CF5EE
:10491000801F08D5BCF5801FF7D58B4218BF7047A4
:1049200008BF824270474FF4001C1CEB410F38BF98
:104930001CEB430F01D28B42704770B500F0B2F808
:10494000922449004FF000514FF08053FFF74CBEC6
:10495000DFF848C170B51CEA111E1EBF1CEA131512
:104960009EEA0C0F95EA0C0F00F06F8081EA0304B9
:1049700023EA4C134EEAD47E21EA4C1141F4801113
:1049800043F48013AE44A1FB024CA0FB0365AEF1DF
:104990007F7E361955EB0C05A1FB034C4CF100034F
:1049A000A0FB021C16EB0C06654153F10003094203
:1049B00018BF46F0010613F4007F0BD14FEA033114
:1049C0004FEA0530340341EA155140EA16506FF0C2
:1049D00003020AE04FEAC3214FEAC520F40241EA8C
:1049E000555140EA56506FF0020202EB2E4201EBA5
:1049F000025585EACE710AD05FEA440C18BF24F054
:104A0000004450F1000041F1000120EAD47040F26E
:104A1000FE7C624500D270BDA84214BF4FF08044B6
:104A20004FF04044002E08BF0024BEF1806FA8BFA5
:104A3000A1F1C041BDE8704080F282804FF00000DB
:104A400001F1C04101F0004170479EEA0C0F0CEAF1
:104A5000131518BF95EA0C0F06D04FF0000081EA3D
:104A6000030E0EF0004170BD00F01CF88900013EFD
:104A700000F007B800F009B84FEA430C5FEA5C5C4D
:104A800008D081EA030100F05BB84FEA410C5FEA0D
:104A90005C5CF6D14FF00000014970470000FF0751
:104AA0000000F87F0EF1020E2EF0030E5EF8046B8C
:104AB000364205D4012A43EB030515F5001F12D831
:104AC000012841EB010C1CF5001F0CD80ED14FEA58
:104AD000D17C15F5001F0CEB4C0C0CF1020C08BF3F
:104AE0004CEBD37C04E04FF0080C01E04FEAD37CA0
:104AF0000CEB4C0526FA05F606F00706B6F1040C99
:104B000006D20EEB860CBDE870404CF0010C6047FD
:104B1000DFE80CF0090B02024FF000414FF00000FB
:104B2000A1F5002170BD19461046012851EB010482
:104B300018BFD4F5001484BF002001F0004170BDFF
:104B40000808A0F500114FEA3101704753EA010C43
:104B500017D41CF5801F58BFBCF5801F00F10680DC
:104B60008B4218BF704708BF8242704707D713F5C2
:104B7000801F58BF11F5801F19D48B4270479B428C
:104B800070471CF5801F08D5BCF5801FF7D59942EA
:104B900018BF704708BF904270474FF4001C1CEBD1
:104BA000430F38BF1CEB410F01D2994270470FB43D
:104BB0000CBC03BCFFF7C1BE10B591EA030F48BFA0
:104BC00083F000433FF568AC841A71EB030C07D205
:104BD00012198CF0004C43EB0C03001B61EB0C0131
:104BE000DFF8A4E14FEA1154A4EB135C1EEA430F73
:104BF00018BF9EEA445F00F0B08023EA6E03524281
:104C000021EA0451C3EB6E0338BF5B1EDCF1200EBA
:104C100025D322FA0CFE10EB0E0043FA0CFE41EBFA
:104C20000E01CCF1200E03FA0EFE10EB0E0051F136
:104C30000001CCF1200E29D412FA0EF201EB04513E
:104C4000BDE8104058BF7047401C1CBFB2F1004F78
:104C5000704700280CBF491C20F00100704712EB80
:104C6000020E43EB030218BF4FF0010E4EEA420260
:104C7000ACF1200CDCF11E0E54D943FA0CFE10EB03
:104C80000E0051F1FF31CCF11E0ED5D50EF1010E03
:104C900012FA0EFE404141EB010101EB445C5FEA78
:104CA0005C5C10D910EBDE7001EB045138BFBEF133
:104CB000004FBDE8104018BF704700280CBF491CCA
:104CC00020F00100704730D24FEAD42C11F50011CA
:104CD00024F400641BD0B1FA81F20B3AA41AA41E8A
:104CE000D2F12003914030FA03F31943904001EBD5
:104CF000CC71002C01EB0451BDE81040A8BF7047F7
:104D000001F1C0414FF0000001F000417047B0FADE
:104D100080F310FA03F100D110BDE41A173C4805E6
:104D2000C90AE4E701EB045110BD491001EB04513D
:104D3000BDE810404FEA300002E04FF0000170473C
:104D40004A0008BF0042F8D0B2F5001F28BF7047E4
:104D500001F000414FF0000070479EEA445F07D029
:104D600011EA5E0FBDE8104004BF0021002070472B
:104D7000BDE8104070B5FFF795FE00BF40DFF63E7E
:104D800083F00041104670470000E0FF43004FEA07
:104D9000D30C4FEA3C0C43401FBF40070CF160515D
:104DA00013F0FE4F70471CF0006F03D100200CF091
:104DB000004170470CF0004343EA507010B540EAE0
:104DC000CC0000F040FA00BF000000924FEA000162
:104DD000FFF7B6BE4FF000414FF00000A1F50021F3
:104DE0007047000090EA010F48BF81F0004100F1D8
:104DF0007C82421A3CBF801A89184FEAD0524FF089
:104E00007F4C1CEA410FA2EBD15318BF9CEA026F02
:104E100000F03B804FF0004C4CEA00204CEA0121AE
:104E200021FA03FC10EB0C0C1ED202F1FF325FEAF8
:104E30001C2040EBC25038BF70471CF07F0F4FEA78
:104E4000400C18BFBCF17F4F38BF7047C3F120033F
:104E5000994008BF20F00100BCF17F4F38BF704778
:104E6000A0F1C04000F035BA4FEA3C00000A40EB28
:104E7000C25028BF1CF0FF0F4FEA400CE6D018BF0D
:104E8000BCF17F4F38BF7047EAE79CEA026F05D05C
:104E900010EA5C0F08BF00F00040704710B500F04A
:104EA000D2F900BF64FBBE3E401058BFC0F1404085
:104EB000491058BFC1F140418142EFF30080704773
:104EC0004FF47F0C1CEAD0121EBF1CEAD11392EAE9
:104ED0000C0F93EA0C0F00F0858090EA010F48BF99
:104EE00042F4807240F4000C41F400002CF07F4149
:104EF00020F07F4000B58142A2EB03020FF2081CB4
:104F0000ACEB504EC0F100009EF800E04FEA4E0EB0
:104F100000FB0EFC38BF49004FEA2C1C02F5FA02D8
:104F20000CFB0EF34FEACE1E4FEA112C4FEAC121C3
:104F30000EEB635E42EB22420EFB0CFC4FEA1C536D
:104F400000FB03114FEA112C4FEA01310EFB0CFC60
:104F50004FEADC4C00FB0C11C14228BF09184CEB96
:104F600003335DF804EB10EB410143EBC250B2F5A3
:104F70007C0F38BF704729D512F0F00F1CBF00F12D
:104F8000C04000F00040704700818283848586879E
:104F900088898B8C8D8E8F919293959697999A9CF8
:104FA0009D9FA0A2A3A5A7A8AAACAEB0B2B3B5B767
:104FB000B9BCBEC0C2C5C7C9CCCED1D4D7D9DCDF3D
:104FC000E2E6E9ECF0F3F7FAFE0000004FEA400CED
:104FD0000CF1807CBCF17E4F28BF7047B0F1C0401F
:104FE00000F077B990EA010F0CEAD11348BF42F400
:104FF0008072624538BF634507D213F47F0F16D025
:1050000080EA010000F00040704710B500F01BF985
:10501000097EFC3E00F005B880EA010000F0004087
:10502000704780EA010000F0004000F052B912F42D
:105030007F0F04BF0248704780EA010000F049B9C1
:105040000000C07FC10DD1F19E0206DB4FEA0023B4
:1050500043F0004323FA02F07047004207D54FEABD
:105060004001B1F1FE4F02D24FF00000704710B581
:1050700000F0E9F849922480002070476FEA200090
:105080007047000010F0004148BF4042B0FA80F382
:1050900010FA03F2C3F19D030BD051EAC35101EBA7
:1050A0001220530638BF704700F1010008BF20F0FE
:1050B00001007047B0FA80F310FA03F2C3F19D03C8
:1050C0000AD0D90501EB1220530638BF704700F112
:1050D000010008BF20F001007047000050EA010CF9
:1050E00000F113801CF5000F58BFBCF5000F01D470
:1050F0008842704707D710F5000F58BF11F5000F11
:1051000015D488427047894270471CF5000F04D5BA
:10511000BCF5000FF7D5814270474FF0807C1CEB47
:10512000400F38BF1CEB410F01D28142704710B5D0
:1051300000F089F8922449004FF000504FF0805160
:10514000FFF7B2BE4FF47F0C1CEAD0121EBF1CEA60
:10515000D11392EA0C0F93EA0C0F00F0478090EA0B
:10516000010F48BF42F480724FF0004C4CEA00201F
:105170004CEA012102EB0302A0FB0113A2F500029D
:10518000002918BF43F001035B0028BF4FEA330337
:1051900042EB22425FEA132C4CEBC2502EBFBCEB19
:1051A000436FB2F57C0F70474FEA036CBCF1004FC0
:1051B00008BF20F00100B2F57C0F38BF70470BD557
:1051C00082F0FF0212F5803FC8BF704700F1C04077
:1051D000D8BF00F00040704700F5000C5FEA4C0CAF
:1051E00048BF7047B0F1C04000F073B890EA010FBB
:1051F0000CEAD11348BF42F48072624538BF634560
:1052000004D280EA010000F00040704710B500F0C1
:105210001AF800BF8900013E00F007B800F009B895
:105220005FEA410C5FEA1C6C08D080EA010000F0E4
:1052300050B85FEA400C5FEA1C6CF6D14FF00040BA
:10524000A0F5800070470EF1020E2EF0030E5EF8FE
:10525000044B244204D44FEA4102B2F17F4F11D8EB
:105260004FEA4003B3F17F4F0CD80ED14FEAD07C08
:10527000B2F17F4F0CEB4C0C0CF1020C08BF4CEB65
:10528000D17C04E04FF0080C01E04FEAD17C0CEB3C
:105290004C0324FA03F404F00704B4F1040C06D21E
:1052A0000EEB840CBDE810404CF0010C6047DFE8C9
:1052B0000CF0070802024FF00040A0F5800010BD7E
:1052C0000846420018BFD2F1807288BF00F000404B
:1052D00010BDFF2141EAD050C005704790EA010F90
:1052E00048BF81F000413FF584AD421A04D882F0F6
:1052F0000042A0EB020011444FEAD0524FF07F4C25
:105300001CEA410FA2EBD15318BF9CEA026F4AD0AE
:105310004FF0004C4CEA00204CEA012121FA03FC3A
:10532000B0EB0C0C0FD412F0FE0F36D05FEA4C003D
:105330001DD5001240EBC25038BF70471CF03F0F24
:1053400018BF70470BE0A2F101025FEA1C2040EB9E
:10535000C25038BF70471CF07F0F18BF7047C3F1B1
:105360002003994014BF401E20F0010070478008C0
:105370004FEA122308BF7047B0FA80FCA2EB0C0280
:10538000CCF1280C60FA0CF093EA122F04BF00EB6A
:10539000C25070474FEAC3707047130A5FEADC10CF
:1053A00008BF7047F6E79CEA026F04D010EA5C0F72
:1053B00008BF0020704710B5FFF745FF40DFF63EFD
:1053C00081F000407047FBF764BE0CF00F03092B1F
:1053D00008BF082000F059800A2B0BD0082B18BFFB
:1053E000704708BF1CF0400F0AD04FF000004FF08C
:1053F000000170471CF0400F18BF4FF0004070478D
:105400001CF0100F08D020F0704300F07F4242EAF9
:10541000D3014FEA4370704700F0604021F07F42B3
:1054200042EA000201F07F4040EA727070474FF09C
:10543000FF0C4CF4E06C1CEA11531CBF9CEA030CFB
:105440009445C2BFDA4201EB02517047002B0DD0E8
:10545000BCF1000F0FD0002A01F00041A4BF41F0C1
:10546000E04141F07F614FF00000704701F00041E2
:105470004FF00000704750EA01334FF09B0C18BF0B
:105480004CF0806C7FF4A8A870471CF4801F11D0EA
:105490001CF4E02F03D06FEACC31490070474FF085
:1054A0004050EFF3008222F0704242EA000282F3A1
:1054B000008870474FF00000704700002C5A000031
:1054C00051330000325A0000B533000000000000E4
:1054D000000000002F737464696E002F7374646F92
:1054E0007574002F737464657272000000C0092027
:1054F00000C009400200000002C0092000C00040B6
:10550000010000000AC009200080094001000000DD
:105510000FC00920000001400100000019C009204F
:1055200000C009400300000040C009200000014005
:105530000200000048C0092000800940020000006D
:105540009CC0092000C0094003000000FFFFFFFFCE
:10555000FFFFFFFF0000000001C0092000C009405C
:105560000200000003C0092000C00040010000004C
:105570000BC00920008009400100000010C0092074
:1055800000000140010000001AC0092000C00940CD
:105590000300000041C0092000000140020000009B
:1055A00049C0092000800940020000009DC0092078
:1055B00000C0094003000000FFFFFFFFFFFFFFFFE7
:1055C0000000000032C009200100000002000000BD
:1055D00034C00920020000000200000035C009208C
:1055E000030000000200000037C009200400000092
:1055F0000200000038C00920050000000200000081
:105600003AC00920060000000200000040C0092046
:10561000010000000100000041C00920020000005C
:105620000100000042C0092003000000010000004A
:1056300043C00920040000000100000044C009200C
:10564000050000000100000045C009200600000020
:105650000100000079C009200200000003000000E2
:105660007AC009200300000003000000FFFFFFFFD5
:10567000FFFFFFFF00000000303132333435363792
:105680003839414243444546403058003031323386
:105690003435363738396162636465664030780086
:1056A00004000008000000000000000200010000EB
:1056B0001000000000000000000000000240000098
:1056C000000000A00000000005400000000000C82D
:1056D000000000000C4000000000409C00000000A2
:1056E000194000000020BCBE000000003440000053
:1056F000BFC91B8E00000004B5400000504BCFD046
:105700006607E2CF010000006C4100003E8251AA12
:10571000DFEEA73401000000D9420000DCB5A0E2B2
:105720003A301F97FFFFFFFFB4450000FD25A0C8DA
:10573000E9A3C14FFFFFFFFFFF3F00000000008013
:1057400000000000FF3F000000000080000000009B
:10575000E8580000DC570000D4570000E85800006B
:10576000FE57000050570000E85800002358000082
:1057700050570000D858000049580000E858000071
:105780005D58000088570000D85800007558000088
:10579000E85800008258000088570000E8580000D0
:1057A00091580000A8570000E8580000A0580000D9
:1057B000B4570000F8580000AF5800000000000087
:1057C000020000008857000002000000745700002B
:1057D00002100000D8580000C05800004E31305F61
:1057E0005F637878616269763131375F5F636C61DE
:1057F00073735F747970655F696E666F45004E31D3
:10580000305F5F637878616269763132305F5F73F1
:10581000695F636C6173735F747970655F696E66ED
:105820006F45004E31305F5F637878616269763131
:1058300032315F5F766D695F636C6173735F74793A
:1058400070655F696E666F45004E346D62656431E8
:105850003046696C6548616E646C6545004E346D18
:10586000626564313446696C6553797374656D4C57
:10587000696B6545004E346D6265643442617365E1
:1058800045004E346D6265643650776D4F757445D2
:10589000004E346D6265643653657269616C450013
:1058A0004E346D6265643653747265616D45004EA9
:1058B000346D6265643846696C654C696B6545009A
:1058C000537439747970655F696E666F000000000B
:1058D0000000000050570000000000000000000021
:1058E000000000005C570000000000000000000005
:1058F00000000000685700000000000000000000E9
:10590000000000008857000021340000113400001E
:1059100000000000000000000000000090570000A0
:10592000873400007934000000000000000000000F
:10593000000000009C5700004F350000413500007A
:105940000000000000000000000000007B350000A7
:1059500053350000000000000000000000000000BF
:10596000000000009D34000097340000F0FFFFFFAE
:105970009C570000A33600009B36000095360000BF
:10598000A93600009F36000000000000913600009C
:1059900000000000A85700000D360000FD35000093
:1059A0000000000000000000000000007B35000047
:1059B000533500000000000000000000000000005F
:1059C000000000009D3700009D370000F0FFFFFF42
:1059D000A8570000A33600009B3600009536000053
:1059E000A93600009F36000000000000913600003C
:1059F00000000000B45700003D3600002D360000C6
:105A00000000000000000000F0FFFFFFB45700009E
:105A10009D3700009D3700009D3700009D37000036
:105A20009D3700009D3700000D330000636C6561F9
:105A300072006F626A65637473004261736500008F
:105A4000905B0000C8000010500000000001000042
:105A5000E05B000018010010C80100001C010000FC
:105A60001001000043000000F8FFFFFF004040402D
:105A70004040404040404141414141404040404021
:105A800040404040404040404040404040050202CD
:105A9000020202020202020202020202022020208C
:105AA00020202020202020020202020202029090E8
:105AB00090909090101010101010101010101010E6
:105AC000101010101010101002020202020288883A
:105AD0008888888808080808080808080808080846
