:020000040000FA
:1000000000800010890100009101000093010000B0
:100010009501000097010000990100000000000018
:100020000000000000000000000000009B01000034
:100030009D010000000000009F010000A1010000E0
:10004000A3010000A3010000A3010000A301000020
:10005000A3010000A3010000A3010000A301000010
:10006000A3010000A3010000A3010000A301000000
:10007000A3010000A3010000A3010000A3010000F0
:10008000A3010000A3010000A3010000A3010000E0
:10009000A3010000A3010000A3010000A3010000D0
:1000A000A3010000A3010000A3010000A3010000C0
:1000B000A3010000A3010000A3010000A3010000B0
:1000C000A301000000F002F800F029F80AA090E86F
:1000D000000C82448344AAF10107DA4501D100F003
:1000E0001EF8AFF2090EBAE80F0013F0010F18BFA7
:1000F000FB1A43F00103184790030000A00300001F
:10010000103A24BF78C878C1FAD8520724BF30C843
:1001100030C144BF04680C6070471FB51FBD00F0BC
:1001200081F81146FFF7F9FF00F00BF800F082F8B4
:10013000002002E0401C401E401C11498842F9DBAF
:100140007047FF200F49087018E0012214E00D48A5
:100150004038007D40F002000A4940390875FFF739
:10016000E7FF08484038007D20F00200054940398B
:100170000875FFF7DDFF521C032AE8DDE5E7000004
:1001800040420F0040C0092006488047064800470B
:10019000FEE7FEE7FEE7FEE7FEE7FEE7FEE7FEE737
:1001A000FEE7FEE7AD010000C50000001B4820216E
:1001B000C0F8A011D0F8A0114906FBD500F18000CD
:1001C0000221C0F884104FF00101C0F88C104FF0EC
:1001D0000B02426001604FF0AA02C2604FF055036B
:1001E000C360A0F18000D0F888104901FBD503213D
:1001F00040F8801FC260C3600521C0F8881000214C
:10020000C0F82811C0F82C11054A4264C0F8481102
:1002100043F23A0140F8801C7047000000C00F40D4
:10022000DE87280402486A4620F007007047000075
:10023000D7000010044600F029F808B100F048F893
:100240000CB100F05DF8FEE770B50446401C10D01C
:1002500004F01F000126864024F01F0500212046DF
:1002600000F01CF80221204600F084F82868304392
:10027000286070BD20F01F0200F01F03012098408D
:1002800009B190617047D061704700000248006872
:10029000C0F3000070470000F0ED00E010B5421C14
:1002A00010D0094A104403090007C20E074800EBAA
:1002B0008300036803249440A343036003689140D0
:1002C0000B43036010BD00000040F6DF00C0024099
:1002D0001FB569461820ABBE04B010BD034A1268B2
:1002E0009208B2FBF1F1491EC1607047C8000010CE
:1002F000806870470000000000000000FFFFFFFF63
:100300001B4C2046FFF7A0FFA51C2846FFF79CFFCB
:10031000E61C3046FFF798FF671D3846FFF794FF4D
:1003200001212046FFF7A6FF00212846FFF7A2FF84
:1003300000213046FFF79EFF01213846FFF79AFF64
:10034000962000F091F800212046FFF793FF01214D
:100350002846FFF78FFF01213046FFF78BFF002172
:100360003846FFF787FF962000F07EF8D8E70000B8
:1003700032C00920F0B5421C21D0114A114F10445F
:10038000420907EB820200F01F05966EC1F380035D
:1003900003FA05F4A6439666956E25439566002BF1
:1003A0000DD103090007C20E07EB8300036C032481
:1003B0009440A3430364036C91400B430364F0BD7A
:1003C0000040F6DF00C0024000B516490346B0F118
:1003D000402F09D0144818180BD0B0F5082F17D0AB
:1003E000B0F50C2F0AD118E051F8C40F40F002000C
:1003F00003E051F8C40F40F00400086000201867C3
:100400000220586009491846FFF768FF184600BDEA
:1004100051F8C40F40F48000EFE751F8C40F40F4E6
:100420000000EAE700C00F400080FFBF40420F001D
:1004300070B50A4C0A4D206858B92846FFF7C4FF2A
:1004400008492846FFF74AFF28460121416001215B
:1004500021602846BDE87040FFF74ABFCC0000107D
:100460000040094040420F004FF47A714843AFF317
:10047000008070B50446FFF7DBFF0546FFF7D8FFA5
:10048000401BA042FAD370BD98040000C8000010C1
:10049000080000000001000000D8B80500000000BE
:04000005000000C532
:00000001FF
