:020000040000FA
:100000000080001001020000090200000B02000045
:100010000D0200000F0200001102000000000000AD
:1000200000000000000000000000000013020000BB
:100030001502000000000000170200001902000075
:100040001B0200001B0200001B0200001B0200003C
:100050001B0200001B0200001B0200001B0200002C
:100060001B0200001B0200001B0200001B0200001C
:100070001B0200001B0200001B0200001B0200000C
:100080001B0200001B0200001B0200001B020000FC
:100090001B0200001B0200001B0200001B020000EC
:1000A0001B0200001B0200001B0200001B020000DC
:1000B0001B0200001B0200001B0200001B020000CC
:1000C0001B02000000F002F800F029F80AA090E8F6
:1000D000000C82448344AAF10107DA4501D100F003
:1000E0001EF8AFF2090EBAE80F0013F0010F18BFA7
:1000F000FB1A43F00103184700040000100400003D
:10010000103A24BF78C878C1FAD8520724BF30C843
:1001100030C144BF04680C6070471FB51FBD00F0BC
:10012000BDF81146FFF7F9FF00F00BF800F0BEF83C
:10013000002002E0401C401E401C2C498842F9DB94
:10014000704700202A490870FF2029494031087073
:100150004AE02748007D00F0010030B10120254928
:10016000087002202449087005E002202149087027
:100170000120214908701E48543000781D49097833
:1001800008431B4981F85400FFF7D2FF1848543048
:100190000078184909788843154981F85400FFF719
:1001A000C7FF0120154908701AE011485430007843
:1001B0001149097808430E4981F85400FFF7B8FF48
:1001C0000B48543000780C4909788843084981F875
:1001D0005400FFF7ADFF09480078401C074908703C
:1001E000064800780328E0DDB3E7000040420F0036
:1001F00000C00920C8000010C9000010CA0000108B
:100200000648804706480047FEE7FEE7FEE7FEE7B0
:10021000FEE7FEE7FEE7FEE7FEE7FEE72502000059
:10022000C50000001B482021C0F8A011D0F8A01183
:100230004906FBD500F180000221C0F884104FF080
:100240000101C0F88C104FF00B02426001604FF0CA
:10025000AA02C2604FF05503C360A0F18000D0F83D
:1002600088104901FBD5032140F8801FC260C3609C
:100270000521C0F888100021C0F82811C0F82C1101
:10028000054A4264C0F8481143F23A0140F8801C24
:100290007047000000C00F40DE87280402486A460D
:1002A00020F0070070470000DB000010044600F05B
:1002B0001DF808B100F0AEF80CB100F02DF8FEE723
:1002C00070B50446401C10D004F01F000126864083
:1002D00024F01F050021204600F058F80221204696
:1002E00000F06EF828683043286070BD024800684E
:1002F000C0F3000070470000F0ED00E0FFFFFFFFDB
:1003000020F01F0200F01F030120984009B1906106
:100310007047D061704700001B4C2046FFF7D0FFAC
:10032000A51C2846FFF7CCFFE61C3046FFF7C8FFA8
:10033000671D3846FFF7C4FF01212046FFF7E0FFA5
:1003400000212846FFF7DCFF00213046FFF7D8FFE9
:1003500001213846FFF7D4FF962000F0BDF80021B8
:100360002046FFF7CDFF01212846FFF7C9FF0121F5
:100370003046FFF7C5FF00213846FFF7C1FF962042
:1003800000F0AAF8D8E7000032C0092010B5421CDE
:1003900010D0094A104403090007C20E074800EBB9
:1003A0008300036803249440A343036003689140DF
:1003B0000B43036010BD00000040F6DF00C00240A8
:1003C000F0B5421C21D0114A114F1044420907EBED
:1003D000820200F01F05966EC1F3800303FA05F454
:1003E000A6439666956E25439566002B0DD10309AD
:1003F0000007C20E07EB8300036C03249440A34361
:100400000364036C91400B430364F0BD0040F6DFCE
:1004100000C002401FB569461820ABBE04B010BD35
:10042000034A12689208B2FBF1F1491EC16070479D
:10043000CC00001000B516490346B0F1402F09D09A
:10044000144818180BD0B0F5082F17D0B0F50C2FA2
:100450000AD118E051F8C40F40F0020003E051F84F
:10046000C40F40F0040008600020186702205860A4
:1004700009491846FFF7D4FF184600BD51F8C40FCC
:1004800040F48000EFE751F8C40F40F40000EAE7C1
:1004900000C00F400080FFBF40420F0080687047DF
:1004A00070B50A4C0A4D206858B92846FFF7C2FFBC
:1004B00008492846FFF7B4FF284601214160012181
:1004C00021602846BDE87040FFF7E8BFD00000106B
:1004D0000040094040420F004FF47A714843AFF3A7
:1004E000008070B50446FFF7DBFF0546FFF7D8FF35
:1004F000401BA042FAD370BD08050000C8000010E0
:100500000C000000000100000000000000D8B80549
:0405100000000000E7
:04000005000000C532
:00000001FF
