:020000040000FA
:10000000008000108D0100009501000097010000A4
:10001000990100009B0100009D010000000000000C
:100020000000000000000000000000009F01000030
:10003000A101000000000000A3010000A5010000D4
:10004000A7010000A7010000A7010000A701000010
:10005000A7010000A7010000A7010000A701000000
:10006000A7010000A7010000A7010000A7010000F0
:10007000A7010000A7010000A7010000A7010000E0
:10008000A7010000A7010000A7010000A7010000D0
:10009000A7010000A7010000A7010000A7010000C0
:1000A000A7010000A7010000A7010000A7010000B0
:1000B000A7010000A7010000A7010000A7010000A0
:1000C000A701000000F002F800F057F80AA090E83D
:1000D000000C82448344AAF10107DA4501D100F003
:1000E0004CF8AFF2090EBAE80F0013F0010F18BF79
:1000F000FB1A43F00103184724400000444000006D
:10010000103A24BF78C878C1FAD8520724BF30C843
:1001100030C144BF04680C60704700000023002415
:1001200000250026103A28BF78C1FBD8520728BF07
:1001300030C148BF0B607047702900F0EE81642920
:1001400000F08880732900F02286002070471FB5D8
:100150009DE8030001F086FA00F02EFD0400002067
:10016000002102F0F5FF401C606001F08BF900F007
:1001700011FD1FBD002002F074FA02F027FB1146AA
:10018000FFF7E5FF00F0BCF802F050FC064880479E
:1001900006480047FEE7FEE7FEE7FEE7FEE7FEE76C
:1001A000FEE7FEE7FEE7FEE76D1D0000C50000006C
:1001B00010B500F001FD001D10BD00BF952F00001F
:1001C0000FB4014610B504AA039800F0E5FD10BC79
:1001D0005DF814FB0FB41CB5084B06AA7B446946B6
:1001E0000090059800F0A9FD04460020694600F043
:1001F000B7FD20461CBC5DF814FB0000810B00001D
:1002000070B50C460546012A05D02878800600D531
:10021000EA69002302E0012305E05B1C934202D25D
:10022000E05C0028F9D1A869E618C01AA861286A1C
:10023000184428622846AFF3008004E0D5E9012184
:1002400014F8010B9047B442F8D32846AFF300806E
:1002500070BD00002DE9F0410646002410687529A4
:10026000314616A510D0AFF30080002802DA4042D4
:1002700013A507E031688A0701D512A502E04907F6
:1002800004D511A5012401E0AFF3008000210A226A
:1002900006F1240709E0B0FBF2FCB0FBF2F302FB2D
:1002A0001C00303078541846491C0028F3D12346EE
:1002B0002A463046BDE8F04100F0E0BC00000000F6
:1002C0002D0000002B0000002000000011B14FF4B1
:1002D000807201E04FF480624FF4007301F036B891
:1002E000002001F06BF9AFF30080012000F000F86E
:1002F00001491820ABBEFEE726000200FFFFFFFF0A
:100300004FF41651584802F037F868E0A0205749DA
:100310000870574802F039F9012805D15348007890
:1003200040F0010051490870524802F02EF90128AE
:1003300005D14E48007840F002004C490870012178
:100340004D4801F06CFF0A2002F0F7FE00214A48F8
:1003500001F065FF454804784349486900F08BFA8D
:1003600041484169204602F077FB3F4802F011F80E
:1003700001280AD100BF3C49486900F07CFA3A499B
:10038000486902F05DFB3D49087000213C4801F0DE
:1003900046FF00213B4801F042FF3848007800F05A
:1003A00003003649087008460078012803D101216E
:1003B000334801F034FF31480078022803D101218D
:1003C000304801F02CFF2D480078032807D1012187
:1003D0002B4801F024FF01212A4801F020FF95E776
:1003E00010B50023284A511E1F4801F0D5FF0446CE
:1003F000264A274902F00AF90022234940312048C1
:1004000001F0E8FE0446214A224902F0FFF80022EA
:100410001D493F311B4801F0DDFE04461B4A1D49C2
:1004200002F0F4F800221849891D134801F0D2FEA9
:100430000446164A174902F0E9F800221249083129
:100440000B4802F07DF80446104A134902F0DEF82A
:1004500000220D49C91D074802F072F804460B4AF4
:100460000D4902F0D3F810BDFC000010C8000010C8
:10047000A8010010C40100108C010010C900001078
:10048000540100107001001001C00920000000009C
:100490003B2400001B22000087250000F0B40D461D
:1004A0000188090502D5214C7C4402E01F4C7C44A4
:1004B0000E34002100F1240608E002F00F071209B3
:1004C000E75D42EA03721B097754491C52EA0307AD
:1004D000F3D102780023120704D5702D06D009B19C
:1004E000022311342246F0BC00F0C8BB01231034B3
:1004F000F8E770B504460D4621461068AFF300805A
:10050000024629462046BDE870400023C6E7D21DBA
:1005100022F00703D3E90023C0E70368126843F021
:10052000200303600823C3610023B7E70C390000F0
:100530002DE9F05F894604464FF0000ADFF874B1F8
:10054000FB44C0F820A02046E1688847002874D00A
:10055000252806D0D4E901219047206A401C20625A
:10056000F1E700265F462046E168884720280546D7
:1005700007DB312D05D2781910F8200C08B106439D
:10058000F1E7B00701D526F00406C4F81CA0002747
:10059000C4F818A02A2D09D0284602F01FF938B354
:1005A00004EB8708303DC8F8185019E059F8041BCF
:1005B000204604EB87029161E1688847012F0546D8
:1005C00018D1E069002820DA26F020061DE0D8F8CE
:1005D000180000EB800005EB40003038C8F8180028
:1005E0002046E1688847054602F0F8F80028EED179
:1005F000012F0AD02E2D08D12046E16888477F1CA4
:100600000546022F46F02006C4DBA069002803DA65
:10061000404246F00106A061F00701D026F0100626
:100620006C2D0BD0682D09D04C2D39D06A2D35D0CA
:10063000742D35D07A2D33D016E038E0E1682F469E
:1006400020468847B842054609D16C2F26D04FF482
:100650008060E168064320468847054604E06C2F29
:100660001AD04FF4807006430DB3A5F1410019284C
:1006700002D8203546F400664A46294620462660C0
:100680004E46FFF759FD80B101280BD0F61D26F02C
:10069000070000F1080956E74020E4E78020D8E78A
:1006A0000020D6E706F104094DE7284652E7206A04
:1006B000BDE8F09F9C3800000FB400B58DB010A9C4
:1006C000099000910B904FF0FF300A9000200C90A1
:1006D000064878440690064878446A4607900F9981
:1006E00009A800F07FFB0DB05DF814FB2F07000098
:1006F000470700002DE9FF5F1D464FF0FF3B914685
:100700004FF000085F46D5E90146A96901987F1CB2
:100710008847296A824688470028F6D1BAF1FF3F08
:100720000CD0002E24F4C06419DD600614D5BAF193
:100730002B0F09D0BAF12D0F0ED103E0584604B0AB
:10074000BDE8F09F44F48064A96901987F1C884744
:10075000761E8246002E02DDBAF1300F03D0B9F1C9
:10076000000F26D032E0A969761E01987F1C44F460
:1007700000748847002E824605DDBAF1780F06D056
:10078000BAF1580F03D0B9F1000F10D01EE0B9F143
:10079000000F02D0B9F1100F18D1A969761E019887
:1007A0007F1C24F4007488478246102002E0082051
:1007B00000E00A20814609E0A96908FB0908761EC5
:1007C00001987F1C44F4007488478246002E05DDA2
:1007D0004946504600F0F2FA0028EDDAE96901983E
:1007E0008847A00502D46FF00100A8E7E00725D1F3
:1007F000600613D5600502D5C8F1000000E0404650
:1008000029680A1D2A600968220501D5087015E0CB
:10081000220701D5088011E008600FE02868011D5B
:1008200029600068210502D580F8008006E02107D4
:1008300002D5A0F8008001E0C0F8008038467EE7CD
:1008400070B50446C068810713D0800601D5A56A3B
:1008500004E0A169606808442169451A204600F057
:10086000CDFD002206462946204600F0F3FC304626
:1008700070BD002070BD70B510B1BDE87040DFE7FD
:100880000025074C6E1E07E02046FFF7D9FF00B198
:100890003546206D20F00104002CF5D1284670BDAE
:1008A000200200102DE9F0410C460746164610467E
:1008B00000F06EF82078611C61280AD0722802D0FE
:1008C00077283CD102E00125002405E0022504241C
:1008D00002E0082448F2020511F8010B2B2806D08B
:1008E000622809D011F8010C74280AD00BE045F0F9
:1008F000030544F00204EFE745F0040544F0010469
:10090000EAE744F010043846214601F0A7FF411CF5
:1009100015D00021316171604FF40071F560F16113
:100920007061200704D530460222002100F092FCBD
:10093000306D40F0010030653046BDE8F0810020A8
:10094000FBE72DE9F0410D460646104C206DC1072E
:1009500004D0410804D020F00104F7E722460EE05D
:10096000542000F035F907000ED0206D47F001014A
:10097000084354212065384600F02EFE3A462946A9
:100980003046BDE8F0418DE70020D6E72002001098
:100990002DE9F04704464FF000094FF0FF37C568D6
:1009A000D4E90486A80707D0204600F027FD30468A
:1009B00001F01CFF002802DA3846BDE8F087280560
:1009C00002D5404600F033F94C21204600F004FEE9
:1009D000206D20F0010020654846EEE710B5431C6D
:1009E00002E010F8011B71B18107FAD14FF001321A
:1009F00002C88C1A8C4314EAC211F9D0C01A0A0634
:100A000003D0C01E10BDC01A10BD0A0401D0801E44
:100A100010BD0902FCD0401E10BD40EA010370B5B4
:100A20009B072ED14FF00136042A2AD308C810C9DB
:100A30009D1B9D43121F15EAC61517D0D8B2E1B20F
:100A4000401A50EA056110D198B2A1B2401A50EA9A
:100A500005410AD123F07F4024F07F41401A50EA3B
:100A6000052102D1180EA0EB146070BDA342DBD0AB
:100A700018BA21BA884201D9012070BD4FF0FF3069
:100A800070BD0AB9002070BD10F8013B11F8014B90
:100A900063B1A3420AD1521E08D010F8013B11F8ED
:100AA000014B1BB1A34201D1521EEDD1181B70BDE9
:100AB00010B5203AC0F00B80B1E81850203AA0E8F9
:100AC0001850B1E81850A0E81850BFF4F5AF5FEA2D
:100AD000027C24BFB1E81850A0E8185044BF18C9E0
:100AE00018C0BDE810405FEA827C24BF51F8043B87
:100AF00040F8043B08BF7047D20728BF31F8023BDB
:100B000048BF11F8012B28BF20F8023B48BF00F86E
:100B1000012B70474FF0013C50F8042B51F8043B77
:100B20009A4221D1A2EB0C03934313EACC1317D1C1
:100B300050F8042B51F8043B9A4215D1A2EB0C0358
:100B4000934313EACC130BD150F8042B51F8043B18
:100B50009A4209D1A2EB0C03934313EACC13DBD0E6
:100B60004FF00000704700BFD01A01BAB1FA81F10E
:100B700001F0180122FA01F0CB40C1F12001DBB2F3
:100B8000C0B2C01A2CFA01F3D11A914311EAC31171
:100B9000E6D1704770B5064C7C44064D7D4403E0B9
:100BA000206820448047241DAC42F9D170BD00006C
:100BB000B0360000B0360000004870471C0300103B
:100BC000004870473003001000487047340300109D
:100BD00070B5064600F02AFD056806F10B0020F00E
:100BE0000704B4429CBF002070BD2B466A68BAB1AE
:100BF0001068A04210D304F1080188423CBF50683D
:100C0000586007D35168101941601168091B0160D1
:100C100058601460101D70BD13465268002AE7D159
:100C20002146284600F00AFD0028DED170BD70B5CF
:100C30000446051F00F0FAFC0068002C14BF44684D
:100C400070BD002C18BFAC423CBF20466468F8D38E
:100C500001680A18AA4218BF456003D12A680546F0
:100C60001144016028684119A1421CBF6C6070BD2D
:100C70006168696021680844286070BD2DE9F0470B
:100C80000D4699469246044600F1240801688806FC
:100C900004D5E06921F01001216000E00120A842A4
:100CA00001DD471B00E00027A1697A1902EB09006A
:100CB000081AA0612078C00602D42046AFF3008055
:100CC000002608E0D4E901211AF806009047206ABE
:100CD000401C761C20624E45F4DB2078C0060AD505
:100CE0002046AFF3008006E0D4E901213020904790
:100CF000206A401C2062381EA7F10107F4DC07E0DF
:100D0000D4E9012118F805009047206A401C2062B0
:100D1000281EA5F10105F3DC2046AFF30080207802
:100D2000000602D50220BDE8F0870120FBE70000A5
:100D300001694A1C02610878704700B58FB0CDE99F
:100D400001310021059105497944CDE9031011468F
:100D50006846FFF7EDFB0FB000BD0000E5FFFFFFA9
:100D60000A6802F8010B0A60704710B5436913B1B5
:100D7000AFF3008001E0FFF743FA012010BD1278C5
:100D800000F124010A7000224A700122EDE7116887
:100D90004FF0FF32E9E70000074B70B50D467B448A
:100DA000FFF7CBFF0446284600F056FE10B14FF087
:100DB000FF3070BD204670BDB71C00003A2800D23D
:100DC000303820F02002412A01D3A2F137008842B6
:100DD00001D34FF0FF30704702681144137801606F
:100DE00018467047D16005497944516104497944F6
:100DF000116200211161114600F074BCEDFFFFFF8C
:100E0000DF080000426842B1016811F8013B23B1DC
:100E1000521EC0E90012184670470121C160881EA9
:100E2000704742685AB1C368016843B983688B420E
:100E300005D0491E521CC0E90012002070474FF037
:100E4000FF30704770B50D4601461446D3685069AF
:100E50002A4601F091FD002807DA411C07D0E1681D
:100E600020F0004041F48041E160281A70BD204626
:100E700000F090FA4FF0FF3070BDC16800220260B0
:100E800021F4805141F0400111F4C06FC16001D0E4
:100E90008260704702694168891AC269891A816053
:100EA00070472DE9F0470446C06840F48000E060D8
:100EB000010312D520F40020E060810606D4E26A26
:100EC00061688A4200D80A46511A216040F4001035
:100ED000E06094F82500BDE8F08720F40010E060A1
:100EE000800602D5204600F0ACFAE06842F28101AB
:100EF0004FF0FF390140012903D0204600F04AFAA3
:100F0000B6E02168002600290ADAC94340F480507F
:100F10002160C4E902606068411C61600078DAE722
:100F200044F2400108420CD020F4A04040F04000C0
:100F30002660E06021696068401AE169401AA0609B
:100F400096E0216991B9C00310D4E069FFF740FE33
:100F50002061B0B1E06840F4006010F4407FE060D0
:100F600002D140F48070E06020696060E068D4F8ED
:100F700014A0C1061AD5C0030ED5204600F03EFAD3
:100F800014E004F1240020610120E061E06820F415
:100F9000407040F48060E6E721696068401AA1690A
:100FA0000144504601F006FD0028A6DBE068C003BE
:100FB0002AD56168E06A884200D808462169451A46
:100FC000E069471B1BD02046D4F8188000F016FAC1
:100FD00008EB05015046C4F8188001F0EBFC00282E
:100FE0008BDBE06840F40030E060000202D5A069CD
:100FF0002844A061E1692069C91B45180DE020461D
:1010000000F0FCF9E769F5E725696168D4E90607AE
:10101000491BE56208446560A061E06820F01000AB
:1010200010F4C06FE06002D0204600F03BFDE068A5
:1010300040F48050C4E90260000205D52069E062F6
:1010400060606FF0010046E7224639462846FFF708
:10105000F9FE411C0CD02918E16258B1401E2060F5
:10106000681C6060E06840F40030E060287832E797
:10107000484630E765602046FFF7FFFEF8E72DE9B8
:10108000F04705460C46C86820F4201040F4800064
:10109000C860800602D5084600F0D3F9E06841F246
:1010A00082014FF0FF390140022903D0204600F0B1
:1010B00071F9B5E000F42041B1F5004F0FD1C00344
:1010C00006D56168E06A884200D80846606006E09C
:1010D0002069E0626060606901F09CFBA061A0682B
:1010E0000022EEB200280DDAE1688B050AD4C04375
:1010F000A06041F490302260E0606068411C616053
:101100000670A5E0E0689046226040F40050E06080
:10111000206968BB606901F08FFB012704F1240599
:10112000A0B1A08910F4407F08D0E069FFF750FD1E
:10113000206118B1E06840F4006016E0E7612561C5
:10114000E06820F4407040F480600EE0E069FFF752
:101150003FFD00282061F1D0E06840F4006010F409
:10116000407FE06002D140F48070E0602069606000
:10117000E06825696FF0010AC1051FD56168E06A62
:10118000884200D80846411B04D02246284600F079
:101190000BF9F0BBE068010203D5E562C4E9015830
:1011A00054E0691CE1626160E16940F48030491EED
:1011B000C4E9021030462E70BDE8F087010202D566
:1011C00000F480320AE06068411C61600670E068EB
:1011D0000A2E40F48030E06006D00022E16A6068A8
:1011E000814203D90B4602E00122F7E70346A789B3
:1011F0005B1B7F0503D4E7699F4200DDE2B18142BA
:1012000000D80146E5620F1AC4E90158002B09DD38
:1012100000E005E022461946284600F0C5F808B16E
:101220004846C9E747B1A069E5626560C01BA06197
:10123000E06840F01000E060E068000208D56168F6
:10124000A069E562491B08446560A0615046B3E7A8
:101250003046B1E72DE9F041044616460D46476990
:10126000007B80072ED0384601F0E6FA50BB3EB333
:10127000012E02D0022E25D104E0204600F0F0FB22
:1012800005441DE0384601F0C5FAE168002841F048
:101290001001E16005DA204600F07CF80120BDE88D
:1012A000F081C9030BD56268E16A914200D811460A
:1012B000A26911442269891A814200DD0846054469
:1012C000002D01DA0220EAE7E16A6068E268814203
:1012D00006D29103E06203D522F4003141F01002FE
:1012E000A6690027AE4213DCE16A814201D90B46B0
:1012F00000E0034603EB060C2369ACEB030CAC45A2
:1013000006DD814201D98C4600E084469C4505D12A
:10131000A760276042F02000A5620DE0AD1BE669E2
:10132000AE1B8142A66000D90846C01A281A206068
:101330005819606022F0200003490840E060002056
:1013400084F84870ABE70000BFCFD7FF70B5C46822
:10135000A50713D0650211D4B2F5807F09D0B2F58C
:10136000007F06D0B2F5806F08D1012300F124017F
:1013700006E05D1E6FF07F46B54201D3012070BDCF
:101380000161C361416024F470611143C1600020B8
:1013900070BD0000C16821F4001141F08001C160FE
:1013A00000218160016070472DE9F04781461446B5
:1013B0000E464FF0FF383248D5685769054209D0CC
:1013C0003846A16901F0F6FA002811DB2C48C04329
:1013D0000540E5602B4632464946384601F000FBA1
:1013E000A16920F00042B21A11440028A16103D083
:1013F0002046FFF7CFFF4046BDE8F08770B50446B2
:101400000569C06A6168884200D80846E16821F42D
:101410002011E160C90312D5A84208D02246411B21
:101420002846FFF7C1FF10B14FF0FF3070BD00201C
:10143000E562C4E90150E06820F48030E0600020FB
:1014400070BD10B50446C06820F02000E060A16ABD
:10145000A06988420DD02046FFF7D0FFE06820F455
:10146000405040F01000E060A06AA0612069E06296
:10147000606044F24001E0688843E06010BD000015
:101480001000020010B54248542100F0A5F8414870
:10149000542100F0A1F84048542100F09DF83F4944
:1014A0003B483C4A3F4B08603D490A603A49196055
:1014B000531C0365481C1065012008653B48344AED
:1014C00039A17844FFF7EEF920B9384878440A3852
:1014D00000F022FB37482F4A35A17844FFF7E2F9A4
:1014E00020B9344878440A3800F016FB32482A4ABA
:1014F0002FA17844FFF7D6F920B92F4878440A384D
:1015000000F00AFB40232248DC0000212246FFF7BE
:101510001DFF20B125487844543800F0FDFA1D48DD
:10152000224640230021FFF711FF20B121487844D3
:10153000543800F0F1FA1848224610230021FFF732
:1015400005FF002806D01C487844BDE810405638F6
:1015500000F0E2BA10BD104870B5006D20F0010433
:101560000B48FFF715FA0B48FFF712FA0A48FFF786
:101570000FFA09E0206D20F001052046FFF708FA78
:101580002046FFF754FB2C46002CF3D170BD000021
:101590002002001074020010C8020010EC000010BD
:1015A000F0000010F400001072000000022800009B
:1015B00077000000F1270000E127000010B500F0DF
:1015C00093FABDE8104000F089BA10B500F0ACFA0B
:1015D000BDE8104000F082BA4FF0000200B513469B
:1015E00094469646203922BFA0E80C50A0E80C5043
:1015F000B1F12001BFF4F7AF090728BFA0E80C50F4
:1016000048BF0CC05DF804EB890028BF40F8042BEC
:1016100008BF704748BF20F8022B11F0804F18BF59
:1016200000F8012B704700F097FA704700487047A8
:1016300038030010704770477047704738B504464C
:101640000A460020694600F022FB002808BF38BD8A
:1016500002460099204600F0B9FA012038BD012069
:1016600000F002BBF8B500F007FB054600200C4671
:10167000102000BF0646A819A0420DD9324669467F
:10168000002000F004FB070008BF00F0EDFA00980E
:10169000A04218BF0546C419FFF7C8FF05600746FA
:1016A000F01D20F007004619284600F00AF8B44261
:1016B00008BFF8BDA21B31463868BDE8F84000F00D
:1016C00085BA00210160C0E9011070471020704701
:1016D00010B50446FEF76CFD0068005D00F00100E7
:1016E00010BD00002DE9F34F4FF0000A0C4656469E
:1016F0008DB001200C9001F10C000B9062690B98E9
:101700000121904705002DD0252D2CD0216A884736
:10171000C0B162690B9801219047216A884700286F
:10172000F7D16269411E0B98904700E0761CA169D1
:101730000D988847216A88470028F7D1E1690D98FC
:101740008847DBE7A1690D988847A842074601D181
:10175000761CD3E7E1690D9888477F1C02D1BAF166
:10176000000F6FD06BE162690B9800273D46394648
:1017700090472A2804D162690B98012190470125DE
:10178000DFF8D08262690B9801219047A0F1300107
:101790000A290AD24745E5DC07EB870100EB410740
:1017A000303FDFD445F01005ECE7E90601D46FF0D7
:1017B00000476C280AD04C2814D0682815D06A2815
:1017C0000DD074281CD07A281AD01DE062690B98BD
:1017D000012190476C2802D045F0040514E045F043
:1017E00002050DE045F020050AE062690B98012131
:1017F0009047682802D045F0080505E045F40065EB
:1018000062690B9801219047C4E9015765283DD0D2
:1018100019DC58287AD00CDC452837D004DC252880
:1018200026D041289ED131E046282FD0472899D193
:101830002CE05B2877D0612828D063287CD06428EE
:1018400023D15AE0F6E06F2848D008DC66281DD086
:1018500067281BD0692821D06E2816D127E0702870
:1018600045D0732868D0752847D078280DD14DE031
:10187000A1690D988847252805463FF469AFE169BD
:101880000D9888476D1C3FF46AAFD8E00D99234648
:101890006A466FF00100AFF30080C5E045F04000FC
:1018A00023464FF000026060A80736D43EE0E80708
:1018B0007FF447AF2068011D21600068290501D52C
:1018C00006701BE7290701D5068017E7A90703D58E
:1018D000F117C0E9006111E706600FE745F040002D
:1018E00023464FF008026060A80716D41EE040F6B9
:1018F0000E0125EA0100606016E045F04000234635
:101900004FF00A026060A80707D40FE045F04000DE
:101910006060A80708D5234610220D996FF00100DA
:10192000AFF3008080E007E0102223460D996FF0AE
:101930000100FEF7DFFE77E04FF0000963284F4615
:10194000C8464B46CB4602D05B2806D038E0E806B6
:1019500001D40120A060012732E06269D4F80CB004
:101960000B98012190475E2807D14FF001094946A5
:101970006269D4F80CB00B989047216939B90021FD
:101980000A4603AB43F82120491C0829FADBD8B3E7
:10199000216949B308F1010862690B980121904758
:1019A0005D28F4D1B9F1000F09D0002003A951F846
:1019B0002020D24341F82020401C0828F7DB03AB4D
:1019C0002069002820794FEA40701ED05B462246ED
:1019D000CDF80080CDE901970D9900286FF0010046
:1019E00020DAAFF300801FE0C11703AA00EBD1613A
:1019F0004B1121F01F0102EB8302411A13680120F1
:101A0000884003431360C7E719E00D992246002878
:101A10006FF00100009702DAAFF3008004E0AFF34B
:101A2000008001E0AFF3008000280ADA401C06D1F4
:101A30000C9820B14FF0FF300FB0BDE8F08F50464A
:101A4000FAE7E90701D10AF1010A064400200C90E7
:101A500054E60000CCCCCC0C007B00F0800070473A
:101A600010B50146C268900703D0900607D5886A72
:101A70000AE0FFF7A9F801210160881E10BD8B69FB
:101A8000486818440B69C01A91F848301BB191F8A6
:101A90004910401A10BD1103FCD50028FADD401E84
:101AA00010BD000070B5054640F202260A4C0FE05A
:101AB00094F85000C00708D0AC4206D0E06836EA7F
:101AC000000002D12046FEF7BBFE206D20F001048D
:101AD000002CEDD170BD000020020010002801D0C4
:101AE000FEF706BC7047000010B5002102A000F010
:101AF00087F8012010BD0000534947414252543A33
:101B00002041626E6F726D616C207465726D696EDA
:101B10006174696F6E00000010B500F08BF8BDE8CD
:101B20001040FFF7DBBF000010B5002102A000F05D
:101B300067F8012010BD00005349475056464E3A01
:101B40002050757265207669727475616C20666EBE
:101B50002063616C6C65640010B500F00EF80169DB
:101B600019B100220261884701E080688047FEF7D2
:101B7000B7FB000010B5FEF7B3FB70B500F022F81C
:101B800004680546A4B92020FFF722F8040011D00C
:101B9000094900202C60C4E900010849A1602073B4
:101BA000206160610649A06109B100F08DF8E06133
:101BB000204670BDFEF794FB00000000751B00007E
:101BC00000000000004870473C03001003464068D6
:101BD0008C46002818BF88423CBF03464068F8D3B3
:101BE00018681844884207D00CF1030020F0070061
:101BF000001D411A521A0146081D0A60FFF717B866
:101C000070B505460C460A2000E06D1C00F07AF81D
:101C100035B128780028F8D102E0641C00F072F891
:101C200014B120780028F8D1BDE870400A2000F0F7
:101C300069B8000010B5014602A0FFF7E1FF0120DE
:101C400010BD000053494752545245443A20526552
:101C50006469726563743A2063616E2774206F70E3
:101C6000656E3A200000000010B500F053F8BDE8A2
:101C70001040FFF733BF0000124B694600F5805259
:101C80008A421A6001D8114670471960704730B512
:101C90000C4D6B46A3F580532C6822449A420FD812
:101CA0009B1A02F5805003EBD37302EB6303984257
:101CB00000D91846C01D20F007020C60101B2A60D6
:101CC00030BD0000F800001010B58820FEF780FF3E
:101CD000002801D00021017010BD802902D808B170
:101CE000017809B100207047012100F8081B7047F6
:101CF00018B100F10802914201D000207047002184
:101D00000170704708B569468DF800000320ABBE2E
:101D100008BD000010B5012805D0002103A0FFF781
:101D20006FFF012010BD09A1F8E700005349475299
:101D3000544D454D3A204F7574206F66206865619B
:101D400070206D656D6F7279000000003A20486563
:101D50006170206D656D6F727920636F727275703E
:101D600074656400002100F083BA00001B48202144
:101D7000C0F8A011D0F8A0114906FBD500F18000F1
:101D80000221C0F884104FF00101C0F88C104FF010
:101D90000B02426001604FF0AA02C2604FF055038F
:101DA000C360A0F18000D0F888104901FBD5032161
:101DB00040F8801FC260C3600521C0F88810002170
:101DC000C0F82811C0F82C11054A4264C0F8481127
:101DD00043F23A0140F8801C7047000000C00F40F9
:101DE000DE8728040B4810B50068002811D10A4985
:101DF000481E01F0BBF8094C0123002208212046AF
:101E000001F038F82046BDE810404FF4165100F0BC
:101E10005FBF10BDE400001003C0092000C00040F7
:101E20002DE9F041054614460E46506900F0B8FB16
:101E3000012718B1E7602562BDE8F081206A00281B
:101E4000FAD0E069A842F7D13046A16900F0A8FBBA
:101E50000028F1D0606A18B1002027616062EBE7CA
:101E6000206A6062E8E710B51446506900F098FBFC
:101E7000002802D000202062E06010BD2DE9F04172
:101E80001468984616460D460746A047284600F0B7
:101E9000ADFB214900F084FB30B1002332463846C7
:101EA000A968FFF7EBFF2AE0284600F09FFB1B49DB
:101EB00000F076FB18B305F110041AE0F06810B1D9
:101EC0002079800714D544B1207910F0010F04D097
:101ED0002146384600F084F802E0606807EB2020D5
:101EE000234632462168FFF7C9FF3069002811D127
:101EF0000834E96805EBC1001030A042DED87468F0
:101F0000002C07D04346324629463846A446BDE851
:101F1000F0416047BDE8F081003E00000C3E00004B
:101F20002DE9FF4D82B0824614468B464FF00008E3
:101F300010460E9D00F05AFB274900F031FB78B1A6
:101F4000DA4504D1A068059900F02AFB40BB009552
:101F5000A26859465046059BFFF7E2FF804636E0EF
:101F6000204600F043FB1D4900F01AFB78B32646DB
:101F7000103426E06068C10705D02146504600F0C5
:101F80002FF8074601E00AEB20275F450BD12068B8
:101F9000059900F005FB30B12079A046800716D5E1
:101FA0000120286013E02079800709D50095226878
:101FB00059463846059BFFF7B3FF8046286830B97D
:101FC0000834F06806EBC0001030A042D2D806B04A
:101FD0004046BDE8F08D0000003E00000C3E0000D1
:101FE0000268496802EB2121096808447047000033
:101FF0002DE9FF4D8CB01446DDE91C688B460027A7
:102000001046199D00F0F2FA704900F0C9FA98B331
:10201000A0680F9900F0C4FAC8B1DBF8000010B155
:102020000C99884204D13078022801D0286828B160
:10203000012028600020CBF80000C3E001203070B0
:102040001A98C8F800000C98CBF8000012E0DDE9FF
:102050001A1202A880E846011898CDE90005A26886
:1020600059460F9B0C98FFF7C3FF002803D0286840
:10207000002800D10127A5E0FFE7204600F0B6FACE
:10208000534900F08DFA002869D018980B9440F35A
:10209000400008901898103440F30000099089E03F
:1020A000606800F001010A910C9969B10A9969B15F
:1020B00021460C98FFF794FF82461A9850B1207978
:1020C000800707D5012006E00020F5E70C9901EB19
:1020D0002020F1E70020009020680F9900F060FABE
:1020E00020B3DBF8000008B1504507D16068C10794
:1020F00002D03178012901D0296829B10120286056
:102100000020CBF8000029E0C00701D0022000E049
:10211000012030700098C8F80000CBF800A03DE026
:10212000089800E00998401C4CD142E0009900203A
:102130008DF81C0007AACDE90428069006AB189874
:10214000CDE90213CDE900052268594650460F9BA0
:10215000FFF74EFF0028286802D020B1002731E0A9
:102160000028FBD125E0069820B92079C00701D0CE
:1021700020680690307858B19DF81C10022901D1D2
:10218000022805D01B98006880B1069988420DD1BD
:102190009DF81C0030701B9806990160D8F800006B
:1021A000012730B10A980028BCD0B9E70120286087
:1021B000D4E708340B98C16800EBC1001030A0428E
:1021C0003FF66EAF10B03846BDE8F08D003E00001F
:1021D0000C3E000070B50D46114600F09BF80A4910
:1021E00004460160681C0CD025F01F01C4E90451AD
:1021F000284600F054FC206900F01F0101208840AF
:10220000A061204670BD0000CC3F000010B500F07A
:102210009BF8BDE8104000F0E5B900F095B810B5A6
:102220000A461AB1D0E90543A36102E0D0E90543AB
:10223000E36100BF10BD70B50546006801220021B2
:102240000369284698470446401C0ED0286802229D
:10225000002103692846984706462868002221463F
:10226000036928469847304670BD4FF0FF3070BD77
:10227000016000214160704770B5094805680BE0B6
:102280002C466D68207B38B1A06800F0A7F91CB11E
:102290002068416820468847002DF1D170BD0000BC
:1022A000D000001070B506460B480D4604680EE0DD
:1022B000A06858B12A463146FEF7AFFB30B9A06896
:1022C000FEF78CFBA84201D1204670BD6468002C4B
:1022D000EED1002070BD0000D000001070B50D00E0
:1022E00012D00A48202604680CE0207B48B108A1DF
:1022F0002846A268FDF76EFF0544606808B105F83E
:10230000016B6468002CF0D170BD0000D00000109B
:1023100025730000064A026000220273816021B129
:1023200004490A68426008607047426070470000D4
:10233000E43F0000D000001010B500F005F8BDE843
:10234000104000F04FB90000094901608168002980
:1023500005D0084A1168814203D141681160704775
:1023600011464A688242FBD142684A6070470000C9
:10237000E43F0000D0000010806900F0A9BC806933
:1023800000F0EEBD10B50C46806900F067FE2046F7
:1023900010BD806900F068BE70B50D4688B0164665
:1023A000194600F075F81E4901603C3101610223B5
:1023B0001C221C491C3000F042F9A0F11C043146DB
:1023C000284600F0D3FDA06100216846FFF750FFCA
:1023D00001461C2204F11C00FEF76AFB002168463E
:1023E000FFF746FF01461C2204F13800FEF760FBB0
:1023F0000D49A06940180AD0B0F5804F06D0B0F55D
:102400000C2F08D0B0F5102F02D106E00120606536
:1024100008B0204670BD0220F9E70320F7E700006E
:10242000FC3F0000651D00000040FFBF10B500F03C
:1024300055F8BDE8104000F0D5B800F04FB82DE9D0
:10244000F04107460E460C468D1807E03868016BD0
:1024500038468847411C03D004F8010BAC42F5D143
:10246000A01BBDE8F0812DE9F04107460E460C4661
:102470008D1807E0386814F8011BC26A3846904787
:10248000401C01D0AC42F5D1A01BBDE8F08100009A
:102490003EB5FFF73FFF0446094820603C3020610D
:1024A000224608A16846FDF795FE07A16846FEF79B
:1024B00048FA00216061FDF709FF20463EBD00009B
:1024C0005C4000003A257000772B000010B500F04A
:1024D00005F8BDE8104000F085B8000010B50446CE
:1024E000054820603C3020616069FEF751FA2046C3
:1024F000BDE8104000F00AB85C40000010B500F0E4
:1025000005F8BDE8104000F06DB8000030B40A498D
:102510000160183101610021084A00F110040B46E6
:1025200052F82150A54201D142F82130491C10290E
:10253000F6D330BCFFF708BFBC400000E00100103C
:1025400070B50D461146FFF7E5FE044609482060C8
:10255000681C0CD02846256100F08BFA206920F019
:102560001F01616100F01F0101208840A061204629
:1025700070BD0000F840000010B5FFF7E5FEBDE8B3
:10258000104000F02FB8FFF7DFBE014600BF4869DA
:1025900040698A69104008B1012000E000207047BE
:1025A00070B50C46A04207D0406800BF05462046E3
:1025B000406800BF854201D1012070BD002070BD80
:1025C000002070471038FFF73ABF00207047002006
:1025D00070471038FFF747BF0020704710B500F074
:1025E00001F810BD10B5FEF722FB10BD10B530B1DB
:1025F000006820B14038C46B2CB1204610BDFFF7F5
:1026000012F8002010BDFFF70EF8F6E72DE9F041B3
:10261000074690460E4600251020FEF7D9FA040022
:102620000BD0C4F80C80C4E90176FEF7C9FA016842
:10263000216004602846BDE8F0810125FAE72DE914
:10264000F0411C4617460E00804607D0054602E0C2
:102650002846B0473D442046641EF9D24046BDE8B6
:10266000F0812DE9F0410646FEF7AAFA804613E014
:1026700026B1E068B04201D025460EE0206828600F
:10268000D4E90101D8F8007088472046FEF7CFFA58
:10269000D8F80000B84200D045462C68002CE7D19D
:1026A000BDE8F0810020FEF790BF00002DE9F04D5D
:1026B00000248AB00126CDE908649B4617468A4665
:1026C000254600B10068CAF8005080461046FFF762
:1026D0008DFF1149FFF764FF08B1B86800E00320DF
:1026E00008A907AACDE904218DF81C5006AB069570
:1026F00009A9CDE90263CDE900015B463A4651469E
:102700004046FFF775FC10B1089800B101240AB0EB
:102710002046BDE8F08D00000C3E00002DE9F0459C
:102720000E46016815008BB051F8082D824602EB69
:102730000A040A944F684FF0000818D0214800900E
:102740002148CDF80C80CDF8108001900DF1140CCB
:10275000CDF80880CDF82080CDF824808CE8600486
:10276000394600236A462046FFF788FB099C24BBB4
:1027700001200290B7420BD002A8009033463A469F
:102780005146CDF808800A98FFF7CAFB0298A0B11D
:1027900029463846FFF704FF08B10A9C0DE0CDF842
:1027A0000C80CDF800802B463A4603A90AA8CDF844
:1027B0000480FFF77BFF00B1039C0BB02046BDE80F
:1027C000F0850000211E0000671E000002486A46D6
:1027D00020F00700704700004703001030380A2837
:1027E00001D201207047002070470000032801DA61
:1027F000002070470649002201EB800151F80C0DC2
:102800000A6010B10168496808474FF0FF3070470F
:10281000E0010010032801DA00207047054901EBB0
:10282000800050F80C0C10B10168896908474FF01E
:10283000FF307047E0010010032801DA01207047E3
:10284000054901EB800050F80C0C10B10168C96813
:1028500008474FF0FF307047E00100102DE9F843C2
:10286000884605463E49FEF755F9B0B13C49284631
:10287000C91DFEF74FF9A8B1394928460F31FEF7B7
:1028800049F998B1374F00244FF0FF3957F8240029
:1028900080B1641C102CF9D360E0FFF7A3FA00208C
:1028A000BDE8F883FFF79EFA0120F9E7FFF79AFAEF
:1028B0000220F5E7102C51D228783A2802D02F2890
:1028C00009D04BE06A4628A12846FDF7F5FE00989E
:1028D000B8B3103035E06A1C1546002115F8010B1D
:1028E0002F2803D008B1491CF8E700251046FFF750
:1028F000D9FC90B35FEA887101D502260AE05FEA4D
:10290000487101D5012605E05FEA087101D5092665
:1029100000E0002618F00C0F01D046F400765FEAC4
:10292000487101D546F480664B4675B10F4A10498F
:10293000FFF7F4FE88B1016832460B6929469847D3
:1029400058B147F82400E01CAAE70A4A0849FFF7F3
:10295000E5FE0028F4D01030F2E7FFE748469FE795
:10296000C83C0000E00100103A2570002C3E000039
:10297000383E0000583E000070B50D46144603284E
:1029800005DA0A4800F0ECFA2870012009E008494D
:1029900001EB800050F80C0C28B101688B682946C7
:1029A0009847201A70BD4FF0FF3070BD00C0004046
:1029B000E001001010B503280BDB084A02EB800091
:1029C00050F80C0C38B10268136900229847401C7B
:1029D00001D0002010BD4FF0FF3010BDE00100100D
:1029E0002DE9F0410E46154603280BDA00240D4F61
:1029F00004E0315D384600F031FB641CAC42F8D392
:102A0000284609E0084901EB800050F80C0C30B171
:102A100001680B6831469847281ABDE8F0814FF0ED
:102A2000FF30FAE700C00040E0010010044600F06B
:102A300091F808B100F046F90CB100F051F8FEE74A
:102A40000168002901DCFEF72CBA491E01604168CB
:102A50004A1C4260087870478A68002A01DCFEF749
:102A60000EBB521E8A604A68C0B2531C4B60107085
:102A7000704770B50446401C10D004F01F000126BA
:102A8000864024F01F050021204600F06BF803214A
:102A9000204600F081F82868B043286070BD70B50A
:102AA0000446401C10D004F01F000126864024F08C
:102AB0001F050021204600F055F80221204600F0B5
:102AC0006BF828683043286070BD20F01F0200F0CA
:102AD0001F030120984009B190617047D061704791
:102AE0001B4C2046FFF7DBFFA51C2846FFF7D7FF4E
:102AF000E61C3046FFF7D3FF671D3846FFF7CFFFD0
:102B000001212046FFF7E1FF00212846FFF7DDFF06
:102B100000213046FFF7D9FF01213846FFF7D5FFE6
:102B2000962000F005FB00212046FFF7CEFF012193
:102B30002846FFF7CAFF01213046FFF7C6FF0021F4
:102B40003846FFF7C2FF962000F0F2FAD8E70000FF
:102B500032C0092002480068C0F30000704700003E
:102B6000F0ED00E010B5421C10D0094A10440309F2
:102B70000007C20E074800EB83000368032494405B
:102B8000A3430360036891400B43036010BD000042
:102B90000040F6DF00C00240F0B5421C21D0114ACF
:102BA000114F1044420907EB820200F01F05966E98
:102BB000C1F3800303FA05F4A6439666956E254398
:102BC0009566002B0DD103090007C20E07EB8300A9
:102BD000036C03249440A3430364036C91400B43B0
:102BE0000364F0BD0040F6DF00C0024088420BD015
:102BF000421C08D0491C07D004A10948FDF7E0FA9F
:102C00000120FFF713FF08467047000070696E6DE2
:102C10006170206D69732D6D617463680000000040
:102C2000C8020010421C06D1501E7047824201D1DA
:102C3000486870470C310A68531CF7D103A10B4850
:102C4000FDF7BEFA0120FFF7F1FE000070696E6D1E
:102C50006170206E6F7420666F756E6420666F728F
:102C6000207065726970686572616C00C80200103E
:102C700070B504461546401C17D00CE0A34209D19C
:102C800089682046FFF76EFF29462046BDE8704060
:102C9000FFF782BF0C310B68581CEFD103A1084825
:102CA000FDF78EFA0120FFF7C1FE70BD636F756CF2
:102CB00064206E6F742070696E6F75740000000080
:102CC000C80200101FB569461820ABBE04B010BD85
:102CD0002DE9F04F8146634A634B87B0084619EBF4
:102CE00002020AD0B2F5804F11D0B2F50C2F37D0C6
:102CF000B2F5102F3ED0FDF7F3FA03F5D47319683F
:102D000021F0C0011960196841F0400108E003F5A5
:102D1000D473196821F440711960196841F4807105
:102D2000196052494FEA00124FF0000B09680591F3
:102D30004FF0000100914FF0010101910599B1FBA5
:102D4000F2F302FB13111FFA83F800296FD000F091
:102D500015FE03904FEA5806CDF81080029060E00F
:102D600003F5D673196821F440311960196841F4EC
:102D70008031D5E703F5D673196821F44021196035
:102D8000196841F48021CBE70124012541E0204668
:102D900000F00CFE0746284600F008FE394600F019
:102DA0002BFD4FF07E5100F0B9FC00F08BFC074684
:102DB0008A46304600F074FB042200F032FF3A46A7
:102DC000534600F081FB07468A46059800F0EEFD69
:102DD00000F078FC3A46534600F00AFA00F0CEF9CB
:102DE0000146039800F076FE039900F005FD20F0FF
:102DF00000473846029900F0EDFD08D200951C48C6
:102E0000CDE90147B046874201DA4FF0010B6D1C56
:102E1000EDB2A542BBD3641CE4B20F2CB5D9761C2D
:102E2000B6B20498864202D8BBF1000FACD099F834
:102E30000C0040F0800189F80C104FEA182189F845
:102E4000041089F80080DDE9000140EA011089F8EA
:102E5000280099F80C0020F0800189F80C1007B0C8
:102E6000BDE8F08F0040FFBF00C00F40CC00001055
:102E70006F12833A70B54C1F042C05D30A4618A173
:102E80002748FDF79DF91CE0491F052A1CD2DFE801
:102E900002F00305080B0E00002400E001240025C9
:102EA00007E00124254604E00124022501E0012475
:102EB0000325012B0AD0022B08D01AA11848FDF7D0
:102EC0007FF90120FFF7B2FD1DA1F7E75B1E41EA84
:102ED000830141EAC40141EA0511017370BD00009C
:102EE000496E76616C6964206E756D626572206FE3
:102EF000662062697473202825642920696E207316
:102F0000657269616C20666F726D61742C207368E4
:102F10006F756C6420626520352E2E38000000002D
:102F2000C8020010496E76616C69642073746F701A
:102F300020626974732073706563696669656400F3
:102F4000496E76616C69642073657269616C20708A
:102F500061726974792073657474696E670000002A
:102F6000017D11F0010FFBD00078704770B50D4660
:102F700006462D49FFF756FE2B4904466C3128467C
:102F8000FFF750FE01462046FFF730FE0446401C86
:102F900014D026480122844201D1254802602348EA
:102FA00024494042201810D0B0F5804F12D0B0F51F
:102FB0000C2F2FD0B0F5102F11D130E01EA12648D4
:102FC000FDF7FEF80120FFF731FD51F8C40F40F086
:102FD000080003E051F8C40F40F0100008602272AE
:102FE000002060604FF416512046FFF771FE012368
:102FF000002208212046FFF73DFF02220A49304601
:10300000FFF736FE084902226C312846FFF730FEF2
:10301000204670BD51F8C40F40F08070DEE751F8D3
:10302000C40F40F00070D9E7E03C000000C0004051
:10303000E400001000C00F4053657269616C20709D
:10304000696E6F7574206D617070696E672066615E
:10305000696C656400000000C8020010027D12F077
:10306000200FFBD001707047007D00F00100704719
:10307000034A12689208B2FBF1F1491EC160704721
:10308000CC00001000B516490346B0F1402F09D01E
:10309000144818180BD0B0F5082F17D0B0F50C2F26
:1030A0000AD118E051F8C40F40F0020003E051F8D3
:1030B000C40F40F004000860002018670220586028
:1030C00009491846FFF7D4FF184600BD51F8C40F50
:1030D00040F48000EFE751F8C40F40F40000EAE745
:1030E00000C00F400080FFBF40420F008068704763
:1030F000012141607047000070B50A4C0A4D2068FC
:1031000058B92846FFF7BEFF08492846FFF7B0FF29
:103110002846FFF7EDFF012121602846BDE87040F9
:10312000FFF7E4BFE80000100040094040420F00F4
:103130004FF47A714843AFF3008070B50446FFF74F
:10314000DBFF0546FFF7D8FF401BA042FAD370BD56
:1031500010B500290AD00878002807D0054878441F
:10316000FDF7D8FC002801D0002010BD02487844AB
:1031700010BD0000DE0F0000D60F000021F000425D
:10318000A2F16052B2F5801F01F0004328BFD2F1D6
:103190007F6C0BD95FEA001C43EAC20242EB50701D
:1031A00018BF704728BF20F001007047B2F5801F9C
:1031B000BCBF184670474FEA410C1CF5001F02D2F5
:1031C000084600F081BC70B500F028FA00000089C4
:1031D000FFF7F6BF4FF00040A0F5800070470000F9
:1031E00002494FF0000000F0EABC00BF0000F87F89
:1031F0002DE9C04130B4DFF8A0C23CEA111418BF79
:103200003CEA131400F0EC8081EA03051CEA111477
:1032100044EAD57418BF1CEA131500F0C780A4EB6C
:1032200005044FF0004545EAC12145EAC32341EAC0
:10323000505143EA525304F17F74994204F500342B
:103240004FEAC0204FEAC22208BF904200F09C80A3
:103250004FEA13650FF24016765D4FEA134506FB01
:1032600005F7C7F1807706FB07F74FEAD737A7FBCB
:1032700003687642C8F58038A7FB06CE38BFA8F1B0
:10328000010807FB08E64FF0000EA6FB028CE6FBE8
:1032900003CEDCF1000CCEF1004E38BFAEF1010ED2
:1032A000A6FB0C584FF000074FF00005E6FB0E8719
:1032B000A1FB08C6A0FB07CE16EB0E0645F10005E4
:1032C000E1FB076515F1E04E7EBFA4F580345FEAAF
:1032D00046066D4116F1800745F100054FEA1727B4
:1032E0004FEA066647EA0567A6F1DE46B6F1805F5B
:1032F0004FEA15251FD9384624F0010C05EBC4719F
:10330000BCF1FE6F01EB0C1102D8F0BCBDE80081EE
:1033100024425CBF01F5801E9EEAC47F02D4F0BC4B
:10332000BDE80081244238D4F0BCA1F1C041BDE821
:10333000004100F0C1B94FEAD22242EA43524FEABB
:10334000D323A7FB02864FEAD02040EA415007FB77
:1033500003661EEA0E0F4FEAD12105FB026658BF35
:10336000A6EB0056B6EB00564FEA520E4EEAC37E6D
:1033700018EB0E0E56EB530EBDD518EB02085E414E
:103380007F1C55F10005B6E74FF480154FF000079C
:103390004FF000064FF00008ADE7F0BC4FF0000022
:1033A00001F1C04101F00041BDE8008111EA0C1FAC
:1033B0000CEA131500D00CE013EA0C1F00F0258076
:1033C0004FF00000F0BC81EA030101F00041BDE8CC
:1033D0000081F0BCBDE8004181EA030100F06CB956
:1033E000F0BCBDE8004170B500F018F9097EFC3E64
:1033F00000F007B881EA03014FF0000001F000413E
:10340000704781EA030100F057B9F0BCBDE8004104
:103410004FF0000021497047FFFDFBF9F7F5F4F28A
:10342000F0EEEDEBE9E8E6E4E3E1E0DEDDDBDAD85F
:10343000D7D5D4D3D1D0CFCDCCCBCAC8C7C6C5C4BD
:10344000C2C1C0BFBEBDBCBBBAB9B8B7B6B5B4B3D4
:10345000B2B1B0AFAEADACABAAA9A8A8A7A6A5A4BF
:10346000A3A3A2A1A09F9F9E9D9C9C9B9A99999883
:103470009797969595949393929191908F8F8E8E26
:103480008D8C8C8B8B8A89898888878786858584B3
:1034900084838382828181800000FF070000F87F9F
:1034A000B0FA80F310FA03F10AD0C3F11D0303F55B
:1034B00080634FEA41504FEA035202EBD12170473B
:1034C0004FF0000070470000DFF848C170B51CEAFB
:1034D000111E1EBF1CEA13159EEA0C0F95EA0C0F75
:1034E00000F06F8081EA030423EA4C134EEAD47E95
:1034F00021EA4C1141F4801143F48013AE44A1FB46
:10350000024CA0FB0365AEF17F7E361955EB0C052E
:10351000A1FB034C4CF10003A0FB021C16EB0C06B4
:10352000654153F10003094218BF46F0010613F448
:10353000007F0BD14FEA03314FEA0530340341EAF3
:10354000155140EA16506FF003020AE04FEAC3211A
:103550004FEAC520F40241EA555140EA56506FF057
:10356000020202EB2E4201EB025585EACE710AD02F
:103570005FEA440C18BF24F0004450F1000041F110
:10358000000120EAD47040F2FE7C624500D270BD9A
:10359000A84214BF4FF080444FF04044002E08BFB3
:1035A0000024BEF1806FA8BFA1F1C041BDE870400A
:1035B00080F282804FF0000001F1C04101F0004133
:1035C00070479EEA0C0F0CEA131518BF95EA0C0F12
:1035D00006D04FF0000081EA030E0EF0004170BDEE
:1035E00000F01CF88900013E00F007B800F009B8AF
:1035F0004FEA430C5FEA5C5C08D081EA030100F00B
:103600005BB84FEA410C5FEA5C5CF6D14FF000001A
:10361000014970470000FF070000F87F0EF1020E1D
:103620002EF0030E5EF8046B364205D4012A43EBFC
:10363000030515F5001F12D8012841EB010C1CF5FC
:10364000001F0CD80ED14FEAD17C15F5001F0CEBF2
:103650004C0C0CF1020C08BF4CEBD37C04E04FF097
:10366000080C01E04FEAD37C0CEB4C0526FA05F67A
:1036700006F00706B6F1040C06D20EEB860CBDE888
:1036800070404CF0010C6047DFE80CF0090B0202BF
:103690004FF000414FF00000A1F5002170BD194628
:1036A0001046012851EB010418BFD4F5001484BF63
:1036B000002001F0004170BD0808A0F500114FEA9C
:1036C0003101704743004FEAD30C4FEA3C0C4340B2
:1036D0001FBF40070CF1605113F0FE4F70471CF004
:1036E000006F03D100200CF0004170470CF0004344
:1036F00043EA507010B540EACC0000F09FF900BFDB
:10370000000000924FEA0001FFF7D6BF4FF00041E2
:103710004FF00000A1F500217047000090EA010F72
:1037200048BF81F0004100F1DC81421A3CBF801AA1
:1037300089184FEAD0524FF07F4C1CEA410FA2EBA0
:10374000D15318BF9CEA026F00F03B804FF0004C51
:103750004CEA00204CEA012121FA03FC10EB0C0C8E
:103760001ED202F1FF325FEA1C2040EBC25038BF8C
:1037700070471CF07F0F4FEA400C18BFBCF17F4F21
:1037800038BF7047C3F12003994008BF20F0010003
:10379000BCF17F4F38BF7047A0F1C04000F094B932
:1037A0004FEA3C00000A40EBC25028BF1CF0FF0F5C
:1037B0004FEA400CE6D018BFBCF17F4F38BF7047CE
:1037C000EAE79CEA026F05D010EA5C0F08BF00F040
:1037D0000040704710B500F031F900BF64FBBE3EF9
:1037E000401058BFC0F14040491058BFC1F140419E
:1037F0008142EFF3008070474FF47F0C1CEAD01237
:103800001EBF1CEAD11392EA0C0F93EA0C0F00F0D2
:10381000858090EA010F48BF42F4807240F4000CAA
:1038200041F400002CF07F4120F07F4000B5814240
:10383000A2EB03020FF2081CACEB504EC0F10000EB
:103840009EF800E04FEA4E0E00FB0EFC38BF490028
:103850004FEA2C1C02F5FA020CFB0EF34FEACE1EC7
:103860004FEA112C4FEAC1210EEB635E42EB22427C
:103870000EFB0CFC4FEA1C5300FB03114FEA112C0A
:103880004FEA01310EFB0CFC4FEADC4C00FB0C1143
:10389000C14228BF09184CEB03335DF804EB10EB71
:1038A000410143EBC250B2F57C0F38BF704729D5B8
:1038B00012F0F00F1CBF00F1C04000F00040704754
:1038C000008182838485868788898B8C8D8E8F91F9
:1038D0009293959697999A9C9D9FA0A2A3A5A7A81D
:1038E000AAACAEB0B2B3B5B7B9BCBEC0C2C5C7C949
:1038F000CCCED1D4D7D9DCDFE2E6E9ECF0F3F7FAAD
:10390000FE0000004FEA400C0CF1807CBCF17E4FC1
:1039100028BF7047B0F1C04000F0D6B890EA010F60
:103920000CEAD11348BF42F48072624538BF634548
:1039300007D213F47F0F16D080EA010000F0004098
:10394000704710B500F07AF8097EFC3E00F005B82B
:1039500080EA010000F00040704780EA010000F0BA
:10396000004000F0B1B812F47F0F04BF0248704766
:1039700080EA010000F0A8B80000C07F10F000410C
:1039800048BF4042B0FA80F310FA03F2C3F19D033E
:103990000BD051EAC35101EB1220530638BF7047D8
:1039A00000F1010008BF20F001007047B0FA80F379
:1039B00010FA03F2C3F19D030AD0D90501EB1220DE
:1039C000530638BF704700F1010008BF20F0010026
:1039D0007047000050EA010C00F113801CF5000F45
:1039E00058BFBCF5000F01D48842704707D710F5C7
:1039F000000F58BF11F5000F15D488427047894257
:103A000070471CF5000F04D5BCF5000FF7D58142B7
:103A100070474FF0807C1CEB400F38BF1CEB410F10
:103A200001D28142704710B500F008F89224490095
:103A30004FF000504FF08051FFF7D2BE0EF1020E52
:103A40002EF0030E5EF8044B244204D44FEA4102E8
:103A5000B2F17F4F11D84FEA4003B3F17F4F0CD83A
:103A60000ED14FEAD07CB2F17F4F0CEB4C0C0CF135
:103A7000020C08BF4CEBD17C04E04FF0080C01E0D5
:103A80004FEAD17C0CEB4C0324FA03F404F0070456
:103A9000B4F1040C06D20EEB840CBDE810404CF0DF
:103AA000010C6047DFE80CF0070802024FF000400D
:103AB000A0F5800010BD0846420018BFD2F1807208
:103AC00088BF00F0004010BDFF2141EAD050C00582
:103AD0007047000090EA010F48BF81F000413FF5B8
:103AE00024AE421A04D882F00042A0EB0200114436
:103AF0004FEAD0524FF07F4C1CEA410FA2EBD1535A
:103B000018BF9CEA026F4AD04FF0004C4CEA0020EC
:103B10004CEA012121FA03FCB0EB0C0C0FD412F09B
:103B2000FE0F36D05FEA4C001DD5001240EBC250AC
:103B300038BF70471CF03F0F18BF70470BE0A2F171
:103B400001025FEA1C2040EBC25038BF70471CF0F6
:103B50007F0F18BF7047C3F12003994014BF401E68
:103B600020F00100704780084FEA122308BF704719
:103B7000B0FA80FCA2EB0C02CCF1280C60FA0CF03D
:103B800093EA122F04BF00EBC25070474FEAC37094
:103B90007047130A5FEADC1008BF7047F6E79CEA3B
:103BA000026F04D010EA5C0F08BF0020704710B508
:103BB000FFF744FF40DFF63E81F0004070470CF015
:103BC0000F03092B08BF082000F059800A2B0BD0E7
:103BD000082B18BF704708BF1CF0400F0AD04FF0E9
:103BE00000004FF0000170471CF0400F18BF4FF06D
:103BF000004070471CF0100F08D020F0704300F018
:103C00007F4242EAD3014FEA4370704700F06040C0
:103C100021F07F4242EA000201F07F4040EA7270E8
:103C200070474FF0FF0C4CF4E06C1CEA11531CBFC2
:103C30009CEA030C9445C2BFDA4201EB0251704783
:103C4000002B0DD0BCF1000F0FD0002A01F0004175
:103C5000A4BF41F0E04141F07F614FF000007047A8
:103C600001F000414FF00000704750EA01334FF07F
:103C70009B0C18BF4CF0806C7FF4B2AA70471CF408
:103C8000801F11D01CF4E02F03D06FEACC31490023
:103C900070474FF04050EFF3008222F0704242EA4A
:103CA000000282F3008870474FF000007047000068
:103CB00008410000792200000E410000DD220000D2
:103CC00000000000000000002F737464696E002F74
:103CD0007374646F7574002F73746465727200007E
:103CE00000C0092000C009400200000002C00920F5
:103CF00000C00040010000000AC009200080094007
:103D0000010000000FC00920000001400100000078
:103D100019C0092000C009400300000040C009206C
:103D2000000001400200000048C009200080094056
:103D3000020000009CC0092000C0094003000000F0
:103D4000FFFFFFFFFFFFFFFF0000000001C0092091
:103D500000C009400200000003C0092000C000406C
:103D6000010000000BC00920008009400100000094
:103D700010C0092000000140010000001AC0092005
:103D800000C009400300000041C0092000000140BC
:103D90000200000049C00920008009400200000024
:103DA0009DC0092000C0094003000000FFFFFFFF85
:103DB000FFFFFFFF0000000030313233343536376B
:103DC000383941424344454640305800303132335F
:103DD000343536373839616263646566403078005F
:103DE00004000008000000000000000200010000C4
:103DF00010000000AC3F00008C3E0000843E00003C
:103E0000AC3F0000AE3E0000F43D0000AC3F0000BF
:103E1000D33E0000F43D0000AC3F0000F93E00003E
:103E2000383E00009C3F00000D3F0000AC3F00000A
:103E3000213F0000383E00009C3F0000393F000059
:103E4000AC3F0000463F00004C3E0000AC3F00008D
:103E5000553F0000583E0000BC3F0000643F00009A
:103E60000000000002000000383E000002000000D8
:103E7000243E000002100000AC3F0000753F00002F
:103E8000383E00009C3F0000873F00004E31305F0D
:103E90005F637878616269763131375F5F636C6147
:103EA00073735F747970655F696E666F45004E313C
:103EB000305F5F637878616269763132305F5F735B
:103EC000695F636C6173735F747970655F696E6657
:103ED0006F45004E31305F5F63787861626976319B
:103EE00032315F5F766D695F636C6173735F7479A4
:103EF00070655F696E666F45004E346D6265643152
:103F0000304469676974616C4F757445004E346D57
:103F1000626564313046696C6548616E646C654504
:103F2000004E346D626564313446696C6553797353
:103F300074656D4C696B6545004E346D6265643423
:103F40004261736545004E346D6265643653657237
:103F500069616C45004E346D6265643653747265F8
:103F6000616D45004E346D6265643846696C654C20
:103F7000696B6545004E346D6265643944696769F3
:103F800074616C496E4500537439747970655F696A
:103F90006E666F0000000000F43D000000000000AD
:103FA0000000000000000000003E000000000000D3
:103FB00000000000000000000C3E000000000000B7
:103FC0000000000000000000183E00001B2200005E
:103FD0000D220000000000000000000000000000B2
:103FE000383E000049230000392300000000000093
:103FF0000000000000000000403E00003B240000E4
:104000002D2400000000000000000000000000005F
:10401000672400003F2400000000000000000000B2
:104020000000000000000000852300007F23000046
:10403000F0FFFFFF403E0000D3250000CB2500002D
:10404000C5250000D9250000CF2500000000000094
:10405000C1250000000000004C3E0000DD240000EF
:10406000CD2400000000000000000000000000005F
:10407000672400003F240000000000000000000052
:104080000000000000000000A5260000A52600009A
:10409000F0FFFFFF4C3E0000D3250000CB250000C1
:1040A000C5250000D9250000CF2500000000000034
:1040B000C125000000000000583E00000D25000052
:1040C000FD2400000000000000000000F0FFFFFFE2
:1040D000583E0000A5260000A5260000A5260000E9
:1040E000A5260000A5260000A52600003722000016
:1040F00000000000783E00008725000079250000C0
:104100000000000000000000636C656172006F62D7
:104110006A65637473004261736500005042000079
:10412000C8000010340000000001000084420000BC
:10413000FC000010440200001C01000010010000FF
:1041400043000000F8FFFFFF004040404040404077
:10415000404041414141414040404040404040405A
:1041600040404040404040404005020202020202FE
:10417000020202020202020202202020202020204D
:104180002020200202020202020290909090909061
:10419000101010101010101010101010101010101F
:1041A0001010101002020202020288888888888893
:1041B000080808080808080808080808080808087F
:1041C0000808080802020202400000000000000087
:1041D00000000000000000000000000000000000DF
:1041E00000000000000000000000000000000000CF
:1041F00000000000000000000000000000000000BF
:1042000000000000000000000000000000000000AE
:10421000000000000000000000000000000000009E
:10422000000000000000000000000000000000008E
:10423000000000000000000000000000000000007E
:1042400000000000000000000000000095C1FFFF1A
:104250000000000000D8B80500000000D8000010E1
:1042600016410000B03C000000000000000000000B
:10427000000000000000000000000000000000003E
:04428000000000003A
:04000005000000C532
:00000001FF
