:020000040000FA
:1000000000800010850100008D0100008F010000BC
:100010009101000093010000950100000000000024
:100020000000000000000000000000009701000038
:1000300099010000000000009B0100009D010000EC
:100040009F0100009F0100009F0100009F01000030
:100050009F0100009F0100009F0100009F01000020
:100060009F0100009F0100009F0100009F01000010
:100070009F0100009F0100009F0100009F01000000
:100080009F0100009F0100009F0100009F010000F0
:100090009F0100009F0100009F0100009F010000E0
:1000A0009F0100009F0100009F0100009F010000D0
:1000B0009F0100009F0100009F0100009F010000C0
:1000C0009F01000000F002F800F029F80AA090E873
:1000D000000C82448344AAF10107DA4501D100F003
:1000E0001EF8AFF2090EBAE80F0013F0010F18BFA7
:1000F000FB1A43F001031847840300009403000037
:10010000103A24BF78C878C1FAD8520724BF30C843
:1001100030C144BF04680C6070471FB51FBD00F0BC
:100120007FF81146FFF7F9FF00F00BF800F080F8B8
:10013000002002E0401C401E401C10498842F9DBB0
:100140007047FF200E49087016E00D481430007803
:1001500040F001000A49403981F85400FFF7E8FFF8
:100160000748403890F8540020F001000449403915
:1001700081F85400FFF7DCFFE7E7000040420F0082
:1001800040C009200648804706480047FEE7FEE7D2
:10019000FEE7FEE7FEE7FEE7FEE7FEE7FEE7FEE737
:1001A000A9010000C50000001B482021C0F8A011D3
:1001B000D0F8A0114906FBD500F180000221C0F85B
:1001C00084104FF00101C0F88C104FF00B02426018
:1001D00001604FF0AA02C2604FF05503C360A0F166
:1001E0008000D0F888104901FBD5032140F8801F1A
:1001F000C260C3600521C0F888100021C0F8281132
:10020000C0F82C11054A4264C0F8481143F23A0183
:1002100040F8801C7047000000C00F40DE872804B3
:1002200002486A4620F0070070470000D70000101F
:10023000044600F065F808B100F0AEF80CB100F02B
:1002400023F8FEE770B50446401C10D004F01F00F0
:100250000126864024F01F050021204600F058F8B2
:100260000221204600F06EF828683043286070BDF7
:1002700020F01F0200F01F030120984009B1906197
:100280007047D061704700001B4C2046FFF7DAFF33
:10029000A51C2846FFF7D6FFE61C3046FFF7D2FF25
:1002A000671D3846FFF7CEFF01212046FFF7E0FF2C
:1002B00000212846FFF7DCFF00213046FFF7D8FF7A
:1002C00001213846FFF7D4FF962000F0C7F800213F
:1002D0002046FFF7CDFF01212846FFF7C9FF012186
:1002E0003046FFF7C5FF00213846FFF7C1FF9620D3
:1002F00000F0B4F8D8E7000032C00920FFFFFFFF8C
:1003000002480068C0F3000070470000F0ED00E014
:1003100010B5421C10D0094A104403090007C20E50
:10032000074800EB8300036803249440A343036061
:10033000036891400B43036010BD00000040F6DFEE
:1003400000C00240F0B5421C21D0114A114F1044A8
:10035000420907EB820200F01F05966EC1F380038D
:1003600003FA05F4A6439666956E25439566002B21
:100370000DD103090007C20E07EB8300036C0324B1
:100380009440A3430364036C91400B430364F0BDAA
:100390000040F6DF00C002401FB569461820ABBE22
:1003A00004B010BD034A12689208B2FBF1F1491E75
:1003B000C1607047C800001000B516490346B0F18F
:1003C000402F09D0144818180BD0B0F5082F17D0BB
:1003D000B0F50C2F0AD118E051F8C40F40F002001C
:1003E00003E051F8C40F40F00400086000201867D3
:1003F0000220586009491846FFF7D4FF184600BD8F
:1004000051F8C40F40F48000EFE751F8C40F40F4F6
:100410000000EAE700C00F400080FFBF40420F002D
:100420008068704770B50A4C0A4D206858B9284654
:10043000FFF7C2FF08492846FFF7B4FF284601210D
:100440004160012121602846BDE87040FFF7E8BF08
:10045000CC0000100040094040420F004FF47A7178
:100460004843AFF3008070B50446FFF7DBFF054655
:10047000FFF7D8FF401BA042FAD370BD8C040000E8
:10048000C8000010080000000001000000D8B805F6
:040490000000000068
:04000005000000C532
:00000001FF
