:020000040000FA
:10000000008000101D0200002502000027020000F1
:10001000290200002B0200002D0200000000000059
:100020000000000000000000000000002F0200009F
:100030003102000000000000330200003502000021
:1000400037020000370200003702000037020000CC
:1000500037020000370200003702000037020000BC
:1000600037020000370200003702000037020000AC
:10007000370200003702000037020000370200009C
:10008000370200003702000037020000370200008C
:10009000370200003702000037020000370200007C
:1000A000370200003702000037020000370200006C
:1000B000370200003702000037020000370200005C
:1000C0003702000000F002F800F046F80AA090E8BD
:1000D000000C82448344AAF10107DA4501D100F003
:1000E0003BF8AFF2090EBAE80F0013F0010F18BF8A
:1000F000FB1A43F0010318479C0D0000BC0D0000E3
:10010000103A24BF78C878C1FAD8520724BF30C843
:1001100030C144BF04680C60704700000023002415
:1001200000250026103A28BF78C1FBD8520728BF07
:1001300030C148BF0B607047732900F09A810020DE
:1001400070471FB59DE8030000F0B4F900F0C2F855
:100150001FBD002000F06FFB00F08EFB1146FFF783
:10016000F0FF00F003F800F08FFB0000002417E020
:1001700004F00101214800F0CCFA04F0020120480B
:1001800000F0C7FA04F004011E4800F0C2FA04F0BF
:1001900008011D4800F0BDFA1C4800F08DFC641CED
:1001A000E6E710B500221A49144800F08DFA04461B
:1001B000184A194900F026FB00221549891C1048ED
:1001C00000F082FA0446134A134900F01BFB002298
:1001D0000F49C91C0B4800F077FA04460D4A0E4936
:1001E00000F010FB00220A49491D074800F06CFA94
:1001F0000446084A084900F005FB10BDE80000105D
:1002000004010010200100103C010010CDCC4C3E38
:1002100032C00920000000000F0700000648804798
:1002200006480047FEE7FEE7FEE7FEE7FEE7FEE7DB
:10023000FEE7FEE7FEE7FEE751060000C50000000E
:100240000FB41CB5084B06AA7B446946009005987C
:1002500000F0E5F804460020694600F0F3F8204677
:100260001CBC5DF814FB0000F90100002DE9F04111
:100270000E460446002020622046E168884730B3DD
:10028000252805D0D4E901219047206A401CF2E7D7
:10029000E168204600278847050018D0A5F14100F5
:1002A000192802D820354FF40067324629462046E7
:1002B0002760FFF741FF40B1012804D0F61D26F06A
:1002C00007060836D8E7361DD6E72846DAE7206A5B
:1002D000BDE8F08170B5064C7C44064D7D4403E0DA
:1002E000206820448047241DAC42F9D170BD000035
:1002F000D80B0000D80B000070470000FFFFFFFF85
:1003000070B50C460546012A05D02878800600D530
:10031000EA69002302E0012305E05B1C934202D25C
:10032000E05C0028F9D1A869E618C01AA861286A1B
:10033000184428622846AFF3008004E0D5E9012183
:1003400014F8010B9047B442F8D32846AFF300806D
:1003500070BD000001491820ABBEFEE72600020078
:10036000004870475801001070B5064600F086F846
:10037000056806F10B0020F00704B4429CBF002082
:1003800070BD2B466A68BAB11068A04210D304F160
:10039000080188423CBF5068586007D35168101963
:1003A00041601168091B016058601460101D70BD28
:1003B00013465268002AE7D12146284600F066F825
:1003C0000028DED170BD70B50446051F00F056F858
:1003D0000068002C14BF446870BD002C18BFAC42EC
:1003E0003CBF20466468F8D301680A18AA4218BFC7
:1003F000456003D12A680546114401602868411907
:10040000A1421CBF6C6070BD6168696021680844CE
:10041000286070BD01694A1C02610878704700B508
:100420008FB0CDE901310021059105497944CDE92D
:10043000031011466846FFF719FF0FB000BD00001A
:10044000E5FFFFFF0A6802F8010B0A60704710B56C
:10045000436913B1AFF3008001E0FFF751FF0120C2
:1004600010BD127800F124010A7000224A700122A6
:10047000EDE711684FF0FF32E9E7000000487047F0
:100480005C010010704770477047704738B50446EC
:100490000A460020694600F08EF8002808BF38BDE3
:1004A00002460099204600F040F8012038BD0120A6
:1004B00000F06EB8F8B500F073F8054600200C4661
:1004C000102000BF0646A819A0420DD93246694641
:1004D000002000F070F8070008BF00F059F80098FD
:1004E000A04218BF0546C419FFF7C8FF05600746BC
:1004F000F01D20F007004619284600F00AF8B44223
:1005000008BFF8BDA21B31463868BDE8F84000F0CE
:100510000CB800210160C0E901107047102070473D
:10052000002801D0FFF716BF7047034640688C468D
:10053000002818BF88423CBF03464068F8D31868BB
:100540001844884207D00CF1030020F00700001D7A
:10055000411A521A0146081D0A60FFF734BF70B5F0
:1005600005460C460A2000E06D1C00F041F835B14C
:1005700028780028F8D102E0641C00F039F814B1A2
:1005800020780028F8D1BDE870400A2000F030B88B
:1005900010B500F035F8BDE81040FFF7C1BF00000E
:1005A000124B694600F580528A421A6001D8114602
:1005B00070471960704730B50C4D6B46A3F58053FA
:1005C0002C6822449A420FD89B1A02F5805003EB04
:1005D000D37302EB6303984200D91846C01D20F084
:1005E00007020C60101B2A6030BD0000E400001000
:1005F00008B569468DF800000320ABBE08BD0000B9
:1006000010B5012805D0002103A0FFF7A8FF0120A5
:1006100010BD09A1F8E7000053494752544D454D1C
:100620003A204F7574206F662068656170206D6593
:100630006D6F7279000000003A2048656170206D8E
:10064000656D6F727920636F727275707465640086
:100650001B482021C0F8A011D0F8A0114906FBD5F5
:1006600000F180000221C0F884104FF00101C0F8B1
:100670008C104FF00B02426001604FF0AA02C26082
:100680004FF05503C360A0F18000D0F888104901F5
:10069000FBD5032140F8801FC260C3600521C0F86C
:1006A00088100021C0F82811C0F82C11054A4264B6
:1006B000C0F8481143F23A0140F8801C704700002E
:1006C00000C00F40DE87280470B50D46114600F0CB
:1006D0005FF80A4904460160681C0CD025F01F0130
:1006E000C4E90451284600F0D9F8206900F01F0140
:1006F00001208840A061204670BD0000580E000017
:1007000010B500F05FF8BDE8104000F077B800F0D9
:1007100059B810B50A461AB1D0E90543A36102E001
:10072000D0E90543E36100BF10BD000070B5094882
:1007300005680BE02C466D68207B38B1A06800F09E
:1007400059F81CB12068416820468847002DF1D136
:1007500070BD0000CC00001070B50D0012D00A482A
:10076000202604680CE0207B48B108A12846A26836
:10077000FFF766FD0544606808B105F8016B646821
:10078000002CF0D170BD0000CC00001025730000DB
:10079000064A026000220273816021B104490A689E
:1007A000426008607047426070470000700E0000B1
:1007B000CC00001010B500F005F8BDE8104000F0C6
:1007C0001DB80000094901608168002905D0084A68
:1007D0001168814203D141681160704711464A682F
:1007E0008242FBD142684A6070470000700E0000F0
:1007F000CC00001010B500F001F810BD10B5FFF7E7
:10080000E2FD10BD2DE9F041074690460E46002559
:100810001020FFF7A9FD04000BD0C4F80C80C4E938
:100820000176FFF79DFD0168216004602846BDE860
:10083000F0810125FAE72DE9F0410646FFF790FD2A
:10084000804613E026B1E068B04201D025460EE0B4
:1008500020682860D4E90101D8F800708847204654
:10086000FFF7B1FDD8F80000B84200D045462C682B
:10087000002CE7D1BDE8F08102486A4620F007006D
:100880007047000067010010044600F063F808B1EB
:1008900000F0ACF80CB100F023F8FEE770B50446A8
:1008A000401C10D004F01F000126864024F01F05D4
:1008B0000021204600F056F80221204600F06CF896
:1008C00028683043286070BD20F01F0200F01F032D
:1008D0000120984009B190617047D06170470000D5
:1008E0001B4C2046FFF7DAFFA51C2846FFF7D6FF72
:1008F000E61C3046FFF7D2FF671D3846FFF7CEFFF4
:1009000001212046FFF7E0FF00212846FFF7DCFF2A
:1009100000213046FFF7D8FF01213846FFF7D4FF0A
:10092000962000F0D9F800212046FFF7CDFF0121E5
:100930002846FFF7C9FF01213046FFF7C5FF002118
:100940003846FFF7C1FF962000F0C6F8D8E7000050
:1009500032C0092002480068C0F300007047000060
:10096000F0ED00E010B5421C10D0094A1044030914
:100970000007C20E074800EB83000368032494407D
:10098000A3430360036891400B43036010BD000064
:100990000040F6DF00C00240F0B5421C21D0114AF1
:1009A000114F1044420907EB820200F01F05966EBA
:1009B000C1F3800303FA05F4A6439666956E2543BA
:1009C0009566002B0DD103090007C20E07EB8300CB
:1009D000036C03249440A3430364036C91400B43D2
:1009E0000364F0BD0040F6DF00C002401FB5694659
:1009F0001820ABBE04B010BD034A12689208B2FBC7
:100A0000F1F1491EC1607047C800001000B51649D9
:100A10000346B0F1402F09D0144818180BD0B0F598
:100A2000082F17D0B0F50C2F0AD118E051F8C40FD9
:100A300040F0020003E051F8C40F40F004000860E9
:100A4000002018670220586009491846FFF7D4FFB4
:100A5000184600BD51F8C40F40F48000EFE751F88C
:100A6000C40F40F40000EAE700C00F400080FFBF61
:100A700040420F00806870470121416070470000CC
:100A800070B50A4C0A4D206858B92846FFF7BEFFDA
:100A900008492846FFF7B0FF2846FFF7EDFF012180
:100AA00021602846BDE87040FFF7E4BFE000001079
:100AB0000040094040420F0010B500F04BF9002201
:100AC000044B00F049F800F017F8BDE8104000F0C2
:100AD00008B8000080842E414FF47A714843AFF388
:100AE000008070B50446FFF7CBFF0546FFF7C8FF4F
:100AF000401BA042FAD370BD4FEA41034FEA535363
:100B0000A3F58063D3F11E03C8BFD3F1210C0CDD24
:100B10004FF0004242EAC12242EA505232FA03FC4C
:100B20008CEAE17CACEBE1707047102BC4BF002075
:100B3000704703F5787CBCF1FF3F04D06FF00042B2
:100B400082EA2100704770B500F0B0F84992248025
:100B500000207047F2E70000DFF848C170B51CEADA
:100B6000111E1EBF1CEA13159EEA0C0F95EA0C0F0E
:100B700000F06F8081EA030423EA4C134EEAD47E2E
:100B800021EA4C1141F4801143F48013AE44A1FBDF
:100B9000024CA0FB0365AEF17F7E361955EB0C05C8
:100BA000A1FB034C4CF10003A0FB021C16EB0C064E
:100BB000654153F10003094218BF46F0010613F4E2
:100BC000007F0BD14FEA03314FEA0530340341EA8D
:100BD000155140EA16506FF003020AE04FEAC321B4
:100BE0004FEAC520F40241EA555140EA56506FF0F1
:100BF000020202EB2E4201EB025585EACE710AD0C9
:100C00005FEA440C18BF24F0004450F1000041F1A9
:100C1000000120EAD47040F2FE7C624500D270BD33
:100C2000A84214BF4FF080444FF04044002E08BF4C
:100C30000024BEF1806FA8BFA1F1C041BDE87040A3
:100C400080F282804FF0000001F1C04101F00041CC
:100C500070479EEA0C0F0CEA131518BF95EA0C0FAB
:100C600006D04FF0000081EA030E0EF0004170BD87
:100C700000F01CF88900013E00F007B800F009B848
:100C80004FEA430C5FEA5C5C08D081EA030100F0A4
:100C90005BB84FEA410C5FEA5C5CF6D14FF00000B4
:100CA000014970470000FF070000F87F0EF1020EB7
:100CB0002EF0030E5EF8046B364205D4012A43EB96
:100CC000030515F5001F12D8012841EB010C1CF596
:100CD000001F0CD80ED14FEAD17C15F5001F0CEB8C
:100CE0004C0C0CF1020C08BF4CEBD37C04E04FF031
:100CF000080C01E04FEAD37C0CEB4C0526FA05F614
:100D000006F00706B6F1040C06D20EEB860CBDE821
:100D100070404CF0010C6047DFE80CF0090B020258
:100D20004FF000414FF00000A1F5002170BD1946C1
:100D30001046012851EB010418BFD4F5001484BFFC
:100D4000002001F0004170BD0808A0F500114FEA35
:100D50003101704743004FEAD30C4FEA3C0C43404B
:100D60001FBF40070CF1605113F0FE4F70471CF09D
:100D7000006F03D100200CF0004170470CF00043DD
:100D800043EA507010B540EACC0000F00EF800BF06
:100D9000000000924FEA0001FFF7D6BF4FF000417C
:100DA0004FF00000A1F5002170470EF1020E2EF069
:100DB000030E5EF8044B244204D44FEA4102B2F120
:100DC0007F4F11D84FEA4003B3F17F4F0CD80ED1BB
:100DD0004FEAD07CB2F17F4F0CEB4C0C0CF1020CC3
:100DE00008BF4CEBD17C04E04FF0080C01E04FEA67
:100DF000D17C0CEB4C0324FA03F404F00704B4F1A7
:100E0000040C06D20EEB840CBDE810404CF0010C33
:100E10006047DFE80CF0070802024FF00040A0F541
:100E2000800010BD0846420018BFD2F1807288BF12
:100E300000F0004010BD0000800E00002D070000F3
:100E4000860E0000590700000000000000000000AE
:100E500000000000000000000F0700000107000074
:100E60000000000000000000000000000000000082
:100E7000C5070000B50700000000000000000000EA
:100E8000636C656172006F626A65637473004261CE
:100E900073650000B80E0000C800001020000000BC
:100EA00000010000D80E0000E800001078000000EB
:100EB0001C010000EFF2FFFF00D8B80500000000A1
:100EC000D40000108E0E0000380E0000000000005C
:080ED00000000000000000001A
:04000005000000C532
:00000001FF
